{
  "_format": "hh-sol-artifact-1",
  "contractName": "AuctionContract",
  "sourceName": "contracts/NFTMarketPlace.sol",
  "abi": [
    {
      "inputs": [
        {
          "internalType": "address",
          "name": "_nftContractAddress",
          "type": "address"
        }
      ],
      "stateMutability": "nonpayable",
      "type": "constructor"
    },
    {
      "inputs": [
        {
          "internalType": "address",
          "name": "sender",
          "type": "address"
        },
        {
          "internalType": "uint256",
          "name": "tokenId",
          "type": "uint256"
        },
        {
          "internalType": "address",
          "name": "owner",
          "type": "address"
        }
      ],
      "name": "ERC721IncorrectOwner",
      "type": "error"
    },
    {
      "inputs": [
        {
          "internalType": "address",
          "name": "operator",
          "type": "address"
        },
        {
          "internalType": "uint256",
          "name": "tokenId",
          "type": "uint256"
        }
      ],
      "name": "ERC721InsufficientApproval",
      "type": "error"
    },
    {
      "inputs": [
        {
          "internalType": "address",
          "name": "approver",
          "type": "address"
        }
      ],
      "name": "ERC721InvalidApprover",
      "type": "error"
    },
    {
      "inputs": [
        {
          "internalType": "address",
          "name": "operator",
          "type": "address"
        }
      ],
      "name": "ERC721InvalidOperator",
      "type": "error"
    },
    {
      "inputs": [
        {
          "internalType": "address",
          "name": "owner",
          "type": "address"
        }
      ],
      "name": "ERC721InvalidOwner",
      "type": "error"
    },
    {
      "inputs": [
        {
          "internalType": "address",
          "name": "receiver",
          "type": "address"
        }
      ],
      "name": "ERC721InvalidReceiver",
      "type": "error"
    },
    {
      "inputs": [
        {
          "internalType": "address",
          "name": "sender",
          "type": "address"
        }
      ],
      "name": "ERC721InvalidSender",
      "type": "error"
    },
    {
      "inputs": [
        {
          "internalType": "uint256",
          "name": "tokenId",
          "type": "uint256"
        }
      ],
      "name": "ERC721NonexistentToken",
      "type": "error"
    },
    {
      "anonymous": false,
      "inputs": [
        {
          "indexed": true,
          "internalType": "address",
          "name": "owner",
          "type": "address"
        },
        {
          "indexed": true,
          "internalType": "address",
          "name": "approved",
          "type": "address"
        },
        {
          "indexed": true,
          "internalType": "uint256",
          "name": "tokenId",
          "type": "uint256"
        }
      ],
      "name": "Approval",
      "type": "event"
    },
    {
      "anonymous": false,
      "inputs": [
        {
          "indexed": true,
          "internalType": "address",
          "name": "owner",
          "type": "address"
        },
        {
          "indexed": true,
          "internalType": "address",
          "name": "operator",
          "type": "address"
        },
        {
          "indexed": false,
          "internalType": "bool",
          "name": "approved",
          "type": "bool"
        }
      ],
      "name": "ApprovalForAll",
      "type": "event"
    },
    {
      "anonymous": false,
      "inputs": [
        {
          "indexed": true,
          "internalType": "uint256",
          "name": "tokenId",
          "type": "uint256"
        },
        {
          "indexed": false,
          "internalType": "address",
          "name": "winner",
          "type": "address"
        },
        {
          "indexed": false,
          "internalType": "uint256",
          "name": "amount",
          "type": "uint256"
        }
      ],
      "name": "AuctionEnded",
      "type": "event"
    },
    {
      "anonymous": false,
      "inputs": [
        {
          "indexed": false,
          "internalType": "uint256",
          "name": "_fromTokenId",
          "type": "uint256"
        },
        {
          "indexed": false,
          "internalType": "uint256",
          "name": "_toTokenId",
          "type": "uint256"
        }
      ],
      "name": "BatchMetadataUpdate",
      "type": "event"
    },
    {
      "anonymous": false,
      "inputs": [
        {
          "indexed": true,
          "internalType": "uint256",
          "name": "tokenId",
          "type": "uint256"
        },
        {
          "indexed": false,
          "internalType": "address",
          "name": "bidder",
          "type": "address"
        },
        {
          "indexed": false,
          "internalType": "uint256",
          "name": "amount",
          "type": "uint256"
        }
      ],
      "name": "BidPlaced",
      "type": "event"
    },
    {
      "anonymous": false,
      "inputs": [
        {
          "indexed": false,
          "internalType": "uint256",
          "name": "_tokenId",
          "type": "uint256"
        }
      ],
      "name": "MetadataUpdate",
      "type": "event"
    },
    {
      "anonymous": false,
      "inputs": [
        {
          "indexed": true,
          "internalType": "address",
          "name": "from",
          "type": "address"
        },
        {
          "indexed": true,
          "internalType": "address",
          "name": "to",
          "type": "address"
        },
        {
          "indexed": true,
          "internalType": "uint256",
          "name": "tokenId",
          "type": "uint256"
        }
      ],
      "name": "Transfer",
      "type": "event"
    },
    {
      "inputs": [
        {
          "internalType": "address",
          "name": "to",
          "type": "address"
        },
        {
          "internalType": "uint256",
          "name": "tokenId",
          "type": "uint256"
        }
      ],
      "name": "approve",
      "outputs": [],
      "stateMutability": "nonpayable",
      "type": "function"
    },
    {
      "inputs": [
        {
          "internalType": "address",
          "name": "owner",
          "type": "address"
        }
      ],
      "name": "balanceOf",
      "outputs": [
        {
          "internalType": "uint256",
          "name": "",
          "type": "uint256"
        }
      ],
      "stateMutability": "view",
      "type": "function"
    },
    {
      "inputs": [
        {
          "internalType": "uint256",
          "name": "_tokenId",
          "type": "uint256"
        }
      ],
      "name": "endAuction",
      "outputs": [],
      "stateMutability": "nonpayable",
      "type": "function"
    },
    {
      "inputs": [],
      "name": "getAllRunningAuctions",
      "outputs": [
        {
          "components": [
            {
              "internalType": "uint256",
              "name": "tokenId",
              "type": "uint256"
            },
            {
              "internalType": "uint256",
              "name": "startTime",
              "type": "uint256"
            },
            {
              "internalType": "uint256",
              "name": "endTime",
              "type": "uint256"
            },
            {
              "internalType": "uint256",
              "name": "highestBid",
              "type": "uint256"
            },
            {
              "internalType": "uint256",
              "name": "minBidIncrement",
              "type": "uint256"
            },
            {
              "internalType": "uint256",
              "name": "baseBid",
              "type": "uint256"
            },
            {
              "internalType": "address payable",
              "name": "highestBidder",
              "type": "address"
            },
            {
              "internalType": "bool",
              "name": "ended",
              "type": "bool"
            },
            {
              "components": [
                {
                  "internalType": "address payable",
                  "name": "bidder",
                  "type": "address"
                },
                {
                  "internalType": "uint256",
                  "name": "amount",
                  "type": "uint256"
                },
                {
                  "internalType": "uint256",
                  "name": "timestamp",
                  "type": "uint256"
                }
              ],
              "internalType": "struct AuctionContract.Bid[]",
              "name": "bids",
              "type": "tuple[]"
            }
          ],
          "internalType": "struct AuctionContract.Auction[]",
          "name": "",
          "type": "tuple[]"
        }
      ],
      "stateMutability": "view",
      "type": "function"
    },
    {
      "inputs": [
        {
          "internalType": "uint256",
          "name": "tokenId",
          "type": "uint256"
        }
      ],
      "name": "getApproved",
      "outputs": [
        {
          "internalType": "address",
          "name": "",
          "type": "address"
        }
      ],
      "stateMutability": "view",
      "type": "function"
    },
    {
      "inputs": [
        {
          "internalType": "uint256",
          "name": "auctionId",
          "type": "uint256"
        }
      ],
      "name": "getAuction",
      "outputs": [
        {
          "components": [
            {
              "internalType": "uint256",
              "name": "tokenId",
              "type": "uint256"
            },
            {
              "internalType": "uint256",
              "name": "startTime",
              "type": "uint256"
            },
            {
              "internalType": "uint256",
              "name": "endTime",
              "type": "uint256"
            },
            {
              "internalType": "uint256",
              "name": "highestBid",
              "type": "uint256"
            },
            {
              "internalType": "uint256",
              "name": "minBidIncrement",
              "type": "uint256"
            },
            {
              "internalType": "uint256",
              "name": "baseBid",
              "type": "uint256"
            },
            {
              "internalType": "address payable",
              "name": "highestBidder",
              "type": "address"
            },
            {
              "internalType": "bool",
              "name": "ended",
              "type": "bool"
            },
            {
              "components": [
                {
                  "internalType": "address payable",
                  "name": "bidder",
                  "type": "address"
                },
                {
                  "internalType": "uint256",
                  "name": "amount",
                  "type": "uint256"
                },
                {
                  "internalType": "uint256",
                  "name": "timestamp",
                  "type": "uint256"
                }
              ],
              "internalType": "struct AuctionContract.Bid[]",
              "name": "bids",
              "type": "tuple[]"
            }
          ],
          "internalType": "struct AuctionContract.Auction",
          "name": "",
          "type": "tuple"
        }
      ],
      "stateMutability": "view",
      "type": "function"
    },
    {
      "inputs": [
        {
          "internalType": "uint256",
          "name": "auctionId",
          "type": "uint256"
        }
      ],
      "name": "getBidHistory",
      "outputs": [
        {
          "components": [
            {
              "internalType": "address payable",
              "name": "bidder",
              "type": "address"
            },
            {
              "internalType": "uint256",
              "name": "amount",
              "type": "uint256"
            },
            {
              "internalType": "uint256",
              "name": "timestamp",
              "type": "uint256"
            }
          ],
          "internalType": "struct AuctionContract.Bid[]",
          "name": "",
          "type": "tuple[]"
        }
      ],
      "stateMutability": "view",
      "type": "function"
    },
    {
      "inputs": [
        {
          "internalType": "address",
          "name": "owner",
          "type": "address"
        },
        {
          "internalType": "address",
          "name": "operator",
          "type": "address"
        }
      ],
      "name": "isApprovedForAll",
      "outputs": [
        {
          "internalType": "bool",
          "name": "",
          "type": "bool"
        }
      ],
      "stateMutability": "view",
      "type": "function"
    },
    {
      "inputs": [],
      "name": "name",
      "outputs": [
        {
          "internalType": "string",
          "name": "",
          "type": "string"
        }
      ],
      "stateMutability": "view",
      "type": "function"
    },
    {
      "inputs": [
        {
          "internalType": "uint256",
          "name": "tokenId",
          "type": "uint256"
        }
      ],
      "name": "ownerOf",
      "outputs": [
        {
          "internalType": "address",
          "name": "",
          "type": "address"
        }
      ],
      "stateMutability": "view",
      "type": "function"
    },
    {
      "inputs": [
        {
          "internalType": "uint256",
          "name": "tokenId",
          "type": "uint256"
        }
      ],
      "name": "placeBid",
      "outputs": [],
      "stateMutability": "payable",
      "type": "function"
    },
    {
      "inputs": [
        {
          "internalType": "address",
          "name": "from",
          "type": "address"
        },
        {
          "internalType": "address",
          "name": "to",
          "type": "address"
        },
        {
          "internalType": "uint256",
          "name": "tokenId",
          "type": "uint256"
        }
      ],
      "name": "safeTransferFrom",
      "outputs": [],
      "stateMutability": "nonpayable",
      "type": "function"
    },
    {
      "inputs": [
        {
          "internalType": "address",
          "name": "from",
          "type": "address"
        },
        {
          "internalType": "address",
          "name": "to",
          "type": "address"
        },
        {
          "internalType": "uint256",
          "name": "tokenId",
          "type": "uint256"
        },
        {
          "internalType": "bytes",
          "name": "data",
          "type": "bytes"
        }
      ],
      "name": "safeTransferFrom",
      "outputs": [],
      "stateMutability": "nonpayable",
      "type": "function"
    },
    {
      "inputs": [
        {
          "internalType": "address",
          "name": "operator",
          "type": "address"
        },
        {
          "internalType": "bool",
          "name": "approved",
          "type": "bool"
        }
      ],
      "name": "setApprovalForAll",
      "outputs": [],
      "stateMutability": "nonpayable",
      "type": "function"
    },
    {
      "inputs": [
        {
          "internalType": "uint256",
          "name": "_tokenId",
          "type": "uint256"
        },
        {
          "internalType": "uint256",
          "name": "_duration",
          "type": "uint256"
        },
        {
          "internalType": "uint256",
          "name": "_minBidIncrement",
          "type": "uint256"
        },
        {
          "internalType": "uint256",
          "name": "_baseBid",
          "type": "uint256"
        }
      ],
      "name": "startAuction",
      "outputs": [],
      "stateMutability": "nonpayable",
      "type": "function"
    },
    {
      "inputs": [
        {
          "internalType": "bytes4",
          "name": "interfaceId",
          "type": "bytes4"
        }
      ],
      "name": "supportsInterface",
      "outputs": [
        {
          "internalType": "bool",
          "name": "",
          "type": "bool"
        }
      ],
      "stateMutability": "view",
      "type": "function"
    },
    {
      "inputs": [],
      "name": "symbol",
      "outputs": [
        {
          "internalType": "string",
          "name": "",
          "type": "string"
        }
      ],
      "stateMutability": "view",
      "type": "function"
    },
    {
      "inputs": [
        {
          "internalType": "uint256",
          "name": "tokenId",
          "type": "uint256"
        }
      ],
      "name": "tokenURI",
      "outputs": [
        {
          "internalType": "string",
          "name": "",
          "type": "string"
        }
      ],
      "stateMutability": "view",
      "type": "function"
    },
    {
      "inputs": [
        {
          "internalType": "address",
          "name": "from",
          "type": "address"
        },
        {
          "internalType": "address",
          "name": "to",
          "type": "address"
        },
        {
          "internalType": "uint256",
          "name": "tokenId",
          "type": "uint256"
        }
      ],
      "name": "transferFrom",
      "outputs": [],
      "stateMutability": "nonpayable",
      "type": "function"
    }
  ],
  "bytecode": "0x60806040523480156200001157600080fd5b5060405162003f9f38038062003f9f83398181016040528101906200003791906200017b565b6040518060400160405280601081526020017f4d657461766572736520546f6b656e73000000000000000000000000000000008152506040518060400160405280600481526020017f4d455454000000000000000000000000000000000000000000000000000000008152508160009081620000b4919062000427565b508060019081620000c6919062000427565b50505080600760006101000a81548173ffffffffffffffffffffffffffffffffffffffff021916908373ffffffffffffffffffffffffffffffffffffffff160217905550506200050e565b600080fd5b600073ffffffffffffffffffffffffffffffffffffffff82169050919050565b6000620001438262000116565b9050919050565b620001558162000136565b81146200016157600080fd5b50565b60008151905062000175816200014a565b92915050565b60006020828403121562000194576200019362000111565b5b6000620001a48482850162000164565b91505092915050565b600081519050919050565b7f4e487b7100000000000000000000000000000000000000000000000000000000600052604160045260246000fd5b7f4e487b7100000000000000000000000000000000000000000000000000000000600052602260045260246000fd5b600060028204905060018216806200022f57607f821691505b602082108103620002455762000244620001e7565b5b50919050565b60008190508160005260206000209050919050565b60006020601f8301049050919050565b600082821b905092915050565b600060088302620002af7fffffffffffffffffffffffffffffffffffffffffffffffffffffffffffffffff8262000270565b620002bb868362000270565b95508019841693508086168417925050509392505050565b6000819050919050565b6000819050919050565b60006200030862000302620002fc84620002d3565b620002dd565b620002d3565b9050919050565b6000819050919050565b6200032483620002e7565b6200033c62000333826200030f565b8484546200027d565b825550505050565b600090565b6200035362000344565b6200036081848462000319565b505050565b5b8181101562000388576200037c60008262000349565b60018101905062000366565b5050565b601f821115620003d757620003a1816200024b565b620003ac8462000260565b81016020851015620003bc578190505b620003d4620003cb8562000260565b83018262000365565b50505b505050565b600082821c905092915050565b6000620003fc60001984600802620003dc565b1980831691505092915050565b6000620004178383620003e9565b9150826002028217905092915050565b6200043282620001ad565b67ffffffffffffffff8111156200044e576200044d620001b8565b5b6200045a825462000216565b620004678282856200038c565b600060209050601f8311600181146200049f57600084156200048a578287015190505b62000496858262000409565b86555062000506565b601f198416620004af866200024b565b60005b82811015620004d957848901518255600182019150602085019450602081019050620004b2565b86831015620004f95784890151620004f5601f891682620003e9565b8355505b6001600288020188555050505b505050505050565b613a81806200051e6000396000f3fe6080604052600436106101145760003560e01c806378bd7935116100a0578063b88d4fde11610064578063b88d4fde146103b4578063b9a2de3a146103dd578063c0738dce14610406578063c87b56dd14610443578063e985e9c51461048057610114565b806378bd7935146102de5780638d2c44881461031b57806395d89b41146103445780639979ef451461036f578063a22cb4651461038b57610114565b80630d9a1e5e116100e75780630d9a1e5e146101e757806323b872dd1461021257806342842e0e1461023b5780636352211e1461026457806370a08231146102a157610114565b806301ffc9a71461011957806306fdde0314610156578063081812fc14610181578063095ea7b3146101be575b600080fd5b34801561012557600080fd5b50610140600480360381019061013b919061276e565b6104bd565b60405161014d91906127b6565b60405180910390f35b34801561016257600080fd5b5061016b61051e565b6040516101789190612861565b60405180910390f35b34801561018d57600080fd5b506101a860048036038101906101a391906128b9565b6105b0565b6040516101b59190612927565b60405180910390f35b3480156101ca57600080fd5b506101e560048036038101906101e0919061296e565b6105cc565b005b3480156101f357600080fd5b506101fc6105e2565b6040516102099190612c65565b60405180910390f35b34801561021e57600080fd5b5061023960048036038101906102349190612c87565b6108d7565b005b34801561024757600080fd5b50610262600480360381019061025d9190612c87565b6109d9565b005b34801561027057600080fd5b5061028b600480360381019061028691906128b9565b6109f9565b6040516102989190612927565b60405180910390f35b3480156102ad57600080fd5b506102c860048036038101906102c39190612cda565b610a0b565b6040516102d59190612d16565b60405180910390f35b3480156102ea57600080fd5b50610305600480360381019061030091906128b9565b610ac5565b6040516103129190612df6565b60405180910390f35b34801561032757600080fd5b50610342600480360381019061033d9190612e18565b610c6f565b005b34801561035057600080fd5b50610359610e57565b6040516103669190612861565b60405180910390f35b610389600480360381019061038491906128b9565b610ee9565b005b34801561039757600080fd5b506103b260048036038101906103ad9190612eab565b611278565b005b3480156103c057600080fd5b506103db60048036038101906103d69190613020565b61128e565b005b3480156103e957600080fd5b5061040460048036038101906103ff91906128b9565b6112ab565b005b34801561041257600080fd5b5061042d600480360381019061042891906128b9565b611685565b60405161043a9190613112565b60405180910390f35b34801561044f57600080fd5b5061046a600480360381019061046591906128b9565b611764565b6040516104779190612861565b60405180910390f35b34801561048c57600080fd5b506104a760048036038101906104a29190613134565b611877565b6040516104b491906127b6565b60405180910390f35b6000634906490660e01b7bffffffffffffffffffffffffffffffffffffffffffffffffffffffff1916827bffffffffffffffffffffffffffffffffffffffffffffffffffffffff1916148061051757506105168261190b565b5b9050919050565b60606000805461052d906131a3565b80601f0160208091040260200160405190810160405280929190818152602001828054610559906131a3565b80156105a65780601f1061057b576101008083540402835291602001916105a6565b820191906000526020600020905b81548152906001019060200180831161058957829003601f168201915b5050505050905090565b60006105bb826119ed565b506105c582611a75565b9050919050565b6105de82826105d9611ab2565b611aba565b5050565b6060600060085467ffffffffffffffff81111561060257610601612ef5565b5b60405190808252806020026020018201604052801561063b57816020015b61062861269e565b8152602001906001900390816106205790505b509050600080600190505b60085481116108235760096000828152602001908152602001600020604051806101200160405290816000820154815260200160018201548152602001600282015481526020016003820154815260200160048201548152602001600582015481526020016006820160009054906101000a900473ffffffffffffffffffffffffffffffffffffffff1673ffffffffffffffffffffffffffffffffffffffff1673ffffffffffffffffffffffffffffffffffffffff1681526020016006820160149054906101000a900460ff1615151515815260200160078201805480602002602001604051908101604052809291908181526020016000905b828210156107dc57838290600052602060002090600302016040518060600160405290816000820160009054906101000a900473ffffffffffffffffffffffffffffffffffffffff1673ffffffffffffffffffffffffffffffffffffffff1673ffffffffffffffffffffffffffffffffffffffff1681526020016001820154815260200160028201548152505081526020019060010190610740565b50505050815250508383815181106107f7576107f66131d4565b5b6020026020010181905250818061080d90613232565b925050808061081b90613232565b915050610646565b5060008167ffffffffffffffff8111156108405761083f612ef5565b5b60405190808252806020026020018201604052801561087957816020015b61086661269e565b81526020019060019003908161085e5790505b50905060005b828110156108cd5783818151811061089a576108996131d4565b5b60200260200101518282815181106108b5576108b46131d4565b5b6020026020010181905250808060010191505061087f565b5080935050505090565b600073ffffffffffffffffffffffffffffffffffffffff168273ffffffffffffffffffffffffffffffffffffffff16036109495760006040517f64a0ae920000000000000000000000000000000000000000000000000000000081526004016109409190612927565b60405180910390fd5b600061095d8383610958611ab2565b611acc565b90508373ffffffffffffffffffffffffffffffffffffffff168173ffffffffffffffffffffffffffffffffffffffff16146109d3578382826040517f64283d7b0000000000000000000000000000000000000000000000000000000081526004016109ca9392919061327a565b60405180910390fd5b50505050565b6109f48383836040518060200160405280600081525061128e565b505050565b6000610a04826119ed565b9050919050565b60008073ffffffffffffffffffffffffffffffffffffffff168273ffffffffffffffffffffffffffffffffffffffff1603610a7e5760006040517f89c62b64000000000000000000000000000000000000000000000000000000008152600401610a759190612927565b60405180910390fd5b600360008373ffffffffffffffffffffffffffffffffffffffff1673ffffffffffffffffffffffffffffffffffffffff168152602001908152602001600020549050919050565b610acd61269e565b600060096000848152602001908152602001600020604051806101200160405290816000820154815260200160018201548152602001600282015481526020016003820154815260200160048201548152602001600582015481526020016006820160009054906101000a900473ffffffffffffffffffffffffffffffffffffffff1673ffffffffffffffffffffffffffffffffffffffff1673ffffffffffffffffffffffffffffffffffffffff1681526020016006820160149054906101000a900460ff1615151515815260200160078201805480602002602001604051908101604052809291908181526020016000905b82821015610c5c57838290600052602060002090600302016040518060600160405290816000820160009054906101000a900473ffffffffffffffffffffffffffffffffffffffff1673ffffffffffffffffffffffffffffffffffffffff1673ffffffffffffffffffffffffffffffffffffffff1681526020016001820154815260200160028201548152505081526020019060010190610bc0565b5050505081525050905080915050919050565b3373ffffffffffffffffffffffffffffffffffffffff16600760009054906101000a900473ffffffffffffffffffffffffffffffffffffffff1673ffffffffffffffffffffffffffffffffffffffff1663c7be7a49866040518263ffffffff1660e01b8152600401610ce19190612d16565b60a060405180830381865afa158015610cfe573d6000803e3d6000fd5b505050506040513d601f19601f82011682018060405250810190610d229190613398565b6020015173ffffffffffffffffffffffffffffffffffffffff1614610d7c576040517f08c379a0000000000000000000000000000000000000000000000000000000008152600401610d7390613437565b60405180910390fd5b600042905060008482610d8f9190613457565b9050600060096000888152602001908152602001600020905086816000018190555082816001018190555081816002018190555084816004018190555083816005018190555060008160060160146101000a81548160ff02191690831515021790555060008160060160006101000a81548173ffffffffffffffffffffffffffffffffffffffff021916908373ffffffffffffffffffffffffffffffffffffffff16021790555060086000815480929190610e4990613232565b919050555050505050505050565b606060018054610e66906131a3565b80601f0160208091040260200160405190810160405280929190818152602001828054610e92906131a3565b8015610edf5780601f10610eb457610100808354040283529160200191610edf565b820191906000526020600020905b815481529060010190602001808311610ec257829003601f168201915b5050505050905090565b600060096000838152602001908152602001600020905042816001015410610f46576040517f08c379a0000000000000000000000000000000000000000000000000000000008152600401610f3d906134d7565b60405180910390fd5b8060060160149054906101000a900460ff1615610f98576040517f08c379a0000000000000000000000000000000000000000000000000000000008152600401610f8f90613543565b60405180910390fd5b6009600083815260200190815260200160002060050154341015610ff1576040517f08c379a0000000000000000000000000000000000000000000000000000000008152600401610fe8906135d5565b60405180910390fd5b600960008381526020019081526020016000206004015460096000848152602001908152602001600020600301546110299190613457565b34101561106b576040517f08c379a00000000000000000000000000000000000000000000000000000000081526004016110629061368d565b60405180910390fd5b600073ffffffffffffffffffffffffffffffffffffffff168160060160009054906101000a900473ffffffffffffffffffffffffffffffffffffffff1673ffffffffffffffffffffffffffffffffffffffff1614611133578060060160009054906101000a900473ffffffffffffffffffffffffffffffffffffffff1673ffffffffffffffffffffffffffffffffffffffff166108fc82600301549081150290604051600060405180830381858888f19350505050158015611131573d6000803e3d6000fd5b505b348160030181905550338160060160006101000a81548173ffffffffffffffffffffffffffffffffffffffff021916908373ffffffffffffffffffffffffffffffffffffffff1602179055508060070160405180606001604052803373ffffffffffffffffffffffffffffffffffffffff16815260200134815260200142815250908060018154018082558091505060019003906000526020600020906003020160009091909190915060008201518160000160006101000a81548173ffffffffffffffffffffffffffffffffffffffff021916908373ffffffffffffffffffffffffffffffffffffffff16021790555060208201518160010155604082015181600201555050817f0e54eff26401bf69b81b26f60bd85ef47f5d85275c1d268d84f68d6897431c47333460405161126c9291906136ad565b60405180910390a25050565b61128a611283611ab2565b8383611ce6565b5050565b6112998484846108d7565b6112a584848484611e55565b50505050565b6009600082815260200190815260200160002060060160149054906101000a900460ff161561130f576040517f08c379a000000000000000000000000000000000000000000000000000000000815260040161130690613722565b60405180910390fd5b600760009054906101000a900473ffffffffffffffffffffffffffffffffffffffff1673ffffffffffffffffffffffffffffffffffffffff1663c7be7a49826040518263ffffffff1660e01b815260040161136a9190612d16565b60a060405180830381865afa158015611387573d6000803e3d6000fd5b505050506040513d601f19601f820116820180604052508101906113ab9190613398565b6020015173ffffffffffffffffffffffffffffffffffffffff163373ffffffffffffffffffffffffffffffffffffffff161461141c576040517f08c379a0000000000000000000000000000000000000000000000000000000008152600401611413906137b4565b60405180910390fd5b600060096000838152602001908152602001600020905060018160060160146101000a81548160ff021916908315150217905550600760009054906101000a900473ffffffffffffffffffffffffffffffffffffffff1673ffffffffffffffffffffffffffffffffffffffff16639d99c4e1838360060160009054906101000a900473ffffffffffffffffffffffffffffffffffffffff1684600301546040518463ffffffff1660e01b81526004016114d793929190613833565b600060405180830381600087803b1580156114f157600080fd5b505af1158015611505573d6000803e3d6000fd5b505050506000816003015490506000600760009054906101000a900473ffffffffffffffffffffffffffffffffffffffff1673ffffffffffffffffffffffffffffffffffffffff1663c7be7a49856040518263ffffffff1660e01b815260040161156f9190612d16565b60a060405180830381865afa15801561158c573d6000803e3d6000fd5b505050506040513d601f19601f820116820180604052508101906115b09190613398565b6020015173ffffffffffffffffffffffffffffffffffffffff16826040516115d79061389b565b60006040518083038185875af1925050503d8060008114611614576040519150601f19603f3d011682016040523d82523d6000602084013e611619565b606091505b50509050837fd2aa34a4fdbbc6dff6a3e56f46e0f3ae2a31d7785ff3487aa5c95c642acea5018460060160009054906101000a900473ffffffffffffffffffffffffffffffffffffffff1685600301546040516116779291906138b0565b60405180910390a250505050565b606060096000838152602001908152602001600020600701805480602002602001604051908101604052809291908181526020016000905b8282101561175957838290600052602060002090600302016040518060600160405290816000820160009054906101000a900473ffffffffffffffffffffffffffffffffffffffff1673ffffffffffffffffffffffffffffffffffffffff1673ffffffffffffffffffffffffffffffffffffffff16815260200160018201548152602001600282015481525050815260200190600101906116bd565b505050509050919050565b606061176f826119ed565b506000600660008481526020019081526020016000208054611790906131a3565b80601f01602080910402602001604051908101604052809291908181526020018280546117bc906131a3565b80156118095780601f106117de57610100808354040283529160200191611809565b820191906000526020600020905b8154815290600101906020018083116117ec57829003601f168201915b50505050509050600061181a61200c565b9050600081510361182f578192505050611872565b60008251111561186457808260405160200161184c929190613915565b60405160208183030381529060405292505050611872565b61186d84612023565b925050505b919050565b6000600560008473ffffffffffffffffffffffffffffffffffffffff1673ffffffffffffffffffffffffffffffffffffffff16815260200190815260200160002060008373ffffffffffffffffffffffffffffffffffffffff1673ffffffffffffffffffffffffffffffffffffffff16815260200190815260200160002060009054906101000a900460ff16905092915050565b60007f80ac58cd000000000000000000000000000000000000000000000000000000007bffffffffffffffffffffffffffffffffffffffffffffffffffffffff1916827bffffffffffffffffffffffffffffffffffffffffffffffffffffffff191614806119d657507f5b5e139f000000000000000000000000000000000000000000000000000000007bffffffffffffffffffffffffffffffffffffffffffffffffffffffff1916827bffffffffffffffffffffffffffffffffffffffffffffffffffffffff1916145b806119e657506119e58261208c565b5b9050919050565b6000806119f9836120f6565b9050600073ffffffffffffffffffffffffffffffffffffffff168173ffffffffffffffffffffffffffffffffffffffff1603611a6c57826040517f7e273289000000000000000000000000000000000000000000000000000000008152600401611a639190612d16565b60405180910390fd5b80915050919050565b60006004600083815260200190815260200160002060009054906101000a900473ffffffffffffffffffffffffffffffffffffffff169050919050565b600033905090565b611ac78383836001612133565b505050565b600080611ad8846120f6565b9050600073ffffffffffffffffffffffffffffffffffffffff168373ffffffffffffffffffffffffffffffffffffffff1614611b1a57611b198184866122f8565b5b600073ffffffffffffffffffffffffffffffffffffffff168173ffffffffffffffffffffffffffffffffffffffff1614611bab57611b5c600085600080612133565b6001600360008373ffffffffffffffffffffffffffffffffffffffff1673ffffffffffffffffffffffffffffffffffffffff168152602001908152602001600020600082825403925050819055505b600073ffffffffffffffffffffffffffffffffffffffff168573ffffffffffffffffffffffffffffffffffffffff1614611c2e576001600360008773ffffffffffffffffffffffffffffffffffffffff1673ffffffffffffffffffffffffffffffffffffffff168152602001908152602001600020600082825401925050819055505b846002600086815260200190815260200160002060006101000a81548173ffffffffffffffffffffffffffffffffffffffff021916908373ffffffffffffffffffffffffffffffffffffffff160217905550838573ffffffffffffffffffffffffffffffffffffffff168273ffffffffffffffffffffffffffffffffffffffff167fddf252ad1be2c89b69c2b068fc378daa952ba7f163c4a11628f55a4df523b3ef60405160405180910390a4809150509392505050565b600073ffffffffffffffffffffffffffffffffffffffff168273ffffffffffffffffffffffffffffffffffffffff1603611d5757816040517f5b08ba18000000000000000000000000000000000000000000000000000000008152600401611d4e9190612927565b60405180910390fd5b80600560008573ffffffffffffffffffffffffffffffffffffffff1673ffffffffffffffffffffffffffffffffffffffff16815260200190815260200160002060008473ffffffffffffffffffffffffffffffffffffffff1673ffffffffffffffffffffffffffffffffffffffff16815260200190815260200160002060006101000a81548160ff0219169083151502179055508173ffffffffffffffffffffffffffffffffffffffff168373ffffffffffffffffffffffffffffffffffffffff167f17307eab39ab6107e8899845ad3d59bd9653f200f220920489ca2b5937696c3183604051611e4891906127b6565b60405180910390a3505050565b60008373ffffffffffffffffffffffffffffffffffffffff163b1115612006578273ffffffffffffffffffffffffffffffffffffffff1663150b7a02611e99611ab2565b8685856040518563ffffffff1660e01b8152600401611ebb949392919061398e565b6020604051808303816000875af1925050508015611ef757506040513d601f19601f82011682018060405250810190611ef491906139ef565b60015b611f7b573d8060008114611f27576040519150601f19603f3d011682016040523d82523d6000602084013e611f2c565b606091505b506000815103611f7357836040517f64a0ae92000000000000000000000000000000000000000000000000000000008152600401611f6a9190612927565b60405180910390fd5b805181602001fd5b63150b7a0260e01b7bffffffffffffffffffffffffffffffffffffffffffffffffffffffff1916817bffffffffffffffffffffffffffffffffffffffffffffffffffffffff19161461200457836040517f64a0ae92000000000000000000000000000000000000000000000000000000008152600401611ffb9190612927565b60405180910390fd5b505b50505050565b606060405180602001604052806000815250905090565b606061202e826119ed565b50600061203961200c565b905060008151116120595760405180602001604052806000815250612084565b80612063846123bc565b604051602001612074929190613915565b6040516020818303038152906040525b915050919050565b60007f01ffc9a7000000000000000000000000000000000000000000000000000000007bffffffffffffffffffffffffffffffffffffffffffffffffffffffff1916827bffffffffffffffffffffffffffffffffffffffffffffffffffffffff1916149050919050565b60006002600083815260200190815260200160002060009054906101000a900473ffffffffffffffffffffffffffffffffffffffff169050919050565b808061216c5750600073ffffffffffffffffffffffffffffffffffffffff168273ffffffffffffffffffffffffffffffffffffffff1614155b156122a057600061217c846119ed565b9050600073ffffffffffffffffffffffffffffffffffffffff168373ffffffffffffffffffffffffffffffffffffffff16141580156121e757508273ffffffffffffffffffffffffffffffffffffffff168173ffffffffffffffffffffffffffffffffffffffff1614155b80156121fa57506121f88184611877565b155b1561223c57826040517fa9fbf51f0000000000000000000000000000000000000000000000000000000081526004016122339190612927565b60405180910390fd5b811561229e57838573ffffffffffffffffffffffffffffffffffffffff168273ffffffffffffffffffffffffffffffffffffffff167f8c5be1e5ebec7d5bd14f71427d1e84f3dd0314c0f7b2291e5b200ac8c7c3b92560405160405180910390a45b505b836004600085815260200190815260200160002060006101000a81548173ffffffffffffffffffffffffffffffffffffffff021916908373ffffffffffffffffffffffffffffffffffffffff16021790555050505050565b61230383838361248a565b6123b757600073ffffffffffffffffffffffffffffffffffffffff168373ffffffffffffffffffffffffffffffffffffffff160361237857806040517f7e27328900000000000000000000000000000000000000000000000000000000815260040161236f9190612d16565b60405180910390fd5b81816040517f177e802f0000000000000000000000000000000000000000000000000000000081526004016123ae9291906136ad565b60405180910390fd5b505050565b6060600060016123cb8461254b565b01905060008167ffffffffffffffff8111156123ea576123e9612ef5565b5b6040519080825280601f01601f19166020018201604052801561241c5781602001600182028036833780820191505090505b509050600082602001820190505b60011561247f578080600190039150507f3031323334353637383961626364656600000000000000000000000000000000600a86061a8153600a858161247357612472613a1c565b5b0494506000850361242a575b819350505050919050565b60008073ffffffffffffffffffffffffffffffffffffffff168373ffffffffffffffffffffffffffffffffffffffff161415801561254257508273ffffffffffffffffffffffffffffffffffffffff168473ffffffffffffffffffffffffffffffffffffffff16148061250357506125028484611877565b5b8061254157508273ffffffffffffffffffffffffffffffffffffffff1661252983611a75565b73ffffffffffffffffffffffffffffffffffffffff16145b5b90509392505050565b600080600090507a184f03e93ff9f4daa797ed6e38ed64bf6a1f01000000000000000083106125a9577a184f03e93ff9f4daa797ed6e38ed64bf6a1f010000000000000000838161259f5761259e613a1c565b5b0492506040810190505b6d04ee2d6d415b85acef810000000083106125e6576d04ee2d6d415b85acef810000000083816125dc576125db613a1c565b5b0492506020810190505b662386f26fc10000831061261557662386f26fc10000838161260b5761260a613a1c565b5b0492506010810190505b6305f5e100831061263e576305f5e100838161263457612633613a1c565b5b0492506008810190505b612710831061266357612710838161265957612658613a1c565b5b0492506004810190505b60648310612686576064838161267c5761267b613a1c565b5b0492506002810190505b600a8310612695576001810190505b80915050919050565b604051806101200160405280600081526020016000815260200160008152602001600081526020016000815260200160008152602001600073ffffffffffffffffffffffffffffffffffffffff168152602001600015158152602001606081525090565b6000604051905090565b600080fd5b600080fd5b60007fffffffff0000000000000000000000000000000000000000000000000000000082169050919050565b61274b81612716565b811461275657600080fd5b50565b60008135905061276881612742565b92915050565b6000602082840312156127845761278361270c565b5b600061279284828501612759565b91505092915050565b60008115159050919050565b6127b08161279b565b82525050565b60006020820190506127cb60008301846127a7565b92915050565b600081519050919050565b600082825260208201905092915050565b60005b8381101561280b5780820151818401526020810190506127f0565b60008484015250505050565b6000601f19601f8301169050919050565b6000612833826127d1565b61283d81856127dc565b935061284d8185602086016127ed565b61285681612817565b840191505092915050565b6000602082019050818103600083015261287b8184612828565b905092915050565b6000819050919050565b61289681612883565b81146128a157600080fd5b50565b6000813590506128b38161288d565b92915050565b6000602082840312156128cf576128ce61270c565b5b60006128dd848285016128a4565b91505092915050565b600073ffffffffffffffffffffffffffffffffffffffff82169050919050565b6000612911826128e6565b9050919050565b61292181612906565b82525050565b600060208201905061293c6000830184612918565b92915050565b61294b81612906565b811461295657600080fd5b50565b60008135905061296881612942565b92915050565b600080604083850312156129855761298461270c565b5b600061299385828601612959565b92505060206129a4858286016128a4565b9150509250929050565b600081519050919050565b600082825260208201905092915050565b6000819050602082019050919050565b6129e381612883565b82525050565b60006129f4826128e6565b9050919050565b612a04816129e9565b82525050565b612a138161279b565b82525050565b600081519050919050565b600082825260208201905092915050565b6000819050602082019050919050565b606082016000820151612a5b60008501826129fb565b506020820151612a6e60208501826129da565b506040820151612a8160408501826129da565b50505050565b6000612a938383612a45565b60608301905092915050565b6000602082019050919050565b6000612ab782612a19565b612ac18185612a24565b9350612acc83612a35565b8060005b83811015612afd578151612ae48882612a87565b9750612aef83612a9f565b925050600181019050612ad0565b5085935050505092915050565b600061012083016000830151612b2360008601826129da565b506020830151612b3660208601826129da565b506040830151612b4960408601826129da565b506060830151612b5c60608601826129da565b506080830151612b6f60808601826129da565b5060a0830151612b8260a08601826129da565b5060c0830151612b9560c08601826129fb565b5060e0830151612ba860e0860182612a0a565b50610100830151848203610100860152612bc28282612aac565b9150508091505092915050565b6000612bdb8383612b0a565b905092915050565b6000602082019050919050565b6000612bfb826129ae565b612c0581856129b9565b935083602082028501612c17856129ca565b8060005b85811015612c535784840389528151612c348582612bcf565b9450612c3f83612be3565b925060208a01995050600181019050612c1b565b50829750879550505050505092915050565b60006020820190508181036000830152612c7f8184612bf0565b905092915050565b600080600060608486031215612ca057612c9f61270c565b5b6000612cae86828701612959565b9350506020612cbf86828701612959565b9250506040612cd0868287016128a4565b9150509250925092565b600060208284031215612cf057612cef61270c565b5b6000612cfe84828501612959565b91505092915050565b612d1081612883565b82525050565b6000602082019050612d2b6000830184612d07565b92915050565b600061012083016000830151612d4a60008601826129da565b506020830151612d5d60208601826129da565b506040830151612d7060408601826129da565b506060830151612d8360608601826129da565b506080830151612d9660808601826129da565b5060a0830151612da960a08601826129da565b5060c0830151612dbc60c08601826129fb565b5060e0830151612dcf60e0860182612a0a565b50610100830151848203610100860152612de98282612aac565b9150508091505092915050565b60006020820190508181036000830152612e108184612d31565b905092915050565b60008060008060808587031215612e3257612e3161270c565b5b6000612e40878288016128a4565b9450506020612e51878288016128a4565b9350506040612e62878288016128a4565b9250506060612e73878288016128a4565b91505092959194509250565b612e888161279b565b8114612e9357600080fd5b50565b600081359050612ea581612e7f565b92915050565b60008060408385031215612ec257612ec161270c565b5b6000612ed085828601612959565b9250506020612ee185828601612e96565b9150509250929050565b600080fd5b600080fd5b7f4e487b7100000000000000000000000000000000000000000000000000000000600052604160045260246000fd5b612f2d82612817565b810181811067ffffffffffffffff82111715612f4c57612f4b612ef5565b5b80604052505050565b6000612f5f612702565b9050612f6b8282612f24565b919050565b600067ffffffffffffffff821115612f8b57612f8a612ef5565b5b612f9482612817565b9050602081019050919050565b82818337600083830152505050565b6000612fc3612fbe84612f70565b612f55565b905082815260208101848484011115612fdf57612fde612ef0565b5b612fea848285612fa1565b509392505050565b600082601f83011261300757613006612eeb565b5b8135613017848260208601612fb0565b91505092915050565b6000806000806080858703121561303a5761303961270c565b5b600061304887828801612959565b945050602061305987828801612959565b935050604061306a878288016128a4565b925050606085013567ffffffffffffffff81111561308b5761308a612711565b5b61309787828801612ff2565b91505092959194509250565b600082825260208201905092915050565b60006130bf82612a19565b6130c981856130a3565b93506130d483612a35565b8060005b838110156131055781516130ec8882612a87565b97506130f783612a9f565b9250506001810190506130d8565b5085935050505092915050565b6000602082019050818103600083015261312c81846130b4565b905092915050565b6000806040838503121561314b5761314a61270c565b5b600061315985828601612959565b925050602061316a85828601612959565b9150509250929050565b7f4e487b7100000000000000000000000000000000000000000000000000000000600052602260045260246000fd5b600060028204905060018216806131bb57607f821691505b6020821081036131ce576131cd613174565b5b50919050565b7f4e487b7100000000000000000000000000000000000000000000000000000000600052603260045260246000fd5b7f4e487b7100000000000000000000000000000000000000000000000000000000600052601160045260246000fd5b600061323d82612883565b91507fffffffffffffffffffffffffffffffffffffffffffffffffffffffffffffffff820361326f5761326e613203565b5b600182019050919050565b600060608201905061328f6000830186612918565b61329c6020830185612d07565b6132a96040830184612918565b949350505050565b600080fd5b6000815190506132c58161288d565b92915050565b6132d4816129e9565b81146132df57600080fd5b50565b6000815190506132f1816132cb565b92915050565b60008151905061330681612e7f565b92915050565b600060a08284031215613322576133216132b1565b5b61332c60a0612f55565b9050600061333c848285016132b6565b6000830152506020613350848285016132e2565b6020830152506040613364848285016132e2565b6040830152506060613378848285016132b6565b606083015250608061338c848285016132f7565b60808301525092915050565b600060a082840312156133ae576133ad61270c565b5b60006133bc8482850161330c565b91505092915050565b7f4f6e6c7920746865206f776e65722063616e20737461727420616e206175637460008201527f696f6e0000000000000000000000000000000000000000000000000000000000602082015250565b60006134216023836127dc565b915061342c826133c5565b604082019050919050565b6000602082019050818103600083015261345081613414565b9050919050565b600061346282612883565b915061346d83612883565b925082820190508082111561348557613484613203565b5b92915050565b7f41756374696f6e20686173206e6f742073746172746564207965740000000000600082015250565b60006134c1601b836127dc565b91506134cc8261348b565b602082019050919050565b600060208201905081810360008301526134f0816134b4565b9050919050565b7f41756374696f6e2068617320656e646564000000000000000000000000000000600082015250565b600061352d6011836127dc565b9150613538826134f7565b602082019050919050565b6000602082019050818103600083015261355c81613520565b9050919050565b7f426964206d7573742062652067726561746572207468616e206f72206571756160008201527f6c20746f20746865206261736520626964000000000000000000000000000000602082015250565b60006135bf6031836127dc565b91506135ca82613563565b604082019050919050565b600060208201905081810360008301526135ee816135b2565b9050919050565b7f426964206d75737420626520686967686572207468616e2063757272656e742060008201527f686967686573742062696420706c7573206d696e696d756d2062696420696e6360208201527f72656d656e740000000000000000000000000000000000000000000000000000604082015250565b60006136776046836127dc565b9150613682826135f5565b606082019050919050565b600060208201905081810360008301526136a68161366a565b9050919050565b60006040820190506136c26000830185612918565b6136cf6020830184612d07565b9392505050565b7f41756374696f6e2068617320616c726561647920656e64656400000000000000600082015250565b600061370c6019836127dc565b9150613717826136d6565b602082019050919050565b6000602082019050818103600083015261373b816136ff565b9050919050565b7f4f6e6c79207468652073656c6c65722063616e20656e6420746865206175637460008201527f696f6e0000000000000000000000000000000000000000000000000000000000602082015250565b600061379e6023836127dc565b91506137a982613742565b604082019050919050565b600060208201905081810360008301526137cd81613791565b9050919050565b6000819050919050565b60006137f96137f46137ef846128e6565b6137d4565b6128e6565b9050919050565b600061380b826137de565b9050919050565b600061381d82613800565b9050919050565b61382d81613812565b82525050565b60006060820190506138486000830186612d07565b6138556020830185613824565b6138626040830184612d07565b949350505050565b600081905092915050565b50565b600061388560008361386a565b915061389082613875565b600082019050919050565b60006138a682613878565b9150819050919050565b60006040820190506138c56000830185613824565b6138d26020830184612d07565b9392505050565b600081905092915050565b60006138ef826127d1565b6138f981856138d9565b93506139098185602086016127ed565b80840191505092915050565b600061392182856138e4565b915061392d82846138e4565b91508190509392505050565b600081519050919050565b600082825260208201905092915050565b600061396082613939565b61396a8185613944565b935061397a8185602086016127ed565b61398381612817565b840191505092915050565b60006080820190506139a36000830187612918565b6139b06020830186612918565b6139bd6040830185612d07565b81810360608301526139cf8184613955565b905095945050505050565b6000815190506139e981612742565b92915050565b600060208284031215613a0557613a0461270c565b5b6000613a13848285016139da565b91505092915050565b7f4e487b7100000000000000000000000000000000000000000000000000000000600052601260045260246000fdfea2646970667358221220f379ebf6cb565c9f2481114b32f7d2f5b6ce1e54f1baa2b8728bbbf353b6b19864736f6c63430008180033",
  "linkReferences": {},
  "deployedLinkReferences": {}
}