{
  "_format": "hh-sol-artifact-1",
  "contractName": "AuctionContract",
  "sourceName": "contracts/NFTMarketPlace.sol",
  "abi": [
    {
      "inputs": [
        {
          "internalType": "address",
          "name": "_nftContractAddress",
          "type": "address"
        }
      ],
      "stateMutability": "nonpayable",
      "type": "constructor"
    },
    {
      "inputs": [
        {
          "internalType": "address",
          "name": "sender",
          "type": "address"
        },
        {
          "internalType": "uint256",
          "name": "tokenId",
          "type": "uint256"
        },
        {
          "internalType": "address",
          "name": "owner",
          "type": "address"
        }
      ],
      "name": "ERC721IncorrectOwner",
      "type": "error"
    },
    {
      "inputs": [
        {
          "internalType": "address",
          "name": "operator",
          "type": "address"
        },
        {
          "internalType": "uint256",
          "name": "tokenId",
          "type": "uint256"
        }
      ],
      "name": "ERC721InsufficientApproval",
      "type": "error"
    },
    {
      "inputs": [
        {
          "internalType": "address",
          "name": "approver",
          "type": "address"
        }
      ],
      "name": "ERC721InvalidApprover",
      "type": "error"
    },
    {
      "inputs": [
        {
          "internalType": "address",
          "name": "operator",
          "type": "address"
        }
      ],
      "name": "ERC721InvalidOperator",
      "type": "error"
    },
    {
      "inputs": [
        {
          "internalType": "address",
          "name": "owner",
          "type": "address"
        }
      ],
      "name": "ERC721InvalidOwner",
      "type": "error"
    },
    {
      "inputs": [
        {
          "internalType": "address",
          "name": "receiver",
          "type": "address"
        }
      ],
      "name": "ERC721InvalidReceiver",
      "type": "error"
    },
    {
      "inputs": [
        {
          "internalType": "address",
          "name": "sender",
          "type": "address"
        }
      ],
      "name": "ERC721InvalidSender",
      "type": "error"
    },
    {
      "inputs": [
        {
          "internalType": "uint256",
          "name": "tokenId",
          "type": "uint256"
        }
      ],
      "name": "ERC721NonexistentToken",
      "type": "error"
    },
    {
      "anonymous": false,
      "inputs": [
        {
          "indexed": true,
          "internalType": "address",
          "name": "owner",
          "type": "address"
        },
        {
          "indexed": true,
          "internalType": "address",
          "name": "approved",
          "type": "address"
        },
        {
          "indexed": true,
          "internalType": "uint256",
          "name": "tokenId",
          "type": "uint256"
        }
      ],
      "name": "Approval",
      "type": "event"
    },
    {
      "anonymous": false,
      "inputs": [
        {
          "indexed": true,
          "internalType": "address",
          "name": "owner",
          "type": "address"
        },
        {
          "indexed": true,
          "internalType": "address",
          "name": "operator",
          "type": "address"
        },
        {
          "indexed": false,
          "internalType": "bool",
          "name": "approved",
          "type": "bool"
        }
      ],
      "name": "ApprovalForAll",
      "type": "event"
    },
    {
      "anonymous": false,
      "inputs": [
        {
          "indexed": true,
          "internalType": "uint256",
          "name": "tokenId",
          "type": "uint256"
        },
        {
          "indexed": false,
          "internalType": "address",
          "name": "winner",
          "type": "address"
        },
        {
          "indexed": false,
          "internalType": "uint256",
          "name": "amount",
          "type": "uint256"
        }
      ],
      "name": "AuctionEnded",
      "type": "event"
    },
    {
      "anonymous": false,
      "inputs": [
        {
          "indexed": false,
          "internalType": "uint256",
          "name": "_fromTokenId",
          "type": "uint256"
        },
        {
          "indexed": false,
          "internalType": "uint256",
          "name": "_toTokenId",
          "type": "uint256"
        }
      ],
      "name": "BatchMetadataUpdate",
      "type": "event"
    },
    {
      "anonymous": false,
      "inputs": [
        {
          "indexed": true,
          "internalType": "uint256",
          "name": "tokenId",
          "type": "uint256"
        },
        {
          "indexed": false,
          "internalType": "address",
          "name": "bidder",
          "type": "address"
        },
        {
          "indexed": false,
          "internalType": "uint256",
          "name": "amount",
          "type": "uint256"
        }
      ],
      "name": "BidPlaced",
      "type": "event"
    },
    {
      "anonymous": false,
      "inputs": [
        {
          "indexed": false,
          "internalType": "uint256",
          "name": "_tokenId",
          "type": "uint256"
        }
      ],
      "name": "MetadataUpdate",
      "type": "event"
    },
    {
      "anonymous": false,
      "inputs": [
        {
          "indexed": true,
          "internalType": "address",
          "name": "from",
          "type": "address"
        },
        {
          "indexed": true,
          "internalType": "address",
          "name": "to",
          "type": "address"
        },
        {
          "indexed": true,
          "internalType": "uint256",
          "name": "tokenId",
          "type": "uint256"
        }
      ],
      "name": "Transfer",
      "type": "event"
    },
    {
      "inputs": [
        {
          "internalType": "address",
          "name": "to",
          "type": "address"
        },
        {
          "internalType": "uint256",
          "name": "tokenId",
          "type": "uint256"
        }
      ],
      "name": "approve",
      "outputs": [],
      "stateMutability": "nonpayable",
      "type": "function"
    },
    {
      "inputs": [
        {
          "internalType": "address",
          "name": "owner",
          "type": "address"
        }
      ],
      "name": "balanceOf",
      "outputs": [
        {
          "internalType": "uint256",
          "name": "",
          "type": "uint256"
        }
      ],
      "stateMutability": "view",
      "type": "function"
    },
    {
      "inputs": [
        {
          "internalType": "uint256",
          "name": "tokenId",
          "type": "uint256"
        }
      ],
      "name": "endAuction",
      "outputs": [],
      "stateMutability": "nonpayable",
      "type": "function"
    },
    {
      "inputs": [],
      "name": "getAllRunningAuctions",
      "outputs": [
        {
          "components": [
            {
              "internalType": "uint256",
              "name": "tokenId",
              "type": "uint256"
            },
            {
              "internalType": "uint256",
              "name": "startTime",
              "type": "uint256"
            },
            {
              "internalType": "uint256",
              "name": "endTime",
              "type": "uint256"
            },
            {
              "internalType": "uint256",
              "name": "highestBid",
              "type": "uint256"
            },
            {
              "internalType": "uint256",
              "name": "minBidIncrement",
              "type": "uint256"
            },
            {
              "internalType": "uint256",
              "name": "baseBid",
              "type": "uint256"
            },
            {
              "internalType": "address payable",
              "name": "highestBidder",
              "type": "address"
            },
            {
              "internalType": "bool",
              "name": "ended",
              "type": "bool"
            },
            {
              "components": [
                {
                  "internalType": "address payable",
                  "name": "bidder",
                  "type": "address"
                },
                {
                  "internalType": "uint256",
                  "name": "amount",
                  "type": "uint256"
                },
                {
                  "internalType": "uint256",
                  "name": "timestamp",
                  "type": "uint256"
                }
              ],
              "internalType": "struct AuctionContract.Bid[]",
              "name": "bids",
              "type": "tuple[]"
            }
          ],
          "internalType": "struct AuctionContract.Auction[]",
          "name": "",
          "type": "tuple[]"
        }
      ],
      "stateMutability": "view",
      "type": "function"
    },
    {
      "inputs": [
        {
          "internalType": "uint256",
          "name": "tokenId",
          "type": "uint256"
        }
      ],
      "name": "getApproved",
      "outputs": [
        {
          "internalType": "address",
          "name": "",
          "type": "address"
        }
      ],
      "stateMutability": "view",
      "type": "function"
    },
    {
      "inputs": [
        {
          "internalType": "uint256",
          "name": "auctionId",
          "type": "uint256"
        }
      ],
      "name": "getAuction",
      "outputs": [
        {
          "internalType": "uint256",
          "name": "tokenId",
          "type": "uint256"
        },
        {
          "internalType": "uint256",
          "name": "startTime",
          "type": "uint256"
        },
        {
          "internalType": "uint256",
          "name": "endTime",
          "type": "uint256"
        },
        {
          "internalType": "uint256",
          "name": "highestBid",
          "type": "uint256"
        },
        {
          "internalType": "address payable",
          "name": "highestBidder",
          "type": "address"
        },
        {
          "internalType": "uint256",
          "name": "minBidIncrement",
          "type": "uint256"
        },
        {
          "internalType": "bool",
          "name": "ended",
          "type": "bool"
        }
      ],
      "stateMutability": "view",
      "type": "function"
    },
    {
      "inputs": [
        {
          "internalType": "uint256",
          "name": "auctionId",
          "type": "uint256"
        }
      ],
      "name": "getBidHistory",
      "outputs": [
        {
          "components": [
            {
              "internalType": "address payable",
              "name": "bidder",
              "type": "address"
            },
            {
              "internalType": "uint256",
              "name": "amount",
              "type": "uint256"
            },
            {
              "internalType": "uint256",
              "name": "timestamp",
              "type": "uint256"
            }
          ],
          "internalType": "struct AuctionContract.Bid[]",
          "name": "",
          "type": "tuple[]"
        }
      ],
      "stateMutability": "view",
      "type": "function"
    },
    {
      "inputs": [
        {
          "internalType": "address",
          "name": "owner",
          "type": "address"
        },
        {
          "internalType": "address",
          "name": "operator",
          "type": "address"
        }
      ],
      "name": "isApprovedForAll",
      "outputs": [
        {
          "internalType": "bool",
          "name": "",
          "type": "bool"
        }
      ],
      "stateMutability": "view",
      "type": "function"
    },
    {
      "inputs": [],
      "name": "name",
      "outputs": [
        {
          "internalType": "string",
          "name": "",
          "type": "string"
        }
      ],
      "stateMutability": "view",
      "type": "function"
    },
    {
      "inputs": [
        {
          "internalType": "uint256",
          "name": "tokenId",
          "type": "uint256"
        }
      ],
      "name": "ownerOf",
      "outputs": [
        {
          "internalType": "address",
          "name": "",
          "type": "address"
        }
      ],
      "stateMutability": "view",
      "type": "function"
    },
    {
      "inputs": [
        {
          "internalType": "uint256",
          "name": "tokenId",
          "type": "uint256"
        }
      ],
      "name": "placeBid",
      "outputs": [],
      "stateMutability": "payable",
      "type": "function"
    },
    {
      "inputs": [
        {
          "internalType": "address",
          "name": "from",
          "type": "address"
        },
        {
          "internalType": "address",
          "name": "to",
          "type": "address"
        },
        {
          "internalType": "uint256",
          "name": "tokenId",
          "type": "uint256"
        }
      ],
      "name": "safeTransferFrom",
      "outputs": [],
      "stateMutability": "nonpayable",
      "type": "function"
    },
    {
      "inputs": [
        {
          "internalType": "address",
          "name": "from",
          "type": "address"
        },
        {
          "internalType": "address",
          "name": "to",
          "type": "address"
        },
        {
          "internalType": "uint256",
          "name": "tokenId",
          "type": "uint256"
        },
        {
          "internalType": "bytes",
          "name": "data",
          "type": "bytes"
        }
      ],
      "name": "safeTransferFrom",
      "outputs": [],
      "stateMutability": "nonpayable",
      "type": "function"
    },
    {
      "inputs": [
        {
          "internalType": "address",
          "name": "operator",
          "type": "address"
        },
        {
          "internalType": "bool",
          "name": "approved",
          "type": "bool"
        }
      ],
      "name": "setApprovalForAll",
      "outputs": [],
      "stateMutability": "nonpayable",
      "type": "function"
    },
    {
      "inputs": [
        {
          "internalType": "uint256",
          "name": "_tokenId",
          "type": "uint256"
        },
        {
          "internalType": "uint256",
          "name": "_duration",
          "type": "uint256"
        },
        {
          "internalType": "uint256",
          "name": "_minBidIncrement",
          "type": "uint256"
        },
        {
          "internalType": "uint256",
          "name": "_baseBid",
          "type": "uint256"
        }
      ],
      "name": "startAuction",
      "outputs": [],
      "stateMutability": "nonpayable",
      "type": "function"
    },
    {
      "inputs": [
        {
          "internalType": "bytes4",
          "name": "interfaceId",
          "type": "bytes4"
        }
      ],
      "name": "supportsInterface",
      "outputs": [
        {
          "internalType": "bool",
          "name": "",
          "type": "bool"
        }
      ],
      "stateMutability": "view",
      "type": "function"
    },
    {
      "inputs": [],
      "name": "symbol",
      "outputs": [
        {
          "internalType": "string",
          "name": "",
          "type": "string"
        }
      ],
      "stateMutability": "view",
      "type": "function"
    },
    {
      "inputs": [
        {
          "internalType": "uint256",
          "name": "tokenId",
          "type": "uint256"
        }
      ],
      "name": "tokenURI",
      "outputs": [
        {
          "internalType": "string",
          "name": "",
          "type": "string"
        }
      ],
      "stateMutability": "view",
      "type": "function"
    },
    {
      "inputs": [
        {
          "internalType": "address",
          "name": "from",
          "type": "address"
        },
        {
          "internalType": "address",
          "name": "to",
          "type": "address"
        },
        {
          "internalType": "uint256",
          "name": "tokenId",
          "type": "uint256"
        }
      ],
      "name": "transferFrom",
      "outputs": [],
      "stateMutability": "nonpayable",
      "type": "function"
    }
  ],
  "bytecode": "0x60806040523480156200001157600080fd5b50604051620040b9380380620040b983398181016040528101906200003791906200017b565b6040518060400160405280601081526020017f4d657461766572736520546f6b656e73000000000000000000000000000000008152506040518060400160405280600481526020017f4d455454000000000000000000000000000000000000000000000000000000008152508160009081620000b4919062000427565b508060019081620000c6919062000427565b50505080600760006101000a81548173ffffffffffffffffffffffffffffffffffffffff021916908373ffffffffffffffffffffffffffffffffffffffff160217905550506200050e565b600080fd5b600073ffffffffffffffffffffffffffffffffffffffff82169050919050565b6000620001438262000116565b9050919050565b620001558162000136565b81146200016157600080fd5b50565b60008151905062000175816200014a565b92915050565b60006020828403121562000194576200019362000111565b5b6000620001a48482850162000164565b91505092915050565b600081519050919050565b7f4e487b7100000000000000000000000000000000000000000000000000000000600052604160045260246000fd5b7f4e487b7100000000000000000000000000000000000000000000000000000000600052602260045260246000fd5b600060028204905060018216806200022f57607f821691505b602082108103620002455762000244620001e7565b5b50919050565b60008190508160005260206000209050919050565b60006020601f8301049050919050565b600082821b905092915050565b600060088302620002af7fffffffffffffffffffffffffffffffffffffffffffffffffffffffffffffffff8262000270565b620002bb868362000270565b95508019841693508086168417925050509392505050565b6000819050919050565b6000819050919050565b60006200030862000302620002fc84620002d3565b620002dd565b620002d3565b9050919050565b6000819050919050565b6200032483620002e7565b6200033c62000333826200030f565b8484546200027d565b825550505050565b600090565b6200035362000344565b6200036081848462000319565b505050565b5b8181101562000388576200037c60008262000349565b60018101905062000366565b5050565b601f821115620003d757620003a1816200024b565b620003ac8462000260565b81016020851015620003bc578190505b620003d4620003cb8562000260565b83018262000365565b50505b505050565b600082821c905092915050565b6000620003fc60001984600802620003dc565b1980831691505092915050565b6000620004178383620003e9565b9150826002028217905092915050565b6200043282620001ad565b67ffffffffffffffff8111156200044e576200044d620001b8565b5b6200045a825462000216565b620004678282856200038c565b600060209050601f8311600181146200049f57600084156200048a578287015190505b62000496858262000409565b86555062000506565b601f198416620004af866200024b565b60005b82811015620004d957848901518255600182019150602085019450602081019050620004b2565b86831015620004f95784890151620004f5601f891682620003e9565b8355505b6001600288020188555050505b505050505050565b613b9b806200051e6000396000f3fe6080604052600436106101145760003560e01c806378bd7935116100a0578063b88d4fde11610064578063b88d4fde146103ba578063b9a2de3a146103e3578063c0738dce1461040c578063c87b56dd14610449578063e985e9c51461048657610114565b806378bd7935146102de5780638d2c44881461032157806395d89b411461034a5780639979ef4514610375578063a22cb4651461039157610114565b80630d9a1e5e116100e75780630d9a1e5e146101e757806323b872dd1461021257806342842e0e1461023b5780636352211e1461026457806370a08231146102a157610114565b806301ffc9a71461011957806306fdde0314610156578063081812fc14610181578063095ea7b3146101be575b600080fd5b34801561012557600080fd5b50610140600480360381019061013b9190612928565b6104c3565b60405161014d9190612970565b60405180910390f35b34801561016257600080fd5b5061016b610524565b6040516101789190612a1b565b60405180910390f35b34801561018d57600080fd5b506101a860048036038101906101a39190612a73565b6105b6565b6040516101b59190612ae1565b60405180910390f35b3480156101ca57600080fd5b506101e560048036038101906101e09190612b28565b6105d2565b005b3480156101f357600080fd5b506101fc6105e8565b6040516102099190612e1f565b60405180910390f35b34801561021e57600080fd5b5061023960048036038101906102349190612e41565b6108dd565b005b34801561024757600080fd5b50610262600480360381019061025d9190612e41565b6109df565b005b34801561027057600080fd5b5061028b60048036038101906102869190612a73565b6109ff565b6040516102989190612ae1565b60405180910390f35b3480156102ad57600080fd5b506102c860048036038101906102c39190612e94565b610a11565b6040516102d59190612ed0565b60405180910390f35b3480156102ea57600080fd5b5061030560048036038101906103009190612a73565b610acb565b6040516103189796959493929190612efa565b60405180910390f35b34801561032d57600080fd5b5061034860048036038101906103439190612f69565b610cab565b005b34801561035657600080fd5b5061035f610e93565b60405161036c9190612a1b565b60405180910390f35b61038f600480360381019061038a9190612a73565b610f25565b005b34801561039d57600080fd5b506103b860048036038101906103b39190612ffc565b6112b4565b005b3480156103c657600080fd5b506103e160048036038101906103dc9190613171565b6112ca565b005b3480156103ef57600080fd5b5061040a60048036038101906104059190612a73565b6112e7565b005b34801561041857600080fd5b50610433600480360381019061042e9190612a73565b6116d2565b6040516104409190613263565b60405180910390f35b34801561045557600080fd5b50610470600480360381019061046b9190612a73565b6117b1565b60405161047d9190612a1b565b60405180910390f35b34801561049257600080fd5b506104ad60048036038101906104a89190613285565b6118c4565b6040516104ba9190612970565b60405180910390f35b6000634906490660e01b7bffffffffffffffffffffffffffffffffffffffffffffffffffffffff1916827bffffffffffffffffffffffffffffffffffffffffffffffffffffffff1916148061051d575061051c82611958565b5b9050919050565b606060008054610533906132f4565b80601f016020809104026020016040519081016040528092919081815260200182805461055f906132f4565b80156105ac5780601f10610581576101008083540402835291602001916105ac565b820191906000526020600020905b81548152906001019060200180831161058f57829003601f168201915b5050505050905090565b60006105c182611a3a565b506105cb82611ac2565b9050919050565b6105e482826105df611aff565b611b07565b5050565b6060600060085467ffffffffffffffff81111561060857610607613046565b5b60405190808252806020026020018201604052801561064157816020015b61062e612858565b8152602001906001900390816106265790505b509050600080600190505b60085481116108295760096000828152602001908152602001600020604051806101200160405290816000820154815260200160018201548152602001600282015481526020016003820154815260200160048201548152602001600582015481526020016006820160009054906101000a900473ffffffffffffffffffffffffffffffffffffffff1673ffffffffffffffffffffffffffffffffffffffff1673ffffffffffffffffffffffffffffffffffffffff1681526020016006820160149054906101000a900460ff1615151515815260200160078201805480602002602001604051908101604052809291908181526020016000905b828210156107e257838290600052602060002090600302016040518060600160405290816000820160009054906101000a900473ffffffffffffffffffffffffffffffffffffffff1673ffffffffffffffffffffffffffffffffffffffff1673ffffffffffffffffffffffffffffffffffffffff1681526020016001820154815260200160028201548152505081526020019060010190610746565b50505050815250508383815181106107fd576107fc613325565b5b6020026020010181905250818061081390613383565b925050808061082190613383565b91505061064c565b5060008167ffffffffffffffff81111561084657610845613046565b5b60405190808252806020026020018201604052801561087f57816020015b61086c612858565b8152602001906001900390816108645790505b50905060005b828110156108d3578381815181106108a05761089f613325565b5b60200260200101518282815181106108bb576108ba613325565b5b60200260200101819052508080600101915050610885565b5080935050505090565b600073ffffffffffffffffffffffffffffffffffffffff168273ffffffffffffffffffffffffffffffffffffffff160361094f5760006040517f64a0ae920000000000000000000000000000000000000000000000000000000081526004016109469190612ae1565b60405180910390fd5b6000610963838361095e611aff565b611b19565b90508373ffffffffffffffffffffffffffffffffffffffff168173ffffffffffffffffffffffffffffffffffffffff16146109d9578382826040517f64283d7b0000000000000000000000000000000000000000000000000000000081526004016109d0939291906133cb565b60405180910390fd5b50505050565b6109fa838383604051806020016040528060008152506112ca565b505050565b6000610a0a82611a3a565b9050919050565b60008073ffffffffffffffffffffffffffffffffffffffff168273ffffffffffffffffffffffffffffffffffffffff1603610a845760006040517f89c62b64000000000000000000000000000000000000000000000000000000008152600401610a7b9190612ae1565b60405180910390fd5b600360008373ffffffffffffffffffffffffffffffffffffffff1673ffffffffffffffffffffffffffffffffffffffff168152602001908152602001600020549050919050565b600080600080600080600080600960008a8152602001908152602001600020604051806101200160405290816000820154815260200160018201548152602001600282015481526020016003820154815260200160048201548152602001600582015481526020016006820160009054906101000a900473ffffffffffffffffffffffffffffffffffffffff1673ffffffffffffffffffffffffffffffffffffffff1673ffffffffffffffffffffffffffffffffffffffff1681526020016006820160149054906101000a900460ff1615151515815260200160078201805480602002602001604051908101604052809291908181526020016000905b82821015610c6457838290600052602060002090600302016040518060600160405290816000820160009054906101000a900473ffffffffffffffffffffffffffffffffffffffff1673ffffffffffffffffffffffffffffffffffffffff1673ffffffffffffffffffffffffffffffffffffffff1681526020016001820154815260200160028201548152505081526020019060010190610bc8565b5050505081525050905080600001518160200151826040015183606001518460c0015185608001518660e00151975097509750975097509750975050919395979092949650565b3373ffffffffffffffffffffffffffffffffffffffff16600760009054906101000a900473ffffffffffffffffffffffffffffffffffffffff1673ffffffffffffffffffffffffffffffffffffffff1663c7be7a49866040518263ffffffff1660e01b8152600401610d1d9190612ed0565b60a060405180830381865afa158015610d3a573d6000803e3d6000fd5b505050506040513d601f19601f82011682018060405250810190610d5e91906134e9565b6020015173ffffffffffffffffffffffffffffffffffffffff1614610db8576040517f08c379a0000000000000000000000000000000000000000000000000000000008152600401610daf90613588565b60405180910390fd5b600042905060008482610dcb91906135a8565b9050600060096000888152602001908152602001600020905086816000018190555082816001018190555081816002018190555084816004018190555083816005018190555060008160060160146101000a81548160ff02191690831515021790555060008160060160006101000a81548173ffffffffffffffffffffffffffffffffffffffff021916908373ffffffffffffffffffffffffffffffffffffffff16021790555060086000815480929190610e8590613383565b919050555050505050505050565b606060018054610ea2906132f4565b80601f0160208091040260200160405190810160405280929190818152602001828054610ece906132f4565b8015610f1b5780601f10610ef057610100808354040283529160200191610f1b565b820191906000526020600020905b815481529060010190602001808311610efe57829003601f168201915b5050505050905090565b600060096000838152602001908152602001600020905042816001015410610f82576040517f08c379a0000000000000000000000000000000000000000000000000000000008152600401610f7990613628565b60405180910390fd5b8060060160149054906101000a900460ff1615610fd4576040517f08c379a0000000000000000000000000000000000000000000000000000000008152600401610fcb90613694565b60405180910390fd5b600960008381526020019081526020016000206005015434101561102d576040517f08c379a000000000000000000000000000000000000000000000000000000000815260040161102490613726565b60405180910390fd5b6009600083815260200190815260200160002060040154600960008481526020019081526020016000206003015461106591906135a8565b3410156110a7576040517f08c379a000000000000000000000000000000000000000000000000000000000815260040161109e906137de565b60405180910390fd5b600073ffffffffffffffffffffffffffffffffffffffff168160060160009054906101000a900473ffffffffffffffffffffffffffffffffffffffff1673ffffffffffffffffffffffffffffffffffffffff161461116f578060060160009054906101000a900473ffffffffffffffffffffffffffffffffffffffff1673ffffffffffffffffffffffffffffffffffffffff166108fc82600301549081150290604051600060405180830381858888f1935050505015801561116d573d6000803e3d6000fd5b505b348160030181905550338160060160006101000a81548173ffffffffffffffffffffffffffffffffffffffff021916908373ffffffffffffffffffffffffffffffffffffffff1602179055508060070160405180606001604052803373ffffffffffffffffffffffffffffffffffffffff16815260200134815260200142815250908060018154018082558091505060019003906000526020600020906003020160009091909190915060008201518160000160006101000a81548173ffffffffffffffffffffffffffffffffffffffff021916908373ffffffffffffffffffffffffffffffffffffffff16021790555060208201518160010155604082015181600201555050817f0e54eff26401bf69b81b26f60bd85ef47f5d85275c1d268d84f68d6897431c4733346040516112a89291906137fe565b60405180910390a25050565b6112c66112bf611aff565b8383611d33565b5050565b6112d58484846108dd565b6112e184848484611ea2565b50505050565b6009600082815260200190815260200160002060060160149054906101000a900460ff161561134b576040517f08c379a000000000000000000000000000000000000000000000000000000000815260040161134290613873565b60405180910390fd5b600760009054906101000a900473ffffffffffffffffffffffffffffffffffffffff1673ffffffffffffffffffffffffffffffffffffffff1663c7be7a49826040518263ffffffff1660e01b81526004016113a69190612ed0565b60a060405180830381865afa1580156113c3573d6000803e3d6000fd5b505050506040513d601f19601f820116820180604052508101906113e791906134e9565b6020015173ffffffffffffffffffffffffffffffffffffffff163373ffffffffffffffffffffffffffffffffffffffff1614611458576040517f08c379a000000000000000000000000000000000000000000000000000000000815260040161144f90613905565b60405180910390fd5b600060096000838152602001908152602001600020905060018160060160146101000a81548160ff02191690831515021790555061155a600760009054906101000a900473ffffffffffffffffffffffffffffffffffffffff1673ffffffffffffffffffffffffffffffffffffffff1663c7be7a49846040518263ffffffff1660e01b81526004016114ea9190612ed0565b60a060405180830381865afa158015611507573d6000803e3d6000fd5b505050506040513d601f19601f8201168201806040525081019061152b91906134e9565b604001518260060160009054906101000a900473ffffffffffffffffffffffffffffffffffffffff1684612059565b6000816003015490506000600760009054906101000a900473ffffffffffffffffffffffffffffffffffffffff1673ffffffffffffffffffffffffffffffffffffffff1663c7be7a49856040518263ffffffff1660e01b81526004016115c09190612ed0565b60a060405180830381865afa1580156115dd573d6000803e3d6000fd5b505050506040513d601f19601f8201168201806040525081019061160191906134e9565b6040015173ffffffffffffffffffffffffffffffffffffffff168260405161162890613956565b60006040518083038185875af1925050503d8060008114611665576040519150601f19603f3d011682016040523d82523d6000602084013e61166a565b606091505b50509050837fd2aa34a4fdbbc6dff6a3e56f46e0f3ae2a31d7785ff3487aa5c95c642acea5018460060160009054906101000a900473ffffffffffffffffffffffffffffffffffffffff16846040516116c49291906139ca565b60405180910390a250505050565b606060096000838152602001908152602001600020600701805480602002602001604051908101604052809291908181526020016000905b828210156117a657838290600052602060002090600302016040518060600160405290816000820160009054906101000a900473ffffffffffffffffffffffffffffffffffffffff1673ffffffffffffffffffffffffffffffffffffffff1673ffffffffffffffffffffffffffffffffffffffff168152602001600182015481526020016002820154815250508152602001906001019061170a565b505050509050919050565b60606117bc82611a3a565b5060006006600084815260200190815260200160002080546117dd906132f4565b80601f0160208091040260200160405190810160405280929190818152602001828054611809906132f4565b80156118565780601f1061182b57610100808354040283529160200191611856565b820191906000526020600020905b81548152906001019060200180831161183957829003601f168201915b5050505050905060006118676121c6565b9050600081510361187c5781925050506118bf565b6000825111156118b1578082604051602001611899929190613a2f565b604051602081830303815290604052925050506118bf565b6118ba846121dd565b925050505b919050565b6000600560008473ffffffffffffffffffffffffffffffffffffffff1673ffffffffffffffffffffffffffffffffffffffff16815260200190815260200160002060008373ffffffffffffffffffffffffffffffffffffffff1673ffffffffffffffffffffffffffffffffffffffff16815260200190815260200160002060009054906101000a900460ff16905092915050565b60007f80ac58cd000000000000000000000000000000000000000000000000000000007bffffffffffffffffffffffffffffffffffffffffffffffffffffffff1916827bffffffffffffffffffffffffffffffffffffffffffffffffffffffff19161480611a2357507f5b5e139f000000000000000000000000000000000000000000000000000000007bffffffffffffffffffffffffffffffffffffffffffffffffffffffff1916827bffffffffffffffffffffffffffffffffffffffffffffffffffffffff1916145b80611a335750611a3282612246565b5b9050919050565b600080611a46836122b0565b9050600073ffffffffffffffffffffffffffffffffffffffff168173ffffffffffffffffffffffffffffffffffffffff1603611ab957826040517f7e273289000000000000000000000000000000000000000000000000000000008152600401611ab09190612ed0565b60405180910390fd5b80915050919050565b60006004600083815260200190815260200160002060009054906101000a900473ffffffffffffffffffffffffffffffffffffffff169050919050565b600033905090565b611b1483838360016122ed565b505050565b600080611b25846122b0565b9050600073ffffffffffffffffffffffffffffffffffffffff168373ffffffffffffffffffffffffffffffffffffffff1614611b6757611b668184866124b2565b5b600073ffffffffffffffffffffffffffffffffffffffff168173ffffffffffffffffffffffffffffffffffffffff1614611bf857611ba96000856000806122ed565b6001600360008373ffffffffffffffffffffffffffffffffffffffff1673ffffffffffffffffffffffffffffffffffffffff168152602001908152602001600020600082825403925050819055505b600073ffffffffffffffffffffffffffffffffffffffff168573ffffffffffffffffffffffffffffffffffffffff1614611c7b576001600360008773ffffffffffffffffffffffffffffffffffffffff1673ffffffffffffffffffffffffffffffffffffffff168152602001908152602001600020600082825401925050819055505b846002600086815260200190815260200160002060006101000a81548173ffffffffffffffffffffffffffffffffffffffff021916908373ffffffffffffffffffffffffffffffffffffffff160217905550838573ffffffffffffffffffffffffffffffffffffffff168273ffffffffffffffffffffffffffffffffffffffff167fddf252ad1be2c89b69c2b068fc378daa952ba7f163c4a11628f55a4df523b3ef60405160405180910390a4809150509392505050565b600073ffffffffffffffffffffffffffffffffffffffff168273ffffffffffffffffffffffffffffffffffffffff1603611da457816040517f5b08ba18000000000000000000000000000000000000000000000000000000008152600401611d9b9190612ae1565b60405180910390fd5b80600560008573ffffffffffffffffffffffffffffffffffffffff1673ffffffffffffffffffffffffffffffffffffffff16815260200190815260200160002060008473ffffffffffffffffffffffffffffffffffffffff1673ffffffffffffffffffffffffffffffffffffffff16815260200190815260200160002060006101000a81548160ff0219169083151502179055508173ffffffffffffffffffffffffffffffffffffffff168373ffffffffffffffffffffffffffffffffffffffff167f17307eab39ab6107e8899845ad3d59bd9653f200f220920489ca2b5937696c3183604051611e959190612970565b60405180910390a3505050565b60008373ffffffffffffffffffffffffffffffffffffffff163b1115612053578273ffffffffffffffffffffffffffffffffffffffff1663150b7a02611ee6611aff565b8685856040518563ffffffff1660e01b8152600401611f089493929190613aa8565b6020604051808303816000875af1925050508015611f4457506040513d601f19601f82011682018060405250810190611f419190613b09565b60015b611fc8573d8060008114611f74576040519150601f19603f3d011682016040523d82523d6000602084013e611f79565b606091505b506000815103611fc057836040517f64a0ae92000000000000000000000000000000000000000000000000000000008152600401611fb79190612ae1565b60405180910390fd5b805181602001fd5b63150b7a0260e01b7bffffffffffffffffffffffffffffffffffffffffffffffffffffffff1916817bffffffffffffffffffffffffffffffffffffffffffffffffffffffff19161461205157836040517f64a0ae920000000000000000000000000000000000000000000000000000000081526004016120489190612ae1565b60405180910390fd5b505b50505050565b600073ffffffffffffffffffffffffffffffffffffffff168273ffffffffffffffffffffffffffffffffffffffff16036120cb5760006040517f64a0ae920000000000000000000000000000000000000000000000000000000081526004016120c29190612ae1565b60405180910390fd5b60006120d983836000611b19565b9050600073ffffffffffffffffffffffffffffffffffffffff168173ffffffffffffffffffffffffffffffffffffffff160361214c57816040517f7e2732890000000000000000000000000000000000000000000000000000000081526004016121439190612ed0565b60405180910390fd5b8373ffffffffffffffffffffffffffffffffffffffff168173ffffffffffffffffffffffffffffffffffffffff16146121c0578382826040517f64283d7b0000000000000000000000000000000000000000000000000000000081526004016121b7939291906133cb565b60405180910390fd5b50505050565b606060405180602001604052806000815250905090565b60606121e882611a3a565b5060006121f36121c6565b90506000815111612213576040518060200160405280600081525061223e565b8061221d84612576565b60405160200161222e929190613a2f565b6040516020818303038152906040525b915050919050565b60007f01ffc9a7000000000000000000000000000000000000000000000000000000007bffffffffffffffffffffffffffffffffffffffffffffffffffffffff1916827bffffffffffffffffffffffffffffffffffffffffffffffffffffffff1916149050919050565b60006002600083815260200190815260200160002060009054906101000a900473ffffffffffffffffffffffffffffffffffffffff169050919050565b80806123265750600073ffffffffffffffffffffffffffffffffffffffff168273ffffffffffffffffffffffffffffffffffffffff1614155b1561245a57600061233684611a3a565b9050600073ffffffffffffffffffffffffffffffffffffffff168373ffffffffffffffffffffffffffffffffffffffff16141580156123a157508273ffffffffffffffffffffffffffffffffffffffff168173ffffffffffffffffffffffffffffffffffffffff1614155b80156123b457506123b281846118c4565b155b156123f657826040517fa9fbf51f0000000000000000000000000000000000000000000000000000000081526004016123ed9190612ae1565b60405180910390fd5b811561245857838573ffffffffffffffffffffffffffffffffffffffff168273ffffffffffffffffffffffffffffffffffffffff167f8c5be1e5ebec7d5bd14f71427d1e84f3dd0314c0f7b2291e5b200ac8c7c3b92560405160405180910390a45b505b836004600085815260200190815260200160002060006101000a81548173ffffffffffffffffffffffffffffffffffffffff021916908373ffffffffffffffffffffffffffffffffffffffff16021790555050505050565b6124bd838383612644565b61257157600073ffffffffffffffffffffffffffffffffffffffff168373ffffffffffffffffffffffffffffffffffffffff160361253257806040517f7e2732890000000000000000000000000000000000000000000000000000000081526004016125299190612ed0565b60405180910390fd5b81816040517f177e802f0000000000000000000000000000000000000000000000000000000081526004016125689291906137fe565b60405180910390fd5b505050565b60606000600161258584612705565b01905060008167ffffffffffffffff8111156125a4576125a3613046565b5b6040519080825280601f01601f1916602001820160405280156125d65781602001600182028036833780820191505090505b509050600082602001820190505b600115612639578080600190039150507f3031323334353637383961626364656600000000000000000000000000000000600a86061a8153600a858161262d5761262c613b36565b5b049450600085036125e4575b819350505050919050565b60008073ffffffffffffffffffffffffffffffffffffffff168373ffffffffffffffffffffffffffffffffffffffff16141580156126fc57508273ffffffffffffffffffffffffffffffffffffffff168473ffffffffffffffffffffffffffffffffffffffff1614806126bd57506126bc84846118c4565b5b806126fb57508273ffffffffffffffffffffffffffffffffffffffff166126e383611ac2565b73ffffffffffffffffffffffffffffffffffffffff16145b5b90509392505050565b600080600090507a184f03e93ff9f4daa797ed6e38ed64bf6a1f0100000000000000008310612763577a184f03e93ff9f4daa797ed6e38ed64bf6a1f010000000000000000838161275957612758613b36565b5b0492506040810190505b6d04ee2d6d415b85acef810000000083106127a0576d04ee2d6d415b85acef8100000000838161279657612795613b36565b5b0492506020810190505b662386f26fc1000083106127cf57662386f26fc1000083816127c5576127c4613b36565b5b0492506010810190505b6305f5e10083106127f8576305f5e10083816127ee576127ed613b36565b5b0492506008810190505b612710831061281d57612710838161281357612812613b36565b5b0492506004810190505b60648310612840576064838161283657612835613b36565b5b0492506002810190505b600a831061284f576001810190505b80915050919050565b604051806101200160405280600081526020016000815260200160008152602001600081526020016000815260200160008152602001600073ffffffffffffffffffffffffffffffffffffffff168152602001600015158152602001606081525090565b6000604051905090565b600080fd5b600080fd5b60007fffffffff0000000000000000000000000000000000000000000000000000000082169050919050565b612905816128d0565b811461291057600080fd5b50565b600081359050612922816128fc565b92915050565b60006020828403121561293e5761293d6128c6565b5b600061294c84828501612913565b91505092915050565b60008115159050919050565b61296a81612955565b82525050565b60006020820190506129856000830184612961565b92915050565b600081519050919050565b600082825260208201905092915050565b60005b838110156129c55780820151818401526020810190506129aa565b60008484015250505050565b6000601f19601f8301169050919050565b60006129ed8261298b565b6129f78185612996565b9350612a078185602086016129a7565b612a10816129d1565b840191505092915050565b60006020820190508181036000830152612a3581846129e2565b905092915050565b6000819050919050565b612a5081612a3d565b8114612a5b57600080fd5b50565b600081359050612a6d81612a47565b92915050565b600060208284031215612a8957612a886128c6565b5b6000612a9784828501612a5e565b91505092915050565b600073ffffffffffffffffffffffffffffffffffffffff82169050919050565b6000612acb82612aa0565b9050919050565b612adb81612ac0565b82525050565b6000602082019050612af66000830184612ad2565b92915050565b612b0581612ac0565b8114612b1057600080fd5b50565b600081359050612b2281612afc565b92915050565b60008060408385031215612b3f57612b3e6128c6565b5b6000612b4d85828601612b13565b9250506020612b5e85828601612a5e565b9150509250929050565b600081519050919050565b600082825260208201905092915050565b6000819050602082019050919050565b612b9d81612a3d565b82525050565b6000612bae82612aa0565b9050919050565b612bbe81612ba3565b82525050565b612bcd81612955565b82525050565b600081519050919050565b600082825260208201905092915050565b6000819050602082019050919050565b606082016000820151612c156000850182612bb5565b506020820151612c286020850182612b94565b506040820151612c3b6040850182612b94565b50505050565b6000612c4d8383612bff565b60608301905092915050565b6000602082019050919050565b6000612c7182612bd3565b612c7b8185612bde565b9350612c8683612bef565b8060005b83811015612cb7578151612c9e8882612c41565b9750612ca983612c59565b925050600181019050612c8a565b5085935050505092915050565b600061012083016000830151612cdd6000860182612b94565b506020830151612cf06020860182612b94565b506040830151612d036040860182612b94565b506060830151612d166060860182612b94565b506080830151612d296080860182612b94565b5060a0830151612d3c60a0860182612b94565b5060c0830151612d4f60c0860182612bb5565b5060e0830151612d6260e0860182612bc4565b50610100830151848203610100860152612d7c8282612c66565b9150508091505092915050565b6000612d958383612cc4565b905092915050565b6000602082019050919050565b6000612db582612b68565b612dbf8185612b73565b935083602082028501612dd185612b84565b8060005b85811015612e0d5784840389528151612dee8582612d89565b9450612df983612d9d565b925060208a01995050600181019050612dd5565b50829750879550505050505092915050565b60006020820190508181036000830152612e398184612daa565b905092915050565b600080600060608486031215612e5a57612e596128c6565b5b6000612e6886828701612b13565b9350506020612e7986828701612b13565b9250506040612e8a86828701612a5e565b9150509250925092565b600060208284031215612eaa57612ea96128c6565b5b6000612eb884828501612b13565b91505092915050565b612eca81612a3d565b82525050565b6000602082019050612ee56000830184612ec1565b92915050565b612ef481612ba3565b82525050565b600060e082019050612f0f600083018a612ec1565b612f1c6020830189612ec1565b612f296040830188612ec1565b612f366060830187612ec1565b612f436080830186612eeb565b612f5060a0830185612ec1565b612f5d60c0830184612961565b98975050505050505050565b60008060008060808587031215612f8357612f826128c6565b5b6000612f9187828801612a5e565b9450506020612fa287828801612a5e565b9350506040612fb387828801612a5e565b9250506060612fc487828801612a5e565b91505092959194509250565b612fd981612955565b8114612fe457600080fd5b50565b600081359050612ff681612fd0565b92915050565b60008060408385031215613013576130126128c6565b5b600061302185828601612b13565b925050602061303285828601612fe7565b9150509250929050565b600080fd5b600080fd5b7f4e487b7100000000000000000000000000000000000000000000000000000000600052604160045260246000fd5b61307e826129d1565b810181811067ffffffffffffffff8211171561309d5761309c613046565b5b80604052505050565b60006130b06128bc565b90506130bc8282613075565b919050565b600067ffffffffffffffff8211156130dc576130db613046565b5b6130e5826129d1565b9050602081019050919050565b82818337600083830152505050565b600061311461310f846130c1565b6130a6565b9050828152602081018484840111156131305761312f613041565b5b61313b8482856130f2565b509392505050565b600082601f8301126131585761315761303c565b5b8135613168848260208601613101565b91505092915050565b6000806000806080858703121561318b5761318a6128c6565b5b600061319987828801612b13565b94505060206131aa87828801612b13565b93505060406131bb87828801612a5e565b925050606085013567ffffffffffffffff8111156131dc576131db6128cb565b5b6131e887828801613143565b91505092959194509250565b600082825260208201905092915050565b600061321082612bd3565b61321a81856131f4565b935061322583612bef565b8060005b8381101561325657815161323d8882612c41565b975061324883612c59565b925050600181019050613229565b5085935050505092915050565b6000602082019050818103600083015261327d8184613205565b905092915050565b6000806040838503121561329c5761329b6128c6565b5b60006132aa85828601612b13565b92505060206132bb85828601612b13565b9150509250929050565b7f4e487b7100000000000000000000000000000000000000000000000000000000600052602260045260246000fd5b6000600282049050600182168061330c57607f821691505b60208210810361331f5761331e6132c5565b5b50919050565b7f4e487b7100000000000000000000000000000000000000000000000000000000600052603260045260246000fd5b7f4e487b7100000000000000000000000000000000000000000000000000000000600052601160045260246000fd5b600061338e82612a3d565b91507fffffffffffffffffffffffffffffffffffffffffffffffffffffffffffffffff82036133c0576133bf613354565b5b600182019050919050565b60006060820190506133e06000830186612ad2565b6133ed6020830185612ec1565b6133fa6040830184612ad2565b949350505050565b600080fd5b60008151905061341681612a47565b92915050565b61342581612ba3565b811461343057600080fd5b50565b6000815190506134428161341c565b92915050565b60008151905061345781612fd0565b92915050565b600060a0828403121561347357613472613402565b5b61347d60a06130a6565b9050600061348d84828501613407565b60008301525060206134a184828501613433565b60208301525060406134b584828501613433565b60408301525060606134c984828501613407565b60608301525060806134dd84828501613448565b60808301525092915050565b600060a082840312156134ff576134fe6128c6565b5b600061350d8482850161345d565b91505092915050565b7f4f6e6c7920746865206f776e65722063616e20737461727420616e206175637460008201527f696f6e0000000000000000000000000000000000000000000000000000000000602082015250565b6000613572602383612996565b915061357d82613516565b604082019050919050565b600060208201905081810360008301526135a181613565565b9050919050565b60006135b382612a3d565b91506135be83612a3d565b92508282019050808211156135d6576135d5613354565b5b92915050565b7f41756374696f6e20686173206e6f742073746172746564207965740000000000600082015250565b6000613612601b83612996565b915061361d826135dc565b602082019050919050565b6000602082019050818103600083015261364181613605565b9050919050565b7f41756374696f6e2068617320656e646564000000000000000000000000000000600082015250565b600061367e601183612996565b915061368982613648565b602082019050919050565b600060208201905081810360008301526136ad81613671565b9050919050565b7f426964206d7573742062652067726561746572207468616e206f72206571756160008201527f6c20746f20746865206261736520626964000000000000000000000000000000602082015250565b6000613710603183612996565b915061371b826136b4565b604082019050919050565b6000602082019050818103600083015261373f81613703565b9050919050565b7f426964206d75737420626520686967686572207468616e2063757272656e742060008201527f686967686573742062696420706c7573206d696e696d756d2062696420696e6360208201527f72656d656e740000000000000000000000000000000000000000000000000000604082015250565b60006137c8604683612996565b91506137d382613746565b606082019050919050565b600060208201905081810360008301526137f7816137bb565b9050919050565b60006040820190506138136000830185612ad2565b6138206020830184612ec1565b9392505050565b7f41756374696f6e2068617320616c726561647920656e64656400000000000000600082015250565b600061385d601983612996565b915061386882613827565b602082019050919050565b6000602082019050818103600083015261388c81613850565b9050919050565b7f4f6e6c79207468652073656c6c65722063616e20656e6420746865206175637460008201527f696f6e0000000000000000000000000000000000000000000000000000000000602082015250565b60006138ef602383612996565b91506138fa82613893565b604082019050919050565b6000602082019050818103600083015261391e816138e2565b9050919050565b600081905092915050565b50565b6000613940600083613925565b915061394b82613930565b600082019050919050565b600061396182613933565b9150819050919050565b6000819050919050565b600061399061398b61398684612aa0565b61396b565b612aa0565b9050919050565b60006139a282613975565b9050919050565b60006139b482613997565b9050919050565b6139c4816139a9565b82525050565b60006040820190506139df60008301856139bb565b6139ec6020830184612ec1565b9392505050565b600081905092915050565b6000613a098261298b565b613a1381856139f3565b9350613a238185602086016129a7565b80840191505092915050565b6000613a3b82856139fe565b9150613a4782846139fe565b91508190509392505050565b600081519050919050565b600082825260208201905092915050565b6000613a7a82613a53565b613a848185613a5e565b9350613a948185602086016129a7565b613a9d816129d1565b840191505092915050565b6000608082019050613abd6000830187612ad2565b613aca6020830186612ad2565b613ad76040830185612ec1565b8181036060830152613ae98184613a6f565b905095945050505050565b600081519050613b03816128fc565b92915050565b600060208284031215613b1f57613b1e6128c6565b5b6000613b2d84828501613af4565b91505092915050565b7f4e487b7100000000000000000000000000000000000000000000000000000000600052601260045260246000fdfea26469706673582212209238505323849da9a3eee9792042e9b5799b1334190b87a080cb6856004227f564736f6c63430008180033",
  "linkReferences": {},
  "deployedLinkReferences": {}
}