{
  "_format": "hh-sol-artifact-1",
  "contractName": "NFTMarketPlace",
  "sourceName": "contracts/NFTMarketPlace.sol",
  "abi": [
    {
      "inputs": [],
      "stateMutability": "nonpayable",
      "type": "constructor"
    },
    {
      "inputs": [
        {
          "internalType": "address",
          "name": "sender",
          "type": "address"
        },
        {
          "internalType": "uint256",
          "name": "tokenId",
          "type": "uint256"
        },
        {
          "internalType": "address",
          "name": "owner",
          "type": "address"
        }
      ],
      "name": "ERC721IncorrectOwner",
      "type": "error"
    },
    {
      "inputs": [
        {
          "internalType": "address",
          "name": "operator",
          "type": "address"
        },
        {
          "internalType": "uint256",
          "name": "tokenId",
          "type": "uint256"
        }
      ],
      "name": "ERC721InsufficientApproval",
      "type": "error"
    },
    {
      "inputs": [
        {
          "internalType": "address",
          "name": "approver",
          "type": "address"
        }
      ],
      "name": "ERC721InvalidApprover",
      "type": "error"
    },
    {
      "inputs": [
        {
          "internalType": "address",
          "name": "operator",
          "type": "address"
        }
      ],
      "name": "ERC721InvalidOperator",
      "type": "error"
    },
    {
      "inputs": [
        {
          "internalType": "address",
          "name": "owner",
          "type": "address"
        }
      ],
      "name": "ERC721InvalidOwner",
      "type": "error"
    },
    {
      "inputs": [
        {
          "internalType": "address",
          "name": "receiver",
          "type": "address"
        }
      ],
      "name": "ERC721InvalidReceiver",
      "type": "error"
    },
    {
      "inputs": [
        {
          "internalType": "address",
          "name": "sender",
          "type": "address"
        }
      ],
      "name": "ERC721InvalidSender",
      "type": "error"
    },
    {
      "inputs": [
        {
          "internalType": "uint256",
          "name": "tokenId",
          "type": "uint256"
        }
      ],
      "name": "ERC721NonexistentToken",
      "type": "error"
    },
    {
      "anonymous": false,
      "inputs": [
        {
          "indexed": true,
          "internalType": "address",
          "name": "owner",
          "type": "address"
        },
        {
          "indexed": true,
          "internalType": "address",
          "name": "approved",
          "type": "address"
        },
        {
          "indexed": true,
          "internalType": "uint256",
          "name": "tokenId",
          "type": "uint256"
        }
      ],
      "name": "Approval",
      "type": "event"
    },
    {
      "anonymous": false,
      "inputs": [
        {
          "indexed": true,
          "internalType": "address",
          "name": "owner",
          "type": "address"
        },
        {
          "indexed": true,
          "internalType": "address",
          "name": "operator",
          "type": "address"
        },
        {
          "indexed": false,
          "internalType": "bool",
          "name": "approved",
          "type": "bool"
        }
      ],
      "name": "ApprovalForAll",
      "type": "event"
    },
    {
      "anonymous": false,
      "inputs": [
        {
          "indexed": false,
          "internalType": "uint256",
          "name": "_fromTokenId",
          "type": "uint256"
        },
        {
          "indexed": false,
          "internalType": "uint256",
          "name": "_toTokenId",
          "type": "uint256"
        }
      ],
      "name": "BatchMetadataUpdate",
      "type": "event"
    },
    {
      "anonymous": false,
      "inputs": [
        {
          "indexed": true,
          "internalType": "uint256",
          "name": "tokenId",
          "type": "uint256"
        },
        {
          "indexed": false,
          "internalType": "address",
          "name": "seller",
          "type": "address"
        },
        {
          "indexed": false,
          "internalType": "address",
          "name": "owner",
          "type": "address"
        },
        {
          "indexed": false,
          "internalType": "uint256",
          "name": "price",
          "type": "uint256"
        },
        {
          "indexed": false,
          "internalType": "bool",
          "name": "sold",
          "type": "bool"
        }
      ],
      "name": "MarketItemCreated",
      "type": "event"
    },
    {
      "anonymous": false,
      "inputs": [
        {
          "indexed": false,
          "internalType": "uint256",
          "name": "_tokenId",
          "type": "uint256"
        }
      ],
      "name": "MetadataUpdate",
      "type": "event"
    },
    {
      "anonymous": false,
      "inputs": [
        {
          "indexed": true,
          "internalType": "address",
          "name": "from",
          "type": "address"
        },
        {
          "indexed": true,
          "internalType": "address",
          "name": "to",
          "type": "address"
        },
        {
          "indexed": true,
          "internalType": "uint256",
          "name": "tokenId",
          "type": "uint256"
        }
      ],
      "name": "Transfer",
      "type": "event"
    },
    {
      "inputs": [
        {
          "internalType": "address",
          "name": "to",
          "type": "address"
        },
        {
          "internalType": "uint256",
          "name": "tokenId",
          "type": "uint256"
        }
      ],
      "name": "approve",
      "outputs": [],
      "stateMutability": "nonpayable",
      "type": "function"
    },
    {
      "inputs": [
        {
          "internalType": "address",
          "name": "owner",
          "type": "address"
        }
      ],
      "name": "balanceOf",
      "outputs": [
        {
          "internalType": "uint256",
          "name": "",
          "type": "uint256"
        }
      ],
      "stateMutability": "view",
      "type": "function"
    },
    {
      "inputs": [
        {
          "internalType": "uint256",
          "name": "tokenId",
          "type": "uint256"
        }
      ],
      "name": "createMarketSale",
      "outputs": [],
      "stateMutability": "payable",
      "type": "function"
    },
    {
      "inputs": [
        {
          "internalType": "string",
          "name": "tokenURI",
          "type": "string"
        },
        {
          "internalType": "uint256",
          "name": "price",
          "type": "uint256"
        },
        {
          "internalType": "string[]",
          "name": "traits",
          "type": "string[]"
        }
      ],
      "name": "createToken",
      "outputs": [
        {
          "internalType": "uint256",
          "name": "",
          "type": "uint256"
        }
      ],
      "stateMutability": "payable",
      "type": "function"
    },
    {
      "inputs": [],
      "name": "fetchItemsListed",
      "outputs": [
        {
          "components": [
            {
              "internalType": "uint256",
              "name": "tokenId",
              "type": "uint256"
            },
            {
              "internalType": "address payable",
              "name": "seller",
              "type": "address"
            },
            {
              "internalType": "address payable",
              "name": "owner",
              "type": "address"
            },
            {
              "internalType": "uint256",
              "name": "price",
              "type": "uint256"
            },
            {
              "internalType": "bool",
              "name": "sold",
              "type": "bool"
            }
          ],
          "internalType": "struct NFTMarketPlace.MarketItem[]",
          "name": "",
          "type": "tuple[]"
        }
      ],
      "stateMutability": "view",
      "type": "function"
    },
    {
      "inputs": [],
      "name": "fetchMarketItems",
      "outputs": [
        {
          "components": [
            {
              "internalType": "uint256",
              "name": "tokenId",
              "type": "uint256"
            },
            {
              "internalType": "address payable",
              "name": "seller",
              "type": "address"
            },
            {
              "internalType": "address payable",
              "name": "owner",
              "type": "address"
            },
            {
              "internalType": "uint256",
              "name": "price",
              "type": "uint256"
            },
            {
              "internalType": "bool",
              "name": "sold",
              "type": "bool"
            }
          ],
          "internalType": "struct NFTMarketPlace.MarketItem[]",
          "name": "",
          "type": "tuple[]"
        }
      ],
      "stateMutability": "view",
      "type": "function"
    },
    {
      "inputs": [],
      "name": "fetchMyNFTs",
      "outputs": [
        {
          "components": [
            {
              "internalType": "uint256",
              "name": "tokenId",
              "type": "uint256"
            },
            {
              "internalType": "address payable",
              "name": "seller",
              "type": "address"
            },
            {
              "internalType": "address payable",
              "name": "owner",
              "type": "address"
            },
            {
              "internalType": "uint256",
              "name": "price",
              "type": "uint256"
            },
            {
              "internalType": "bool",
              "name": "sold",
              "type": "bool"
            }
          ],
          "internalType": "struct NFTMarketPlace.MarketItem[]",
          "name": "",
          "type": "tuple[]"
        }
      ],
      "stateMutability": "view",
      "type": "function"
    },
    {
      "inputs": [
        {
          "internalType": "uint256",
          "name": "tokenId",
          "type": "uint256"
        }
      ],
      "name": "getApproved",
      "outputs": [
        {
          "internalType": "address",
          "name": "",
          "type": "address"
        }
      ],
      "stateMutability": "view",
      "type": "function"
    },
    {
      "inputs": [],
      "name": "getListingPrice",
      "outputs": [
        {
          "internalType": "uint256",
          "name": "",
          "type": "uint256"
        }
      ],
      "stateMutability": "view",
      "type": "function"
    },
    {
      "inputs": [
        {
          "internalType": "uint256",
          "name": "tokenId",
          "type": "uint256"
        }
      ],
      "name": "getMarketItem",
      "outputs": [
        {
          "components": [
            {
              "internalType": "uint256",
              "name": "tokenId",
              "type": "uint256"
            },
            {
              "internalType": "address payable",
              "name": "seller",
              "type": "address"
            },
            {
              "internalType": "address payable",
              "name": "owner",
              "type": "address"
            },
            {
              "internalType": "uint256",
              "name": "price",
              "type": "uint256"
            },
            {
              "internalType": "bool",
              "name": "sold",
              "type": "bool"
            }
          ],
          "internalType": "struct NFTMarketPlace.MarketItem",
          "name": "",
          "type": "tuple"
        }
      ],
      "stateMutability": "view",
      "type": "function"
    },
    {
      "inputs": [
        {
          "internalType": "uint256",
          "name": "tokenId",
          "type": "uint256"
        }
      ],
      "name": "getNFT",
      "outputs": [
        {
          "internalType": "uint256",
          "name": "_tokenId",
          "type": "uint256"
        },
        {
          "internalType": "address",
          "name": "_owner",
          "type": "address"
        },
        {
          "internalType": "uint256",
          "name": "price",
          "type": "uint256"
        },
        {
          "internalType": "bool",
          "name": "sold",
          "type": "bool"
        }
      ],
      "stateMutability": "view",
      "type": "function"
    },
    {
      "inputs": [
        {
          "internalType": "uint256",
          "name": "tokenId",
          "type": "uint256"
        }
      ],
      "name": "getTraits",
      "outputs": [
        {
          "internalType": "string[]",
          "name": "",
          "type": "string[]"
        }
      ],
      "stateMutability": "view",
      "type": "function"
    },
    {
      "inputs": [
        {
          "internalType": "uint256",
          "name": "",
          "type": "uint256"
        }
      ],
      "name": "idToMarketItem",
      "outputs": [
        {
          "internalType": "uint256",
          "name": "tokenId",
          "type": "uint256"
        },
        {
          "internalType": "address payable",
          "name": "seller",
          "type": "address"
        },
        {
          "internalType": "address payable",
          "name": "owner",
          "type": "address"
        },
        {
          "internalType": "uint256",
          "name": "price",
          "type": "uint256"
        },
        {
          "internalType": "bool",
          "name": "sold",
          "type": "bool"
        }
      ],
      "stateMutability": "view",
      "type": "function"
    },
    {
      "inputs": [
        {
          "internalType": "address",
          "name": "owner",
          "type": "address"
        },
        {
          "internalType": "address",
          "name": "operator",
          "type": "address"
        }
      ],
      "name": "isApprovedForAll",
      "outputs": [
        {
          "internalType": "bool",
          "name": "",
          "type": "bool"
        }
      ],
      "stateMutability": "view",
      "type": "function"
    },
    {
      "inputs": [],
      "name": "name",
      "outputs": [
        {
          "internalType": "string",
          "name": "",
          "type": "string"
        }
      ],
      "stateMutability": "view",
      "type": "function"
    },
    {
      "inputs": [
        {
          "internalType": "uint256",
          "name": "tokenId",
          "type": "uint256"
        }
      ],
      "name": "ownerOf",
      "outputs": [
        {
          "internalType": "address",
          "name": "",
          "type": "address"
        }
      ],
      "stateMutability": "view",
      "type": "function"
    },
    {
      "inputs": [
        {
          "internalType": "uint256",
          "name": "tokenId",
          "type": "uint256"
        },
        {
          "internalType": "uint256",
          "name": "price",
          "type": "uint256"
        }
      ],
      "name": "resellToken",
      "outputs": [],
      "stateMutability": "payable",
      "type": "function"
    },
    {
      "inputs": [
        {
          "internalType": "address",
          "name": "from",
          "type": "address"
        },
        {
          "internalType": "address",
          "name": "to",
          "type": "address"
        },
        {
          "internalType": "uint256",
          "name": "tokenId",
          "type": "uint256"
        }
      ],
      "name": "safeTransferFrom",
      "outputs": [],
      "stateMutability": "nonpayable",
      "type": "function"
    },
    {
      "inputs": [
        {
          "internalType": "address",
          "name": "from",
          "type": "address"
        },
        {
          "internalType": "address",
          "name": "to",
          "type": "address"
        },
        {
          "internalType": "uint256",
          "name": "tokenId",
          "type": "uint256"
        },
        {
          "internalType": "bytes",
          "name": "data",
          "type": "bytes"
        }
      ],
      "name": "safeTransferFrom",
      "outputs": [],
      "stateMutability": "nonpayable",
      "type": "function"
    },
    {
      "inputs": [
        {
          "internalType": "address",
          "name": "operator",
          "type": "address"
        },
        {
          "internalType": "bool",
          "name": "approved",
          "type": "bool"
        }
      ],
      "name": "setApprovalForAll",
      "outputs": [],
      "stateMutability": "nonpayable",
      "type": "function"
    },
    {
      "inputs": [
        {
          "internalType": "bytes4",
          "name": "interfaceId",
          "type": "bytes4"
        }
      ],
      "name": "supportsInterface",
      "outputs": [
        {
          "internalType": "bool",
          "name": "",
          "type": "bool"
        }
      ],
      "stateMutability": "view",
      "type": "function"
    },
    {
      "inputs": [],
      "name": "symbol",
      "outputs": [
        {
          "internalType": "string",
          "name": "",
          "type": "string"
        }
      ],
      "stateMutability": "view",
      "type": "function"
    },
    {
      "inputs": [
        {
          "internalType": "uint256",
          "name": "",
          "type": "uint256"
        },
        {
          "internalType": "uint256",
          "name": "",
          "type": "uint256"
        }
      ],
      "name": "tokenTraits",
      "outputs": [
        {
          "internalType": "string",
          "name": "",
          "type": "string"
        }
      ],
      "stateMutability": "view",
      "type": "function"
    },
    {
      "inputs": [
        {
          "internalType": "uint256",
          "name": "tokenId",
          "type": "uint256"
        }
      ],
      "name": "tokenURI",
      "outputs": [
        {
          "internalType": "string",
          "name": "",
          "type": "string"
        }
      ],
      "stateMutability": "view",
      "type": "function"
    },
    {
      "inputs": [
        {
          "internalType": "address",
          "name": "from",
          "type": "address"
        },
        {
          "internalType": "address",
          "name": "to",
          "type": "address"
        },
        {
          "internalType": "uint256",
          "name": "tokenId",
          "type": "uint256"
        }
      ],
      "name": "transferFrom",
      "outputs": [],
      "stateMutability": "nonpayable",
      "type": "function"
    },
    {
      "inputs": [
        {
          "internalType": "uint256",
          "name": "_listingPrice",
          "type": "uint256"
        }
      ],
      "name": "updateListingPrice",
      "outputs": [],
      "stateMutability": "payable",
      "type": "function"
    }
  ],
  "bytecode": "0x60806040526658d15e176280006009553480156200001c57600080fd5b506040518060400160405280601081526020017f4d657461766572736520546f6b656e73000000000000000000000000000000008152506040518060400160405280600481526020017f4d4554540000000000000000000000000000000000000000000000000000000081525081600090816200009a919062000370565b508060019081620000ac919062000370565b50505033600a60006101000a81548173ffffffffffffffffffffffffffffffffffffffff021916908373ffffffffffffffffffffffffffffffffffffffff16021790555062000457565b600081519050919050565b7f4e487b7100000000000000000000000000000000000000000000000000000000600052604160045260246000fd5b7f4e487b7100000000000000000000000000000000000000000000000000000000600052602260045260246000fd5b600060028204905060018216806200017857607f821691505b6020821081036200018e576200018d62000130565b5b50919050565b60008190508160005260206000209050919050565b60006020601f8301049050919050565b600082821b905092915050565b600060088302620001f87fffffffffffffffffffffffffffffffffffffffffffffffffffffffffffffffff82620001b9565b620002048683620001b9565b95508019841693508086168417925050509392505050565b6000819050919050565b6000819050919050565b6000620002516200024b62000245846200021c565b62000226565b6200021c565b9050919050565b6000819050919050565b6200026d8362000230565b620002856200027c8262000258565b848454620001c6565b825550505050565b600090565b6200029c6200028d565b620002a981848462000262565b505050565b5b81811015620002d157620002c560008262000292565b600181019050620002af565b5050565b601f8211156200032057620002ea8162000194565b620002f584620001a9565b8101602085101562000305578190505b6200031d6200031485620001a9565b830182620002ae565b50505b505050565b600082821c905092915050565b6000620003456000198460080262000325565b1980831691505092915050565b600062000360838362000332565b9150826002028217905092915050565b6200037b82620000f6565b67ffffffffffffffff81111562000397576200039662000101565b5b620003a382546200015f565b620003b0828285620002d5565b600060209050601f831160018114620003e85760008415620003d3578287015190505b620003df858262000352565b8655506200044f565b601f198416620003f88662000194565b60005b828110156200042257848901518255600182019150602085019450602081019050620003fb565b868310156200044257848901516200043e601f89168262000332565b8355505b6001600288020188555050505b505050505050565b614cdf80620004676000396000f3fe6080604052600436106101815760003560e01c806370a08231116100d1578063c7be7a491161008a578063e1dc076111610064578063e1dc0761146105a8578063e219fc75146105e5578063e61a70c014610601578063e985e9c51461064257610181565b8063c7be7a49146104fe578063c87b56dd1461053b578063d256286d1461057857610181565b806370a082311461040c57806395d89b4114610449578063a22cb46514610474578063ae677aa31461049d578063b88d4fde146104b9578063be9af536146104e257610181565b806312e855851161013e57806342842e0e1161011857806342842e0e1461033b57806345f8fa8014610364578063576f7ea71461038f5780636352211e146103cf57610181565b806312e85585146102bc578063202e3740146102e757806323b872dd1461031257610181565b806301ffc9a71461018657806306fdde03146101c3578063081812fc146101ee57806308e83f371461022b578063095ea7b3146102685780630f08efe014610291575b600080fd5b34801561019257600080fd5b506101ad60048036038101906101a891906136db565b61067f565b6040516101ba9190613723565b60405180910390f35b3480156101cf57600080fd5b506101d86106e0565b6040516101e591906137ce565b60405180910390f35b3480156101fa57600080fd5b5061021560048036038101906102109190613826565b610772565b6040516102229190613894565b60405180910390f35b34801561023757600080fd5b50610252600480360381019061024d91906138af565b61078e565b60405161025f91906137ce565b60405180910390f35b34801561027457600080fd5b5061028f600480360381019061028a919061391b565b610847565b005b34801561029d57600080fd5b506102a661085d565b6040516102b39190613ab1565b60405180910390f35b3480156102c857600080fd5b506102d1610aaa565b6040516102de9190613ae2565b60405180910390f35b3480156102f357600080fd5b506102fc610ab4565b6040516103099190613ab1565b60405180910390f35b34801561031e57600080fd5b5061033960048036038101906103349190613afd565b610d8d565b005b34801561034757600080fd5b50610362600480360381019061035d9190613afd565b610e8f565b005b34801561037057600080fd5b50610379610eaf565b6040516103869190613ab1565b60405180910390f35b34801561039b57600080fd5b506103b660048036038101906103b19190613826565b611188565b6040516103c69493929190613b50565b60405180910390f35b3480156103db57600080fd5b506103f660048036038101906103f19190613826565b611289565b6040516104039190613894565b60405180910390f35b34801561041857600080fd5b50610433600480360381019061042e9190613b95565b61129b565b6040516104409190613ae2565b60405180910390f35b34801561045557600080fd5b5061045e611355565b60405161046b91906137ce565b60405180910390f35b34801561048057600080fd5b5061049b60048036038101906104969190613bee565b6113e7565b005b6104b760048036038101906104b29190613826565b6113fd565b005b3480156104c557600080fd5b506104e060048036038101906104db9190613d63565b611497565b005b6104fc60048036038101906104f79190613826565b6114b4565b005b34801561050a57600080fd5b5061052560048036038101906105209190613826565b6117e5565b6040516105329190613e4e565b60405180910390f35b34801561054757600080fd5b50610562600480360381019061055d9190613826565b6118ed565b60405161056f91906137ce565b60405180910390f35b610592600480360381019061058d9190613ff0565b611a00565b60405161059f9190613ae2565b60405180910390f35b3480156105b457600080fd5b506105cf60048036038101906105ca9190613826565b611a72565b6040516105dc9190614187565b60405180910390f35b6105ff60048036038101906105fa91906138af565b611c4d565b005b34801561060d57600080fd5b5061062860048036038101906106239190613826565b611e50565b6040516106399594939291906141b8565b60405180910390f35b34801561064e57600080fd5b506106696004803603810190610664919061420b565b611ed3565b6040516106769190613723565b60405180910390f35b6000634906490660e01b7bffffffffffffffffffffffffffffffffffffffffffffffffffffffff1916827bffffffffffffffffffffffffffffffffffffffffffffffffffffffff191614806106d957506106d882611f67565b5b9050919050565b6060600080546106ef9061427a565b80601f016020809104026020016040519081016040528092919081815260200182805461071b9061427a565b80156107685780601f1061073d57610100808354040283529160200191610768565b820191906000526020600020905b81548152906001019060200180831161074b57829003601f168201915b5050505050905090565b600061077d82612049565b50610787826120d1565b9050919050565b600c60205281600052604060002081815481106107aa57600080fd5b906000526020600020016000915091505080546107c69061427a565b80601f01602080910402602001604051908101604052809291908181526020018280546107f29061427a565b801561083f5780601f106108145761010080835404028352916020019161083f565b820191906000526020600020905b81548152906001019060200180831161082257829003601f168201915b505050505081565b610859828261085461210e565b612116565b5050565b606060006007549050600060085460075461087891906142da565b90506000808267ffffffffffffffff81111561089757610896613c38565b5b6040519080825280602002602001820160405280156108d057816020015b6108bd61352e565b8152602001906001900390816108b55790505b50905060005b84811015610a9f573073ffffffffffffffffffffffffffffffffffffffff16600b6000600184610906919061430e565b815260200190815260200160002060020160009054906101000a900473ffffffffffffffffffffffffffffffffffffffff1673ffffffffffffffffffffffffffffffffffffffff1603610a92576000600182610962919061430e565b90506000600b60008381526020019081526020016000209050806040518060a0016040529081600082015481526020016001820160009054906101000a900473ffffffffffffffffffffffffffffffffffffffff1673ffffffffffffffffffffffffffffffffffffffff1673ffffffffffffffffffffffffffffffffffffffff1681526020016002820160009054906101000a900473ffffffffffffffffffffffffffffffffffffffff1673ffffffffffffffffffffffffffffffffffffffff1673ffffffffffffffffffffffffffffffffffffffff168152602001600382015481526020016004820160009054906101000a900460ff161515151581525050848681518110610a7557610a74614342565b5b6020026020010181905250600185610a8d919061430e565b945050505b80806001019150506108d6565b508094505050505090565b6000600954905090565b60606000600754905060008060005b83811015610b5d573373ffffffffffffffffffffffffffffffffffffffff16600b6000600184610af3919061430e565b815260200190815260200160002060020160009054906101000a900473ffffffffffffffffffffffffffffffffffffffff1673ffffffffffffffffffffffffffffffffffffffff1603610b5057600183610b4d919061430e565b92505b8080600101915050610ac3565b5060008267ffffffffffffffff811115610b7a57610b79613c38565b5b604051908082528060200260200182016040528015610bb357816020015b610ba061352e565b815260200190600190039081610b985790505b50905060005b84811015610d82573373ffffffffffffffffffffffffffffffffffffffff16600b6000600184610be9919061430e565b815260200190815260200160002060020160009054906101000a900473ffffffffffffffffffffffffffffffffffffffff1673ffffffffffffffffffffffffffffffffffffffff1603610d75576000600182610c45919061430e565b90506000600b60008381526020019081526020016000209050806040518060a0016040529081600082015481526020016001820160009054906101000a900473ffffffffffffffffffffffffffffffffffffffff1673ffffffffffffffffffffffffffffffffffffffff1673ffffffffffffffffffffffffffffffffffffffff1681526020016002820160009054906101000a900473ffffffffffffffffffffffffffffffffffffffff1673ffffffffffffffffffffffffffffffffffffffff1673ffffffffffffffffffffffffffffffffffffffff168152602001600382015481526020016004820160009054906101000a900460ff161515151581525050848681518110610d5857610d57614342565b5b6020026020010181905250600185610d70919061430e565b945050505b8080600101915050610bb9565b508094505050505090565b600073ffffffffffffffffffffffffffffffffffffffff168273ffffffffffffffffffffffffffffffffffffffff1603610dff5760006040517f64a0ae92000000000000000000000000000000000000000000000000000000008152600401610df69190613894565b60405180910390fd5b6000610e138383610e0e61210e565b612128565b90508373ffffffffffffffffffffffffffffffffffffffff168173ffffffffffffffffffffffffffffffffffffffff1614610e89578382826040517f64283d7b000000000000000000000000000000000000000000000000000000008152600401610e8093929190614371565b60405180910390fd5b50505050565b610eaa83838360405180602001604052806000815250611497565b505050565b60606000600754905060008060005b83811015610f58573373ffffffffffffffffffffffffffffffffffffffff16600b6000600184610eee919061430e565b815260200190815260200160002060010160009054906101000a900473ffffffffffffffffffffffffffffffffffffffff1673ffffffffffffffffffffffffffffffffffffffff1603610f4b57600183610f48919061430e565b92505b8080600101915050610ebe565b5060008267ffffffffffffffff811115610f7557610f74613c38565b5b604051908082528060200260200182016040528015610fae57816020015b610f9b61352e565b815260200190600190039081610f935790505b50905060005b8481101561117d573373ffffffffffffffffffffffffffffffffffffffff16600b6000600184610fe4919061430e565b815260200190815260200160002060010160009054906101000a900473ffffffffffffffffffffffffffffffffffffffff1673ffffffffffffffffffffffffffffffffffffffff1603611170576000600182611040919061430e565b90506000600b60008381526020019081526020016000209050806040518060a0016040529081600082015481526020016001820160009054906101000a900473ffffffffffffffffffffffffffffffffffffffff1673ffffffffffffffffffffffffffffffffffffffff1673ffffffffffffffffffffffffffffffffffffffff1681526020016002820160009054906101000a900473ffffffffffffffffffffffffffffffffffffffff1673ffffffffffffffffffffffffffffffffffffffff1673ffffffffffffffffffffffffffffffffffffffff168152602001600382015481526020016004820160009054906101000a900460ff16151515158152505084868151811061115357611152614342565b5b602002602001018190525060018561116b919061430e565b945050505b8080600101915050610fb4565b508094505050505090565b6000806000806000600b60008781526020019081526020016000209050600073ffffffffffffffffffffffffffffffffffffffff168160020160009054906101000a900473ffffffffffffffffffffffffffffffffffffffff1673ffffffffffffffffffffffffffffffffffffffff1603611238576040517f08c379a000000000000000000000000000000000000000000000000000000000815260040161122f9061441a565b60405180910390fd5b80600001548160020160009054906101000a900473ffffffffffffffffffffffffffffffffffffffff1682600301548360040160009054906101000a900460ff169450945094509450509193509193565b600061129482612049565b9050919050565b60008073ffffffffffffffffffffffffffffffffffffffff168273ffffffffffffffffffffffffffffffffffffffff160361130e5760006040517f89c62b640000000000000000000000000000000000000000000000000000000081526004016113059190613894565b60405180910390fd5b600360008373ffffffffffffffffffffffffffffffffffffffff1673ffffffffffffffffffffffffffffffffffffffff168152602001908152602001600020549050919050565b6060600180546113649061427a565b80601f01602080910402602001604051908101604052809291908181526020018280546113909061427a565b80156113dd5780601f106113b2576101008083540402835291602001916113dd565b820191906000526020600020905b8154815290600101906020018083116113c057829003601f168201915b5050505050905090565b6113f96113f261210e565b8383612342565b5050565b3373ffffffffffffffffffffffffffffffffffffffff16600a60009054906101000a900473ffffffffffffffffffffffffffffffffffffffff1673ffffffffffffffffffffffffffffffffffffffff161461148d576040517f08c379a0000000000000000000000000000000000000000000000000000000008152600401611484906144ac565b60405180910390fd5b8060098190555050565b6114a2848484610d8d565b6114ae848484846124b1565b50505050565b6114bd33612668565b6114c634612701565b6000600b60008381526020019081526020016000206003015490506000600b600084815260200190815260200160002060010160009054906101000a900473ffffffffffffffffffffffffffffffffffffffff16905061152582612701565b813414611567576040517f08c379a000000000000000000000000000000000000000000000000000000000815260040161155e9061453e565b60405180910390fd5b33600b600085815260200190815260200160002060020160006101000a81548173ffffffffffffffffffffffffffffffffffffffff021916908373ffffffffffffffffffffffffffffffffffffffff1602179055506001600b600085815260200190815260200160002060040160006101000a81548160ff0219169083151502179055506000600b600085815260200190815260200160002060010160006101000a81548173ffffffffffffffffffffffffffffffffffffffff021916908373ffffffffffffffffffffffffffffffffffffffff160217905550600860008154809291906116549061455e565b919050555061166430338561279a565b6000600a60009054906101000a900473ffffffffffffffffffffffffffffffffffffffff1673ffffffffffffffffffffffffffffffffffffffff166009546040516116ae906145d7565b60006040518083038185875af1925050503d80600081146116eb576040519150601f19603f3d011682016040523d82523d6000602084013e6116f0565b606091505b505090506117336040518060400160405280600681526020017f73656c6c6572000000000000000000000000000000000000000000000000000081525083612907565b6117726040518060400160405280600981526020017f6d73672e76616c75650000000000000000000000000000000000000000000000815250346129a3565b60008273ffffffffffffffffffffffffffffffffffffffff1634604051611798906145d7565b60006040518083038185875af1925050503d80600081146117d5576040519150601f19603f3d011682016040523d82523d6000602084013e6117da565b606091505b505090505050505050565b6117ed61352e565b600b60008381526020019081526020016000206040518060a0016040529081600082015481526020016001820160009054906101000a900473ffffffffffffffffffffffffffffffffffffffff1673ffffffffffffffffffffffffffffffffffffffff1673ffffffffffffffffffffffffffffffffffffffff1681526020016002820160009054906101000a900473ffffffffffffffffffffffffffffffffffffffff1673ffffffffffffffffffffffffffffffffffffffff1673ffffffffffffffffffffffffffffffffffffffff168152602001600382015481526020016004820160009054906101000a900460ff1615151515815250509050919050565b60606118f882612049565b5060006006600084815260200190815260200160002080546119199061427a565b80601f01602080910402602001604051908101604052809291908181526020018280546119459061427a565b80156119925780601f1061196757610100808354040283529160200191611992565b820191906000526020600020905b81548152906001019060200180831161197557829003601f168201915b5050505050905060006119a3612a3f565b905060008151036119b85781925050506119fb565b6000825111156119ed5780826040516020016119d5929190614628565b604051602081830303815290604052925050506119fb565b6119f684612a56565b925050505b919050565b600060076000815480929190611a159061455e565b919050555060006007549050611a2b3382612abf565b82600c60008381526020019081526020016000209080519060200190611a5292919061358b565b50611a5d8186612bb8565b611a678185612c14565b809150509392505050565b60606000600c6000848152602001908152602001600020805480602002602001604051908101604052809291908181526020016000905b82821015611b55578382906000526020600020018054611ac89061427a565b80601f0160208091040260200160405190810160405280929190818152602001828054611af49061427a565b8015611b415780601f10611b1657610100808354040283529160200191611b41565b820191906000526020600020905b815481529060010190602001808311611b2457829003601f168201915b505050505081526020019060010190611aa9565b5050505090506000815167ffffffffffffffff811115611b7857611b77613c38565b5b604051908082528060200260200182016040528015611bab57816020015b6060815260200190600190039081611b965790505b50905060005b8251811015611c4257828181518110611bcd57611bcc614342565b5b6020026020010151604051602001611be5919061464c565b604051602081830303815290604052828281518110611c0757611c06614342565b5b6020026020010181905250611c35828281518110611c2857611c27614342565b5b6020026020010151612e3d565b8080600101915050611bb1565b508092505050919050565b3373ffffffffffffffffffffffffffffffffffffffff16600b600084815260200190815260200160002060020160009054906101000a900473ffffffffffffffffffffffffffffffffffffffff1673ffffffffffffffffffffffffffffffffffffffff1614611cf1576040517f08c379a0000000000000000000000000000000000000000000000000000000008152600401611ce8906146d5565b60405180910390fd5b6009543414611d35576040517f08c379a0000000000000000000000000000000000000000000000000000000008152600401611d2c90614767565b60405180910390fd5b6000600b600084815260200190815260200160002060040160006101000a81548160ff02191690831515021790555080600b60008481526020019081526020016000206003018190555033600b600084815260200190815260200160002060010160006101000a81548173ffffffffffffffffffffffffffffffffffffffff021916908373ffffffffffffffffffffffffffffffffffffffff16021790555030600b600084815260200190815260200160002060020160006101000a81548173ffffffffffffffffffffffffffffffffffffffff021916908373ffffffffffffffffffffffffffffffffffffffff16021790555060086000815480929190611e3c90614787565b9190505550611e4c33308461279a565b5050565b600b6020528060005260406000206000915090508060000154908060010160009054906101000a900473ffffffffffffffffffffffffffffffffffffffff16908060020160009054906101000a900473ffffffffffffffffffffffffffffffffffffffff16908060030154908060040160009054906101000a900460ff16905085565b6000600560008473ffffffffffffffffffffffffffffffffffffffff1673ffffffffffffffffffffffffffffffffffffffff16815260200190815260200160002060008373ffffffffffffffffffffffffffffffffffffffff1673ffffffffffffffffffffffffffffffffffffffff16815260200190815260200160002060009054906101000a900460ff16905092915050565b60007f80ac58cd000000000000000000000000000000000000000000000000000000007bffffffffffffffffffffffffffffffffffffffffffffffffffffffff1916827bffffffffffffffffffffffffffffffffffffffffffffffffffffffff1916148061203257507f5b5e139f000000000000000000000000000000000000000000000000000000007bffffffffffffffffffffffffffffffffffffffffffffffffffffffff1916827bffffffffffffffffffffffffffffffffffffffffffffffffffffffff1916145b80612042575061204182612ed6565b5b9050919050565b60008061205583612f40565b9050600073ffffffffffffffffffffffffffffffffffffffff168173ffffffffffffffffffffffffffffffffffffffff16036120c857826040517f7e2732890000000000000000000000000000000000000000000000000000000081526004016120bf9190613ae2565b60405180910390fd5b80915050919050565b60006004600083815260200190815260200160002060009054906101000a900473ffffffffffffffffffffffffffffffffffffffff169050919050565b600033905090565b6121238383836001612f7d565b505050565b60008061213484612f40565b9050600073ffffffffffffffffffffffffffffffffffffffff168373ffffffffffffffffffffffffffffffffffffffff161461217657612175818486613142565b5b600073ffffffffffffffffffffffffffffffffffffffff168173ffffffffffffffffffffffffffffffffffffffff1614612207576121b8600085600080612f7d565b6001600360008373ffffffffffffffffffffffffffffffffffffffff1673ffffffffffffffffffffffffffffffffffffffff168152602001908152602001600020600082825403925050819055505b600073ffffffffffffffffffffffffffffffffffffffff168573ffffffffffffffffffffffffffffffffffffffff161461228a576001600360008773ffffffffffffffffffffffffffffffffffffffff1673ffffffffffffffffffffffffffffffffffffffff168152602001908152602001600020600082825401925050819055505b846002600086815260200190815260200160002060006101000a81548173ffffffffffffffffffffffffffffffffffffffff021916908373ffffffffffffffffffffffffffffffffffffffff160217905550838573ffffffffffffffffffffffffffffffffffffffff168273ffffffffffffffffffffffffffffffffffffffff167fddf252ad1be2c89b69c2b068fc378daa952ba7f163c4a11628f55a4df523b3ef60405160405180910390a4809150509392505050565b600073ffffffffffffffffffffffffffffffffffffffff168273ffffffffffffffffffffffffffffffffffffffff16036123b357816040517f5b08ba180000000000000000000000000000000000000000000000000000000081526004016123aa9190613894565b60405180910390fd5b80600560008573ffffffffffffffffffffffffffffffffffffffff1673ffffffffffffffffffffffffffffffffffffffff16815260200190815260200160002060008473ffffffffffffffffffffffffffffffffffffffff1673ffffffffffffffffffffffffffffffffffffffff16815260200190815260200160002060006101000a81548160ff0219169083151502179055508173ffffffffffffffffffffffffffffffffffffffff168373ffffffffffffffffffffffffffffffffffffffff167f17307eab39ab6107e8899845ad3d59bd9653f200f220920489ca2b5937696c31836040516124a49190613723565b60405180910390a3505050565b60008373ffffffffffffffffffffffffffffffffffffffff163b1115612662578273ffffffffffffffffffffffffffffffffffffffff1663150b7a026124f561210e565b8685856040518563ffffffff1660e01b81526004016125179493929190614805565b6020604051808303816000875af192505050801561255357506040513d601f19601f820116820180604052508101906125509190614866565b60015b6125d7573d8060008114612583576040519150601f19603f3d011682016040523d82523d6000602084013e612588565b606091505b5060008151036125cf57836040517f64a0ae920000000000000000000000000000000000000000000000000000000081526004016125c69190613894565b60405180910390fd5b805181602001fd5b63150b7a0260e01b7bffffffffffffffffffffffffffffffffffffffffffffffffffffffff1916817bffffffffffffffffffffffffffffffffffffffffffffffffffffffff19161461266057836040517f64a0ae920000000000000000000000000000000000000000000000000000000081526004016126579190613894565b60405180910390fd5b505b50505050565b6126fe8160405160240161267c9190613894565b6040516020818303038152906040527f2c2ecbc2000000000000000000000000000000000000000000000000000000007bffffffffffffffffffffffffffffffffffffffffffffffffffffffff19166020820180517bffffffffffffffffffffffffffffffffffffffffffffffffffffffff8381831617835250505050613206565b50565b612797816040516024016127159190613ae2565b6040516020818303038152906040527ff82c50f1000000000000000000000000000000000000000000000000000000007bffffffffffffffffffffffffffffffffffffffffffffffffffffffff19166020820180517bffffffffffffffffffffffffffffffffffffffffffffffffffffffff8381831617835250505050613206565b50565b600073ffffffffffffffffffffffffffffffffffffffff168273ffffffffffffffffffffffffffffffffffffffff160361280c5760006040517f64a0ae920000000000000000000000000000000000000000000000000000000081526004016128039190613894565b60405180910390fd5b600061281a83836000612128565b9050600073ffffffffffffffffffffffffffffffffffffffff168173ffffffffffffffffffffffffffffffffffffffff160361288d57816040517f7e2732890000000000000000000000000000000000000000000000000000000081526004016128849190613ae2565b60405180910390fd5b8373ffffffffffffffffffffffffffffffffffffffff168173ffffffffffffffffffffffffffffffffffffffff1614612901578382826040517f64283d7b0000000000000000000000000000000000000000000000000000000081526004016128f893929190614371565b60405180910390fd5b50505050565b61299f828260405160240161291d929190614893565b6040516020818303038152906040527f319af333000000000000000000000000000000000000000000000000000000007bffffffffffffffffffffffffffffffffffffffffffffffffffffffff19166020820180517bffffffffffffffffffffffffffffffffffffffffffffffffffffffff8381831617835250505050613206565b5050565b612a3b82826040516024016129b99291906148c3565b6040516020818303038152906040527fb60e72cc000000000000000000000000000000000000000000000000000000007bffffffffffffffffffffffffffffffffffffffffffffffffffffffff19166020820180517bffffffffffffffffffffffffffffffffffffffffffffffffffffffff8381831617835250505050613206565b5050565b606060405180602001604052806000815250905090565b6060612a6182612049565b506000612a6c612a3f565b90506000815111612a8c5760405180602001604052806000815250612ab7565b80612a9684613220565b604051602001612aa7929190614628565b6040516020818303038152906040525b915050919050565b600073ffffffffffffffffffffffffffffffffffffffff168273ffffffffffffffffffffffffffffffffffffffff1603612b315760006040517f64a0ae92000000000000000000000000000000000000000000000000000000008152600401612b289190613894565b60405180910390fd5b6000612b3f83836000612128565b9050600073ffffffffffffffffffffffffffffffffffffffff168173ffffffffffffffffffffffffffffffffffffffff1614612bb35760006040517f73c6ac6e000000000000000000000000000000000000000000000000000000008152600401612baa9190613894565b60405180910390fd5b505050565b80600660008481526020019081526020016000209081612bd89190614a9f565b507ff8e1a15aba9398e019f0b49df1a4fde98ee17ae345cb5f6b5e2c27f5033e8ce782604051612c089190613ae2565b60405180910390a15050565b612c1d34612701565b612c2633612668565b612c31600954612701565b612c3a30612668565b60008111612c7d576040517f08c379a0000000000000000000000000000000000000000000000000000000008152600401612c7490614bbd565b60405180910390fd5b6009543414612cc1576040517f08c379a0000000000000000000000000000000000000000000000000000000008152600401612cb890614767565b60405180910390fd5b6040518060a001604052808381526020013373ffffffffffffffffffffffffffffffffffffffff1681526020013073ffffffffffffffffffffffffffffffffffffffff16815260200182815260200160001515815250600b60008481526020019081526020016000206000820151816000015560208201518160010160006101000a81548173ffffffffffffffffffffffffffffffffffffffff021916908373ffffffffffffffffffffffffffffffffffffffff16021790555060408201518160020160006101000a81548173ffffffffffffffffffffffffffffffffffffffff021916908373ffffffffffffffffffffffffffffffffffffffff1602179055506060820151816003015560808201518160040160006101000a81548160ff021916908315150217905550905050612dfa33308461279a565b817fb640004f1d14576d0c209e240cad0410e0d8c0c33a09375861fbadae2588a98d3330846000604051612e319493929190614bdd565b60405180910390a25050565b612ed381604051602401612e5191906137ce565b6040516020818303038152906040527f41304fac000000000000000000000000000000000000000000000000000000007bffffffffffffffffffffffffffffffffffffffffffffffffffffffff19166020820180517bffffffffffffffffffffffffffffffffffffffffffffffffffffffff8381831617835250505050613206565b50565b60007f01ffc9a7000000000000000000000000000000000000000000000000000000007bffffffffffffffffffffffffffffffffffffffffffffffffffffffff1916827bffffffffffffffffffffffffffffffffffffffffffffffffffffffff1916149050919050565b60006002600083815260200190815260200160002060009054906101000a900473ffffffffffffffffffffffffffffffffffffffff169050919050565b8080612fb65750600073ffffffffffffffffffffffffffffffffffffffff168273ffffffffffffffffffffffffffffffffffffffff1614155b156130ea576000612fc684612049565b9050600073ffffffffffffffffffffffffffffffffffffffff168373ffffffffffffffffffffffffffffffffffffffff161415801561303157508273ffffffffffffffffffffffffffffffffffffffff168173ffffffffffffffffffffffffffffffffffffffff1614155b801561304457506130428184611ed3565b155b1561308657826040517fa9fbf51f00000000000000000000000000000000000000000000000000000000815260040161307d9190613894565b60405180910390fd5b81156130e857838573ffffffffffffffffffffffffffffffffffffffff168273ffffffffffffffffffffffffffffffffffffffff167f8c5be1e5ebec7d5bd14f71427d1e84f3dd0314c0f7b2291e5b200ac8c7c3b92560405160405180910390a45b505b836004600085815260200190815260200160002060006101000a81548173ffffffffffffffffffffffffffffffffffffffff021916908373ffffffffffffffffffffffffffffffffffffffff16021790555050505050565b61314d8383836132ee565b61320157600073ffffffffffffffffffffffffffffffffffffffff168373ffffffffffffffffffffffffffffffffffffffff16036131c257806040517f7e2732890000000000000000000000000000000000000000000000000000000081526004016131b99190613ae2565b60405180910390fd5b81816040517f177e802f0000000000000000000000000000000000000000000000000000000081526004016131f8929190614c22565b60405180910390fd5b505050565b61321d816132156133af6133d0565b63ffffffff16565b50565b60606000600161322f846133db565b01905060008167ffffffffffffffff81111561324e5761324d613c38565b5b6040519080825280601f01601f1916602001820160405280156132805781602001600182028036833780820191505090505b509050600082602001820190505b6001156132e3578080600190039150507f3031323334353637383961626364656600000000000000000000000000000000600a86061a8153600a85816132d7576132d6614c4b565b5b0494506000850361328e575b819350505050919050565b60008073ffffffffffffffffffffffffffffffffffffffff168373ffffffffffffffffffffffffffffffffffffffff16141580156133a657508273ffffffffffffffffffffffffffffffffffffffff168473ffffffffffffffffffffffffffffffffffffffff16148061336757506133668484611ed3565b5b806133a557508273ffffffffffffffffffffffffffffffffffffffff1661338d836120d1565b73ffffffffffffffffffffffffffffffffffffffff16145b5b90509392505050565b60006a636f6e736f6c652e6c6f679050600080835160208501845afa505050565b6135e4819050919050565b600080600090507a184f03e93ff9f4daa797ed6e38ed64bf6a1f0100000000000000008310613439577a184f03e93ff9f4daa797ed6e38ed64bf6a1f010000000000000000838161342f5761342e614c4b565b5b0492506040810190505b6d04ee2d6d415b85acef81000000008310613476576d04ee2d6d415b85acef8100000000838161346c5761346b614c4b565b5b0492506020810190505b662386f26fc1000083106134a557662386f26fc10000838161349b5761349a614c4b565b5b0492506010810190505b6305f5e10083106134ce576305f5e10083816134c4576134c3614c4b565b5b0492506008810190505b61271083106134f35761271083816134e9576134e8614c4b565b5b0492506004810190505b60648310613516576064838161350c5761350b614c4b565b5b0492506002810190505b600a8310613525576001810190505b80915050919050565b6040518060a0016040528060008152602001600073ffffffffffffffffffffffffffffffffffffffff168152602001600073ffffffffffffffffffffffffffffffffffffffff168152602001600081526020016000151581525090565b8280548282559060005260206000209081019282156135d3579160200282015b828111156135d25782518290816135c29190614a9f565b50916020019190600101906135ab565b5b5090506135e091906135ee565b5090565b6135ec614c7a565b565b5b8082111561360e57600081816136059190613612565b506001016135ef565b5090565b50805461361e9061427a565b6000825580601f10613630575061364f565b601f01602090049060005260206000209081019061364e9190613652565b5b50565b5b8082111561366b576000816000905550600101613653565b5090565b6000604051905090565b600080fd5b600080fd5b60007fffffffff0000000000000000000000000000000000000000000000000000000082169050919050565b6136b881613683565b81146136c357600080fd5b50565b6000813590506136d5816136af565b92915050565b6000602082840312156136f1576136f0613679565b5b60006136ff848285016136c6565b91505092915050565b60008115159050919050565b61371d81613708565b82525050565b60006020820190506137386000830184613714565b92915050565b600081519050919050565b600082825260208201905092915050565b60005b8381101561377857808201518184015260208101905061375d565b60008484015250505050565b6000601f19601f8301169050919050565b60006137a08261373e565b6137aa8185613749565b93506137ba81856020860161375a565b6137c381613784565b840191505092915050565b600060208201905081810360008301526137e88184613795565b905092915050565b6000819050919050565b613803816137f0565b811461380e57600080fd5b50565b600081359050613820816137fa565b92915050565b60006020828403121561383c5761383b613679565b5b600061384a84828501613811565b91505092915050565b600073ffffffffffffffffffffffffffffffffffffffff82169050919050565b600061387e82613853565b9050919050565b61388e81613873565b82525050565b60006020820190506138a96000830184613885565b92915050565b600080604083850312156138c6576138c5613679565b5b60006138d485828601613811565b92505060206138e585828601613811565b9150509250929050565b6138f881613873565b811461390357600080fd5b50565b600081359050613915816138ef565b92915050565b6000806040838503121561393257613931613679565b5b600061394085828601613906565b925050602061395185828601613811565b9150509250929050565b600081519050919050565b600082825260208201905092915050565b6000819050602082019050919050565b613990816137f0565b82525050565b60006139a182613853565b9050919050565b6139b181613996565b82525050565b6139c081613708565b82525050565b60a0820160008201516139dc6000850182613987565b5060208201516139ef60208501826139a8565b506040820151613a0260408501826139a8565b506060820151613a156060850182613987565b506080820151613a2860808501826139b7565b50505050565b6000613a3a83836139c6565b60a08301905092915050565b6000602082019050919050565b6000613a5e8261395b565b613a688185613966565b9350613a7383613977565b8060005b83811015613aa4578151613a8b8882613a2e565b9750613a9683613a46565b925050600181019050613a77565b5085935050505092915050565b60006020820190508181036000830152613acb8184613a53565b905092915050565b613adc816137f0565b82525050565b6000602082019050613af76000830184613ad3565b92915050565b600080600060608486031215613b1657613b15613679565b5b6000613b2486828701613906565b9350506020613b3586828701613906565b9250506040613b4686828701613811565b9150509250925092565b6000608082019050613b656000830187613ad3565b613b726020830186613885565b613b7f6040830185613ad3565b613b8c6060830184613714565b95945050505050565b600060208284031215613bab57613baa613679565b5b6000613bb984828501613906565b91505092915050565b613bcb81613708565b8114613bd657600080fd5b50565b600081359050613be881613bc2565b92915050565b60008060408385031215613c0557613c04613679565b5b6000613c1385828601613906565b9250506020613c2485828601613bd9565b9150509250929050565b600080fd5b600080fd5b7f4e487b7100000000000000000000000000000000000000000000000000000000600052604160045260246000fd5b613c7082613784565b810181811067ffffffffffffffff82111715613c8f57613c8e613c38565b5b80604052505050565b6000613ca261366f565b9050613cae8282613c67565b919050565b600067ffffffffffffffff821115613cce57613ccd613c38565b5b613cd782613784565b9050602081019050919050565b82818337600083830152505050565b6000613d06613d0184613cb3565b613c98565b905082815260208101848484011115613d2257613d21613c33565b5b613d2d848285613ce4565b509392505050565b600082601f830112613d4a57613d49613c2e565b5b8135613d5a848260208601613cf3565b91505092915050565b60008060008060808587031215613d7d57613d7c613679565b5b6000613d8b87828801613906565b9450506020613d9c87828801613906565b9350506040613dad87828801613811565b925050606085013567ffffffffffffffff811115613dce57613dcd61367e565b5b613dda87828801613d35565b91505092959194509250565b60a082016000820151613dfc6000850182613987565b506020820151613e0f60208501826139a8565b506040820151613e2260408501826139a8565b506060820151613e356060850182613987565b506080820151613e4860808501826139b7565b50505050565b600060a082019050613e636000830184613de6565b92915050565b600067ffffffffffffffff821115613e8457613e83613c38565b5b613e8d82613784565b9050602081019050919050565b6000613ead613ea884613e69565b613c98565b905082815260208101848484011115613ec957613ec8613c33565b5b613ed4848285613ce4565b509392505050565b600082601f830112613ef157613ef0613c2e565b5b8135613f01848260208601613e9a565b91505092915050565b600067ffffffffffffffff821115613f2557613f24613c38565b5b602082029050602081019050919050565b600080fd5b6000613f4e613f4984613f0a565b613c98565b90508083825260208201905060208402830185811115613f7157613f70613f36565b5b835b81811015613fb857803567ffffffffffffffff811115613f9657613f95613c2e565b5b808601613fa38982613edc565b85526020850194505050602081019050613f73565b5050509392505050565b600082601f830112613fd757613fd6613c2e565b5b8135613fe7848260208601613f3b565b91505092915050565b60008060006060848603121561400957614008613679565b5b600084013567ffffffffffffffff8111156140275761402661367e565b5b61403386828701613edc565b935050602061404486828701613811565b925050604084013567ffffffffffffffff8111156140655761406461367e565b5b61407186828701613fc2565b9150509250925092565b600081519050919050565b600082825260208201905092915050565b6000819050602082019050919050565b600082825260208201905092915050565b60006140c38261373e565b6140cd81856140a7565b93506140dd81856020860161375a565b6140e681613784565b840191505092915050565b60006140fd83836140b8565b905092915050565b6000602082019050919050565b600061411d8261407b565b6141278185614086565b93508360208202850161413985614097565b8060005b85811015614175578484038952815161415685826140f1565b945061416183614105565b925060208a0199505060018101905061413d565b50829750879550505050505092915050565b600060208201905081810360008301526141a18184614112565b905092915050565b6141b281613996565b82525050565b600060a0820190506141cd6000830188613ad3565b6141da60208301876141a9565b6141e760408301866141a9565b6141f46060830185613ad3565b6142016080830184613714565b9695505050505050565b6000806040838503121561422257614221613679565b5b600061423085828601613906565b925050602061424185828601613906565b9150509250929050565b7f4e487b7100000000000000000000000000000000000000000000000000000000600052602260045260246000fd5b6000600282049050600182168061429257607f821691505b6020821081036142a5576142a461424b565b5b50919050565b7f4e487b7100000000000000000000000000000000000000000000000000000000600052601160045260246000fd5b60006142e5826137f0565b91506142f0836137f0565b9250828203905081811115614308576143076142ab565b5b92915050565b6000614319826137f0565b9150614324836137f0565b925082820190508082111561433c5761433b6142ab565b5b92915050565b7f4e487b7100000000000000000000000000000000000000000000000000000000600052603260045260246000fd5b60006060820190506143866000830186613885565b6143936020830185613ad3565b6143a06040830184613885565b949350505050565b7f4e465420776974682074686520676976656e20746f6b656e496420646f65732060008201527f6e6f742065786973740000000000000000000000000000000000000000000000602082015250565b6000614404602983613749565b915061440f826143a8565b604082019050919050565b60006020820190508181036000830152614433816143f7565b9050919050565b7f4f6e6c79206d61726b6574706c616365206f776e65722063616e20757064617460008201527f65206c697374696e672070726963652e00000000000000000000000000000000602082015250565b6000614496603083613749565b91506144a18261443a565b604082019050919050565b600060208201905081810360008301526144c581614489565b9050919050565b7f506c65617365207375626d6974207468652061736b696e67207072696365206960008201527f6e206f7264657220746f20636f6d706c65746520746865207075726368617365602082015250565b6000614528604083613749565b9150614533826144cc565b604082019050919050565b600060208201905081810360008301526145578161451b565b9050919050565b6000614569826137f0565b91507fffffffffffffffffffffffffffffffffffffffffffffffffffffffffffffffff820361459b5761459a6142ab565b5b600182019050919050565b600081905092915050565b50565b60006145c16000836145a6565b91506145cc826145b1565b600082019050919050565b60006145e2826145b4565b9150819050919050565b600081905092915050565b60006146028261373e565b61460c81856145ec565b935061461c81856020860161375a565b80840191505092915050565b600061463482856145f7565b915061464082846145f7565b91508190509392505050565b600061465882846145f7565b915081905092915050565b7f4f6e6c79206974656d206f776e65722063616e20706572666f726d207468697360008201527f206f7065726174696f6e00000000000000000000000000000000000000000000602082015250565b60006146bf602a83613749565b91506146ca82614663565b604082019050919050565b600060208201905081810360008301526146ee816146b2565b9050919050565b7f5072696365206d75737420626520657175616c20746f206c697374696e67207060008201527f7269636500000000000000000000000000000000000000000000000000000000602082015250565b6000614751602483613749565b915061475c826146f5565b604082019050919050565b6000602082019050818103600083015261478081614744565b9050919050565b6000614792826137f0565b9150600082036147a5576147a46142ab565b5b600182039050919050565b600081519050919050565b600082825260208201905092915050565b60006147d7826147b0565b6147e181856147bb565b93506147f181856020860161375a565b6147fa81613784565b840191505092915050565b600060808201905061481a6000830187613885565b6148276020830186613885565b6148346040830185613ad3565b818103606083015261484681846147cc565b905095945050505050565b600081519050614860816136af565b92915050565b60006020828403121561487c5761487b613679565b5b600061488a84828501614851565b91505092915050565b600060408201905081810360008301526148ad8185613795565b90506148bc6020830184613885565b9392505050565b600060408201905081810360008301526148dd8185613795565b90506148ec6020830184613ad3565b9392505050565b60008190508160005260206000209050919050565b60006020601f8301049050919050565b600082821b905092915050565b6000600883026149557fffffffffffffffffffffffffffffffffffffffffffffffffffffffffffffffff82614918565b61495f8683614918565b95508019841693508086168417925050509392505050565b6000819050919050565b600061499c614997614992846137f0565b614977565b6137f0565b9050919050565b6000819050919050565b6149b683614981565b6149ca6149c2826149a3565b848454614925565b825550505050565b600090565b6149df6149d2565b6149ea8184846149ad565b505050565b5b81811015614a0e57614a036000826149d7565b6001810190506149f0565b5050565b601f821115614a5357614a24816148f3565b614a2d84614908565b81016020851015614a3c578190505b614a50614a4885614908565b8301826149ef565b50505b505050565b600082821c905092915050565b6000614a7660001984600802614a58565b1980831691505092915050565b6000614a8f8383614a65565b9150826002028217905092915050565b614aa88261373e565b67ffffffffffffffff811115614ac157614ac0613c38565b5b614acb825461427a565b614ad6828285614a12565b600060209050601f831160018114614b095760008415614af7578287015190505b614b018582614a83565b865550614b69565b601f198416614b17866148f3565b60005b82811015614b3f57848901518255600182019150602085019450602081019050614b1a565b86831015614b5c5784890151614b58601f891682614a65565b8355505b6001600288020188555050505b505050505050565b7f5072696365206d757374206265206174206c6561737420312077656900000000600082015250565b6000614ba7601c83613749565b9150614bb282614b71565b602082019050919050565b60006020820190508181036000830152614bd681614b9a565b9050919050565b6000608082019050614bf26000830187613885565b614bff6020830186613885565b614c0c6040830185613ad3565b614c196060830184613714565b95945050505050565b6000604082019050614c376000830185613885565b614c446020830184613ad3565b9392505050565b7f4e487b7100000000000000000000000000000000000000000000000000000000600052601260045260246000fd5b7f4e487b7100000000000000000000000000000000000000000000000000000000600052605160045260246000fdfea2646970667358221220b095047e5532fe4da2c241f5cebeec44f18aafb2e87c7d8fe9dd54a9ac056e1164736f6c63430008180033",
  "linkReferences": {},
  "deployedLinkReferences": {}
}