{
  "_format": "hh-sol-artifact-1",
  "contractName": "NFTMarketPlace",
  "sourceName": "contracts/NFTMarketPlace.sol",
  "abi": [
    {
      "inputs": [],
      "stateMutability": "nonpayable",
      "type": "constructor"
    },
    {
      "inputs": [
        {
          "internalType": "address",
          "name": "sender",
          "type": "address"
        },
        {
          "internalType": "uint256",
          "name": "tokenId",
          "type": "uint256"
        },
        {
          "internalType": "address",
          "name": "owner",
          "type": "address"
        }
      ],
      "name": "ERC721IncorrectOwner",
      "type": "error"
    },
    {
      "inputs": [
        {
          "internalType": "address",
          "name": "operator",
          "type": "address"
        },
        {
          "internalType": "uint256",
          "name": "tokenId",
          "type": "uint256"
        }
      ],
      "name": "ERC721InsufficientApproval",
      "type": "error"
    },
    {
      "inputs": [
        {
          "internalType": "address",
          "name": "approver",
          "type": "address"
        }
      ],
      "name": "ERC721InvalidApprover",
      "type": "error"
    },
    {
      "inputs": [
        {
          "internalType": "address",
          "name": "operator",
          "type": "address"
        }
      ],
      "name": "ERC721InvalidOperator",
      "type": "error"
    },
    {
      "inputs": [
        {
          "internalType": "address",
          "name": "owner",
          "type": "address"
        }
      ],
      "name": "ERC721InvalidOwner",
      "type": "error"
    },
    {
      "inputs": [
        {
          "internalType": "address",
          "name": "receiver",
          "type": "address"
        }
      ],
      "name": "ERC721InvalidReceiver",
      "type": "error"
    },
    {
      "inputs": [
        {
          "internalType": "address",
          "name": "sender",
          "type": "address"
        }
      ],
      "name": "ERC721InvalidSender",
      "type": "error"
    },
    {
      "inputs": [
        {
          "internalType": "uint256",
          "name": "tokenId",
          "type": "uint256"
        }
      ],
      "name": "ERC721NonexistentToken",
      "type": "error"
    },
    {
      "anonymous": false,
      "inputs": [
        {
          "indexed": true,
          "internalType": "address",
          "name": "owner",
          "type": "address"
        },
        {
          "indexed": true,
          "internalType": "address",
          "name": "approved",
          "type": "address"
        },
        {
          "indexed": true,
          "internalType": "uint256",
          "name": "tokenId",
          "type": "uint256"
        }
      ],
      "name": "Approval",
      "type": "event"
    },
    {
      "anonymous": false,
      "inputs": [
        {
          "indexed": true,
          "internalType": "address",
          "name": "owner",
          "type": "address"
        },
        {
          "indexed": true,
          "internalType": "address",
          "name": "operator",
          "type": "address"
        },
        {
          "indexed": false,
          "internalType": "bool",
          "name": "approved",
          "type": "bool"
        }
      ],
      "name": "ApprovalForAll",
      "type": "event"
    },
    {
      "anonymous": false,
      "inputs": [
        {
          "indexed": false,
          "internalType": "uint256",
          "name": "_fromTokenId",
          "type": "uint256"
        },
        {
          "indexed": false,
          "internalType": "uint256",
          "name": "_toTokenId",
          "type": "uint256"
        }
      ],
      "name": "BatchMetadataUpdate",
      "type": "event"
    },
    {
      "anonymous": false,
      "inputs": [
        {
          "indexed": true,
          "internalType": "uint256",
          "name": "collectionId",
          "type": "uint256"
        },
        {
          "indexed": false,
          "internalType": "string",
          "name": "name",
          "type": "string"
        },
        {
          "indexed": false,
          "internalType": "string",
          "name": "description",
          "type": "string"
        },
        {
          "indexed": false,
          "internalType": "address",
          "name": "creator",
          "type": "address"
        }
      ],
      "name": "CollectionCreated",
      "type": "event"
    },
    {
      "anonymous": false,
      "inputs": [
        {
          "indexed": true,
          "internalType": "uint256",
          "name": "tokenId",
          "type": "uint256"
        },
        {
          "indexed": false,
          "internalType": "address",
          "name": "seller",
          "type": "address"
        },
        {
          "indexed": false,
          "internalType": "address",
          "name": "owner",
          "type": "address"
        },
        {
          "indexed": false,
          "internalType": "uint256",
          "name": "price",
          "type": "uint256"
        },
        {
          "indexed": false,
          "internalType": "bool",
          "name": "sold",
          "type": "bool"
        }
      ],
      "name": "MarketItemCreated",
      "type": "event"
    },
    {
      "anonymous": false,
      "inputs": [
        {
          "indexed": false,
          "internalType": "uint256",
          "name": "_tokenId",
          "type": "uint256"
        }
      ],
      "name": "MetadataUpdate",
      "type": "event"
    },
    {
      "anonymous": false,
      "inputs": [
        {
          "indexed": true,
          "internalType": "uint256",
          "name": "collectionId",
          "type": "uint256"
        },
        {
          "indexed": false,
          "internalType": "uint256",
          "name": "nftId",
          "type": "uint256"
        }
      ],
      "name": "NFTAddedToCollection",
      "type": "event"
    },
    {
      "anonymous": false,
      "inputs": [
        {
          "indexed": true,
          "internalType": "address",
          "name": "from",
          "type": "address"
        },
        {
          "indexed": true,
          "internalType": "address",
          "name": "to",
          "type": "address"
        },
        {
          "indexed": true,
          "internalType": "uint256",
          "name": "tokenId",
          "type": "uint256"
        }
      ],
      "name": "Transfer",
      "type": "event"
    },
    {
      "inputs": [
        {
          "internalType": "uint256",
          "name": "collectionId",
          "type": "uint256"
        },
        {
          "internalType": "uint256",
          "name": "nftId",
          "type": "uint256"
        }
      ],
      "name": "addToCollection",
      "outputs": [],
      "stateMutability": "nonpayable",
      "type": "function"
    },
    {
      "inputs": [
        {
          "internalType": "address",
          "name": "to",
          "type": "address"
        },
        {
          "internalType": "uint256",
          "name": "tokenId",
          "type": "uint256"
        }
      ],
      "name": "approve",
      "outputs": [],
      "stateMutability": "nonpayable",
      "type": "function"
    },
    {
      "inputs": [
        {
          "internalType": "address",
          "name": "owner",
          "type": "address"
        }
      ],
      "name": "balanceOf",
      "outputs": [
        {
          "internalType": "uint256",
          "name": "",
          "type": "uint256"
        }
      ],
      "stateMutability": "view",
      "type": "function"
    },
    {
      "inputs": [
        {
          "internalType": "uint256",
          "name": "",
          "type": "uint256"
        }
      ],
      "name": "collections",
      "outputs": [
        {
          "internalType": "string",
          "name": "name",
          "type": "string"
        },
        {
          "internalType": "string",
          "name": "description",
          "type": "string"
        },
        {
          "internalType": "address",
          "name": "creator",
          "type": "address"
        },
        {
          "internalType": "uint256",
          "name": "collectionId",
          "type": "uint256"
        }
      ],
      "stateMutability": "view",
      "type": "function"
    },
    {
      "inputs": [
        {
          "internalType": "string",
          "name": "name",
          "type": "string"
        },
        {
          "internalType": "string",
          "name": "description",
          "type": "string"
        }
      ],
      "name": "createCollection",
      "outputs": [],
      "stateMutability": "nonpayable",
      "type": "function"
    },
    {
      "inputs": [
        {
          "internalType": "uint256",
          "name": "tokenId",
          "type": "uint256"
        }
      ],
      "name": "createMarketSale",
      "outputs": [],
      "stateMutability": "payable",
      "type": "function"
    },
    {
      "inputs": [
        {
          "internalType": "string",
          "name": "tokenURI",
          "type": "string"
        },
        {
          "internalType": "uint256",
          "name": "price",
          "type": "uint256"
        },
        {
          "internalType": "string[]",
          "name": "traits",
          "type": "string[]"
        }
      ],
      "name": "createToken",
      "outputs": [
        {
          "internalType": "uint256",
          "name": "",
          "type": "uint256"
        }
      ],
      "stateMutability": "payable",
      "type": "function"
    },
    {
      "inputs": [],
      "name": "fetchItemsListed",
      "outputs": [
        {
          "components": [
            {
              "internalType": "uint256",
              "name": "tokenId",
              "type": "uint256"
            },
            {
              "internalType": "address payable",
              "name": "seller",
              "type": "address"
            },
            {
              "internalType": "address payable",
              "name": "owner",
              "type": "address"
            },
            {
              "internalType": "uint256",
              "name": "price",
              "type": "uint256"
            },
            {
              "internalType": "bool",
              "name": "sold",
              "type": "bool"
            }
          ],
          "internalType": "struct NFTMarketPlace.MarketItem[]",
          "name": "",
          "type": "tuple[]"
        }
      ],
      "stateMutability": "view",
      "type": "function"
    },
    {
      "inputs": [],
      "name": "fetchMarketItems",
      "outputs": [
        {
          "components": [
            {
              "internalType": "uint256",
              "name": "tokenId",
              "type": "uint256"
            },
            {
              "internalType": "address payable",
              "name": "seller",
              "type": "address"
            },
            {
              "internalType": "address payable",
              "name": "owner",
              "type": "address"
            },
            {
              "internalType": "uint256",
              "name": "price",
              "type": "uint256"
            },
            {
              "internalType": "bool",
              "name": "sold",
              "type": "bool"
            }
          ],
          "internalType": "struct NFTMarketPlace.MarketItem[]",
          "name": "",
          "type": "tuple[]"
        }
      ],
      "stateMutability": "view",
      "type": "function"
    },
    {
      "inputs": [],
      "name": "fetchMyNFTs",
      "outputs": [
        {
          "components": [
            {
              "internalType": "uint256",
              "name": "tokenId",
              "type": "uint256"
            },
            {
              "internalType": "address payable",
              "name": "seller",
              "type": "address"
            },
            {
              "internalType": "address payable",
              "name": "owner",
              "type": "address"
            },
            {
              "internalType": "uint256",
              "name": "price",
              "type": "uint256"
            },
            {
              "internalType": "bool",
              "name": "sold",
              "type": "bool"
            }
          ],
          "internalType": "struct NFTMarketPlace.MarketItem[]",
          "name": "",
          "type": "tuple[]"
        }
      ],
      "stateMutability": "view",
      "type": "function"
    },
    {
      "inputs": [],
      "name": "getAllCollections",
      "outputs": [
        {
          "components": [
            {
              "internalType": "string",
              "name": "name",
              "type": "string"
            },
            {
              "internalType": "string",
              "name": "description",
              "type": "string"
            },
            {
              "internalType": "address",
              "name": "creator",
              "type": "address"
            },
            {
              "internalType": "uint256[]",
              "name": "nftIds",
              "type": "uint256[]"
            },
            {
              "internalType": "uint256",
              "name": "collectionId",
              "type": "uint256"
            }
          ],
          "internalType": "struct NFTMarketPlace.Collection[]",
          "name": "",
          "type": "tuple[]"
        }
      ],
      "stateMutability": "view",
      "type": "function"
    },
    {
      "inputs": [
        {
          "internalType": "uint256",
          "name": "tokenId",
          "type": "uint256"
        }
      ],
      "name": "getApproved",
      "outputs": [
        {
          "internalType": "address",
          "name": "",
          "type": "address"
        }
      ],
      "stateMutability": "view",
      "type": "function"
    },
    {
      "inputs": [
        {
          "internalType": "uint256",
          "name": "collectionId",
          "type": "uint256"
        }
      ],
      "name": "getCollection",
      "outputs": [
        {
          "components": [
            {
              "internalType": "string",
              "name": "name",
              "type": "string"
            },
            {
              "internalType": "string",
              "name": "description",
              "type": "string"
            },
            {
              "internalType": "address",
              "name": "creator",
              "type": "address"
            },
            {
              "internalType": "uint256[]",
              "name": "nftIds",
              "type": "uint256[]"
            },
            {
              "internalType": "uint256",
              "name": "collectionId",
              "type": "uint256"
            }
          ],
          "internalType": "struct NFTMarketPlace.Collection",
          "name": "",
          "type": "tuple"
        }
      ],
      "stateMutability": "view",
      "type": "function"
    },
    {
      "inputs": [],
      "name": "getListingPrice",
      "outputs": [
        {
          "internalType": "uint256",
          "name": "",
          "type": "uint256"
        }
      ],
      "stateMutability": "view",
      "type": "function"
    },
    {
      "inputs": [
        {
          "internalType": "uint256",
          "name": "tokenId",
          "type": "uint256"
        }
      ],
      "name": "getMarketItem",
      "outputs": [
        {
          "components": [
            {
              "internalType": "uint256",
              "name": "tokenId",
              "type": "uint256"
            },
            {
              "internalType": "address payable",
              "name": "seller",
              "type": "address"
            },
            {
              "internalType": "address payable",
              "name": "owner",
              "type": "address"
            },
            {
              "internalType": "uint256",
              "name": "price",
              "type": "uint256"
            },
            {
              "internalType": "bool",
              "name": "sold",
              "type": "bool"
            }
          ],
          "internalType": "struct NFTMarketPlace.MarketItem",
          "name": "",
          "type": "tuple"
        }
      ],
      "stateMutability": "view",
      "type": "function"
    },
    {
      "inputs": [],
      "name": "getMyCollections",
      "outputs": [
        {
          "components": [
            {
              "internalType": "string",
              "name": "name",
              "type": "string"
            },
            {
              "internalType": "string",
              "name": "description",
              "type": "string"
            },
            {
              "internalType": "address",
              "name": "creator",
              "type": "address"
            },
            {
              "internalType": "uint256[]",
              "name": "nftIds",
              "type": "uint256[]"
            },
            {
              "internalType": "uint256",
              "name": "collectionId",
              "type": "uint256"
            }
          ],
          "internalType": "struct NFTMarketPlace.Collection[]",
          "name": "",
          "type": "tuple[]"
        }
      ],
      "stateMutability": "view",
      "type": "function"
    },
    {
      "inputs": [
        {
          "internalType": "uint256",
          "name": "collectionId",
          "type": "uint256"
        }
      ],
      "name": "getNFTsInCollection",
      "outputs": [
        {
          "internalType": "uint256[]",
          "name": "",
          "type": "uint256[]"
        }
      ],
      "stateMutability": "view",
      "type": "function"
    },
    {
      "inputs": [
        {
          "internalType": "uint256",
          "name": "tokenId",
          "type": "uint256"
        }
      ],
      "name": "getTraits",
      "outputs": [
        {
          "internalType": "string[]",
          "name": "",
          "type": "string[]"
        }
      ],
      "stateMutability": "view",
      "type": "function"
    },
    {
      "inputs": [
        {
          "internalType": "uint256",
          "name": "",
          "type": "uint256"
        }
      ],
      "name": "idToMarketItem",
      "outputs": [
        {
          "internalType": "uint256",
          "name": "tokenId",
          "type": "uint256"
        },
        {
          "internalType": "address payable",
          "name": "seller",
          "type": "address"
        },
        {
          "internalType": "address payable",
          "name": "owner",
          "type": "address"
        },
        {
          "internalType": "uint256",
          "name": "price",
          "type": "uint256"
        },
        {
          "internalType": "bool",
          "name": "sold",
          "type": "bool"
        }
      ],
      "stateMutability": "view",
      "type": "function"
    },
    {
      "inputs": [
        {
          "internalType": "address",
          "name": "owner",
          "type": "address"
        },
        {
          "internalType": "address",
          "name": "operator",
          "type": "address"
        }
      ],
      "name": "isApprovedForAll",
      "outputs": [
        {
          "internalType": "bool",
          "name": "",
          "type": "bool"
        }
      ],
      "stateMutability": "view",
      "type": "function"
    },
    {
      "inputs": [],
      "name": "name",
      "outputs": [
        {
          "internalType": "string",
          "name": "",
          "type": "string"
        }
      ],
      "stateMutability": "view",
      "type": "function"
    },
    {
      "inputs": [
        {
          "internalType": "uint256",
          "name": "tokenId",
          "type": "uint256"
        }
      ],
      "name": "ownerOf",
      "outputs": [
        {
          "internalType": "address",
          "name": "",
          "type": "address"
        }
      ],
      "stateMutability": "view",
      "type": "function"
    },
    {
      "inputs": [
        {
          "internalType": "uint256",
          "name": "tokenId",
          "type": "uint256"
        },
        {
          "internalType": "uint256",
          "name": "price",
          "type": "uint256"
        }
      ],
      "name": "resellToken",
      "outputs": [],
      "stateMutability": "payable",
      "type": "function"
    },
    {
      "inputs": [
        {
          "internalType": "address",
          "name": "from",
          "type": "address"
        },
        {
          "internalType": "address",
          "name": "to",
          "type": "address"
        },
        {
          "internalType": "uint256",
          "name": "tokenId",
          "type": "uint256"
        }
      ],
      "name": "safeTransferFrom",
      "outputs": [],
      "stateMutability": "nonpayable",
      "type": "function"
    },
    {
      "inputs": [
        {
          "internalType": "address",
          "name": "from",
          "type": "address"
        },
        {
          "internalType": "address",
          "name": "to",
          "type": "address"
        },
        {
          "internalType": "uint256",
          "name": "tokenId",
          "type": "uint256"
        },
        {
          "internalType": "bytes",
          "name": "data",
          "type": "bytes"
        }
      ],
      "name": "safeTransferFrom",
      "outputs": [],
      "stateMutability": "nonpayable",
      "type": "function"
    },
    {
      "inputs": [
        {
          "internalType": "address",
          "name": "operator",
          "type": "address"
        },
        {
          "internalType": "bool",
          "name": "approved",
          "type": "bool"
        }
      ],
      "name": "setApprovalForAll",
      "outputs": [],
      "stateMutability": "nonpayable",
      "type": "function"
    },
    {
      "inputs": [
        {
          "internalType": "bytes4",
          "name": "interfaceId",
          "type": "bytes4"
        }
      ],
      "name": "supportsInterface",
      "outputs": [
        {
          "internalType": "bool",
          "name": "",
          "type": "bool"
        }
      ],
      "stateMutability": "view",
      "type": "function"
    },
    {
      "inputs": [],
      "name": "symbol",
      "outputs": [
        {
          "internalType": "string",
          "name": "",
          "type": "string"
        }
      ],
      "stateMutability": "view",
      "type": "function"
    },
    {
      "inputs": [
        {
          "internalType": "uint256",
          "name": "",
          "type": "uint256"
        },
        {
          "internalType": "uint256",
          "name": "",
          "type": "uint256"
        }
      ],
      "name": "tokenTraits",
      "outputs": [
        {
          "internalType": "string",
          "name": "",
          "type": "string"
        }
      ],
      "stateMutability": "view",
      "type": "function"
    },
    {
      "inputs": [
        {
          "internalType": "uint256",
          "name": "tokenId",
          "type": "uint256"
        }
      ],
      "name": "tokenURI",
      "outputs": [
        {
          "internalType": "string",
          "name": "",
          "type": "string"
        }
      ],
      "stateMutability": "view",
      "type": "function"
    },
    {
      "inputs": [
        {
          "internalType": "address",
          "name": "from",
          "type": "address"
        },
        {
          "internalType": "address",
          "name": "to",
          "type": "address"
        },
        {
          "internalType": "uint256",
          "name": "tokenId",
          "type": "uint256"
        }
      ],
      "name": "transferFrom",
      "outputs": [],
      "stateMutability": "nonpayable",
      "type": "function"
    }
  ],
  "bytecode": "0x60806040526658d15e176280006009553480156200001c57600080fd5b506040518060400160405280601081526020017f4d657461766572736520546f6b656e73000000000000000000000000000000008152506040518060400160405280600481526020017f4d4554540000000000000000000000000000000000000000000000000000000081525081600090816200009a919062000370565b508060019081620000ac919062000370565b50505033600a60006101000a81548173ffffffffffffffffffffffffffffffffffffffff021916908373ffffffffffffffffffffffffffffffffffffffff16021790555062000457565b600081519050919050565b7f4e487b7100000000000000000000000000000000000000000000000000000000600052604160045260246000fd5b7f4e487b7100000000000000000000000000000000000000000000000000000000600052602260045260246000fd5b600060028204905060018216806200017857607f821691505b6020821081036200018e576200018d62000130565b5b50919050565b60008190508160005260206000209050919050565b60006020601f8301049050919050565b600082821b905092915050565b600060088302620001f87fffffffffffffffffffffffffffffffffffffffffffffffffffffffffffffffff82620001b9565b620002048683620001b9565b95508019841693508086168417925050509392505050565b6000819050919050565b6000819050919050565b6000620002516200024b62000245846200021c565b62000226565b6200021c565b9050919050565b6000819050919050565b6200026d8362000230565b620002856200027c8262000258565b848454620001c6565b825550505050565b600090565b6200029c6200028d565b620002a981848462000262565b505050565b5b81811015620002d157620002c560008262000292565b600181019050620002af565b5050565b601f8211156200032057620002ea8162000194565b620002f584620001a9565b8101602085101562000305578190505b6200031d6200031485620001a9565b830182620002ae565b50505b505050565b600082821c905092915050565b6000620003456000198460080262000325565b1980831691505092915050565b600062000360838362000332565b9150826002028217905092915050565b6200037b82620000f6565b67ffffffffffffffff81111562000397576200039662000101565b5b620003a382546200015f565b620003b0828285620002d5565b600060209050601f831160018114620003e85760008415620003d3578287015190505b620003df858262000352565b8655506200044f565b601f198416620003f88662000194565b60005b828110156200042257848901518255600182019150602085019450602081019050620003fb565b868310156200044257848901516200043e601f89168262000332565b8355505b6001600288020188555050505b505050505050565b615dca80620004676000396000f3fe6080604052600436106101d85760003560e01c806370a0823111610102578063d256286d11610095578063e61a70c011610064578063e61a70c0146106f5578063e985e9c514610736578063f4118d6314610773578063fdbda0ec1461079c576101d8565b8063d256286d14610641578063d610198014610671578063e1dc07611461069c578063e219fc75146106d9576101d8565b8063be9af536116100d1578063be9af5361461056e578063c7be7a491461058a578063c87b56dd146105c7578063cae98f2b14610604576101d8565b806370a08231146104b457806395d89b41146104f1578063a22cb4651461051c578063b88d4fde14610545576101d8565b8063176b9b751161017a57806345f8fa801161014957806345f8fa80146103e45780635a1f3c281461040f5780636352211e1461044c5780636804a95814610489576101d8565b8063176b9b751461033e578063202e37401461036757806323b872dd1461039257806342842e0e146103bb576101d8565b806308e83f37116101b657806308e83f3714610282578063095ea7b3146102bf5780630f08efe0146102e857806312e8558514610313576101d8565b806301ffc9a7146101dd57806306fdde031461021a578063081812fc14610245575b600080fd5b3480156101e957600080fd5b5061020460048036038101906101ff9190614456565b6107dc565b604051610211919061449e565b60405180910390f35b34801561022657600080fd5b5061022f61083d565b60405161023c9190614549565b60405180910390f35b34801561025157600080fd5b5061026c600480360381019061026791906145a1565b6108cf565b604051610279919061460f565b60405180910390f35b34801561028e57600080fd5b506102a960048036038101906102a4919061462a565b6108eb565b6040516102b69190614549565b60405180910390f35b3480156102cb57600080fd5b506102e660048036038101906102e19190614696565b6109a4565b005b3480156102f457600080fd5b506102fd6109ba565b60405161030a919061482c565b60405180910390f35b34801561031f57600080fd5b50610328610c07565b604051610335919061485d565b60405180910390f35b34801561034a57600080fd5b50610365600480360381019061036091906149ad565b610c11565b005b34801561037357600080fd5b5061037c610db9565b604051610389919061482c565b60405180910390f35b34801561039e57600080fd5b506103b960048036038101906103b49190614a25565b611092565b005b3480156103c757600080fd5b506103e260048036038101906103dd9190614a25565b611194565b005b3480156103f057600080fd5b506103f96111b4565b604051610406919061482c565b60405180910390f35b34801561041b57600080fd5b50610436600480360381019061043191906145a1565b61148d565b6040516104439190614c04565b60405180910390f35b34801561045857600080fd5b50610473600480360381019061046e91906145a1565b6116db565b604051610480919061460f565b60405180910390f35b34801561049557600080fd5b5061049e6116ed565b6040516104ab9190614d6c565b60405180910390f35b3480156104c057600080fd5b506104db60048036038101906104d69190614d8e565b611998565b6040516104e8919061485d565b60405180910390f35b3480156104fd57600080fd5b50610506611a52565b6040516105139190614549565b60405180910390f35b34801561052857600080fd5b50610543600480360381019061053e9190614de7565b611ae4565b005b34801561055157600080fd5b5061056c60048036038101906105679190614ec8565b611afa565b005b610588600480360381019061058391906145a1565b611b17565b005b34801561059657600080fd5b506105b160048036038101906105ac91906145a1565b611e48565b6040516105be9190614fb3565b60405180910390f35b3480156105d357600080fd5b506105ee60048036038101906105e991906145a1565b611f50565b6040516105fb9190614549565b60405180910390f35b34801561061057600080fd5b5061062b600480360381019061062691906145a1565b612063565b604051610638919061503d565b60405180910390f35b61065b60048036038101906106569190615145565b612116565b604051610668919061485d565b60405180910390f35b34801561067d57600080fd5b50610686612188565b6040516106939190614d6c565b60405180910390f35b3480156106a857600080fd5b506106c360048036038101906106be91906145a1565b61253d565b6040516106d09190615292565b60405180910390f35b6106f360048036038101906106ee919061462a565b612718565b005b34801561070157600080fd5b5061071c600480360381019061071791906145a1565b61291b565b60405161072d9594939291906152c3565b60405180910390f35b34801561074257600080fd5b5061075d60048036038101906107589190615316565b61299e565b60405161076a919061449e565b60405180910390f35b34801561077f57600080fd5b5061079a6004803603810190610795919061462a565b612a32565b005b3480156107a857600080fd5b506107c360048036038101906107be91906145a1565b612af0565b6040516107d39493929190615356565b60405180910390f35b6000634906490660e01b7bffffffffffffffffffffffffffffffffffffffffffffffffffffffff1916827bffffffffffffffffffffffffffffffffffffffffffffffffffffffff19161480610836575061083582612c50565b5b9050919050565b60606000805461084c906153d8565b80601f0160208091040260200160405190810160405280929190818152602001828054610878906153d8565b80156108c55780601f1061089a576101008083540402835291602001916108c5565b820191906000526020600020905b8154815290600101906020018083116108a857829003601f168201915b5050505050905090565b60006108da82612d32565b506108e482612dba565b9050919050565b600c602052816000526040600020818154811061090757600080fd5b90600052602060002001600091509150508054610923906153d8565b80601f016020809104026020016040519081016040528092919081815260200182805461094f906153d8565b801561099c5780601f106109715761010080835404028352916020019161099c565b820191906000526020600020905b81548152906001019060200180831161097f57829003601f168201915b505050505081565b6109b682826109b1612df7565b612dff565b5050565b60606000600754905060006008546007546109d59190615438565b90506000808267ffffffffffffffff8111156109f4576109f3614882565b5b604051908082528060200260200182016040528015610a2d57816020015b610a1a614217565b815260200190600190039081610a125790505b50905060005b84811015610bfc573073ffffffffffffffffffffffffffffffffffffffff16600b6000600184610a63919061546c565b815260200190815260200160002060020160009054906101000a900473ffffffffffffffffffffffffffffffffffffffff1673ffffffffffffffffffffffffffffffffffffffff1603610bef576000600182610abf919061546c565b90506000600b60008381526020019081526020016000209050806040518060a0016040529081600082015481526020016001820160009054906101000a900473ffffffffffffffffffffffffffffffffffffffff1673ffffffffffffffffffffffffffffffffffffffff1673ffffffffffffffffffffffffffffffffffffffff1681526020016002820160009054906101000a900473ffffffffffffffffffffffffffffffffffffffff1673ffffffffffffffffffffffffffffffffffffffff1673ffffffffffffffffffffffffffffffffffffffff168152602001600382015481526020016004820160009054906101000a900460ff161515151581525050848681518110610bd257610bd16154a0565b5b6020026020010181905250600185610bea919061546c565b945050505b8080600101915050610a33565b508094505050505090565b6000600954905090565b60006001600e54610c22919061546c565b905060006040518060a001604052808581526020018481526020013373ffffffffffffffffffffffffffffffffffffffff168152602001600067ffffffffffffffff811115610c7457610c73614882565b5b604051908082528060200260200182016040528015610ca25781602001602082028036833780820191505090505b50815260200183815250905080600d60008481526020019081526020016000206000820151816000019081610cd7919061567b565b506020820151816001019081610ced919061567b565b5060408201518160020160006101000a81548173ffffffffffffffffffffffffffffffffffffffff021916908373ffffffffffffffffffffffffffffffffffffffff1602179055506060820151816003019080519060200190610d51929190614274565b5060808201518160040155905050817f4c3e0b39635573f57a29aab3621210950392a4f2a518980a5b883c37cf35dbbe858533604051610d939392919061574d565b60405180910390a2600e6000815480929190610dae90615792565b919050555050505050565b60606000600754905060008060005b83811015610e62573373ffffffffffffffffffffffffffffffffffffffff16600b6000600184610df8919061546c565b815260200190815260200160002060020160009054906101000a900473ffffffffffffffffffffffffffffffffffffffff1673ffffffffffffffffffffffffffffffffffffffff1603610e5557600183610e52919061546c565b92505b8080600101915050610dc8565b5060008267ffffffffffffffff811115610e7f57610e7e614882565b5b604051908082528060200260200182016040528015610eb857816020015b610ea5614217565b815260200190600190039081610e9d5790505b50905060005b84811015611087573373ffffffffffffffffffffffffffffffffffffffff16600b6000600184610eee919061546c565b815260200190815260200160002060020160009054906101000a900473ffffffffffffffffffffffffffffffffffffffff1673ffffffffffffffffffffffffffffffffffffffff160361107a576000600182610f4a919061546c565b90506000600b60008381526020019081526020016000209050806040518060a0016040529081600082015481526020016001820160009054906101000a900473ffffffffffffffffffffffffffffffffffffffff1673ffffffffffffffffffffffffffffffffffffffff1673ffffffffffffffffffffffffffffffffffffffff1681526020016002820160009054906101000a900473ffffffffffffffffffffffffffffffffffffffff1673ffffffffffffffffffffffffffffffffffffffff1673ffffffffffffffffffffffffffffffffffffffff168152602001600382015481526020016004820160009054906101000a900460ff16151515158152505084868151811061105d5761105c6154a0565b5b6020026020010181905250600185611075919061546c565b945050505b8080600101915050610ebe565b508094505050505090565b600073ffffffffffffffffffffffffffffffffffffffff168273ffffffffffffffffffffffffffffffffffffffff16036111045760006040517f64a0ae920000000000000000000000000000000000000000000000000000000081526004016110fb919061460f565b60405180910390fd5b60006111188383611113612df7565b612e11565b90508373ffffffffffffffffffffffffffffffffffffffff168173ffffffffffffffffffffffffffffffffffffffff161461118e578382826040517f64283d7b000000000000000000000000000000000000000000000000000000008152600401611185939291906157da565b60405180910390fd5b50505050565b6111af83838360405180602001604052806000815250611afa565b505050565b60606000600754905060008060005b8381101561125d573373ffffffffffffffffffffffffffffffffffffffff16600b60006001846111f3919061546c565b815260200190815260200160002060010160009054906101000a900473ffffffffffffffffffffffffffffffffffffffff1673ffffffffffffffffffffffffffffffffffffffff16036112505760018361124d919061546c565b92505b80806001019150506111c3565b5060008267ffffffffffffffff81111561127a57611279614882565b5b6040519080825280602002602001820160405280156112b357816020015b6112a0614217565b8152602001906001900390816112985790505b50905060005b84811015611482573373ffffffffffffffffffffffffffffffffffffffff16600b60006001846112e9919061546c565b815260200190815260200160002060010160009054906101000a900473ffffffffffffffffffffffffffffffffffffffff1673ffffffffffffffffffffffffffffffffffffffff1603611475576000600182611345919061546c565b90506000600b60008381526020019081526020016000209050806040518060a0016040529081600082015481526020016001820160009054906101000a900473ffffffffffffffffffffffffffffffffffffffff1673ffffffffffffffffffffffffffffffffffffffff1673ffffffffffffffffffffffffffffffffffffffff1681526020016002820160009054906101000a900473ffffffffffffffffffffffffffffffffffffffff1673ffffffffffffffffffffffffffffffffffffffff1673ffffffffffffffffffffffffffffffffffffffff168152602001600382015481526020016004820160009054906101000a900460ff161515151581525050848681518110611458576114576154a0565b5b6020026020010181905250600185611470919061546c565b945050505b80806001019150506112b9565b508094505050505090565b6114956142c1565b600e548211156114da576040517f08c379a00000000000000000000000000000000000000000000000000000000081526004016114d19061585d565b60405180910390fd5b600d60008381526020019081526020016000206040518060a0016040529081600082018054611508906153d8565b80601f0160208091040260200160405190810160405280929190818152602001828054611534906153d8565b80156115815780601f1061155657610100808354040283529160200191611581565b820191906000526020600020905b81548152906001019060200180831161156457829003601f168201915b5050505050815260200160018201805461159a906153d8565b80601f01602080910402602001604051908101604052809291908181526020018280546115c6906153d8565b80156116135780601f106115e857610100808354040283529160200191611613565b820191906000526020600020905b8154815290600101906020018083116115f657829003601f168201915b505050505081526020016002820160009054906101000a900473ffffffffffffffffffffffffffffffffffffffff1673ffffffffffffffffffffffffffffffffffffffff1673ffffffffffffffffffffffffffffffffffffffff168152602001600382018054806020026020016040519081016040528092919081815260200182805480156116c157602002820191906000526020600020905b8154815260200190600101908083116116ad575b505050505081526020016004820154815250509050919050565b60006116e682612d32565b9050919050565b60606000600e5467ffffffffffffffff81111561170d5761170c614882565b5b60405190808252806020026020018201604052801561174657816020015b6117336142c1565b81526020019060019003908161172b5790505b5090506000600190505b600e54811161199057600d60008281526020019081526020016000206040518060a0016040529081600082018054611787906153d8565b80601f01602080910402602001604051908101604052809291908181526020018280546117b3906153d8565b80156118005780601f106117d557610100808354040283529160200191611800565b820191906000526020600020905b8154815290600101906020018083116117e357829003601f168201915b50505050508152602001600182018054611819906153d8565b80601f0160208091040260200160405190810160405280929190818152602001828054611845906153d8565b80156118925780601f1061186757610100808354040283529160200191611892565b820191906000526020600020905b81548152906001019060200180831161187557829003601f168201915b505050505081526020016002820160009054906101000a900473ffffffffffffffffffffffffffffffffffffffff1673ffffffffffffffffffffffffffffffffffffffff1673ffffffffffffffffffffffffffffffffffffffff1681526020016003820180548060200260200160405190810160405280929190818152602001828054801561194057602002820191906000526020600020905b81548152602001906001019080831161192c575b50505050508152602001600482015481525050826001836119619190615438565b81518110611972576119716154a0565b5b6020026020010181905250808061198890615792565b915050611750565b508091505090565b60008073ffffffffffffffffffffffffffffffffffffffff168273ffffffffffffffffffffffffffffffffffffffff1603611a0b5760006040517f89c62b64000000000000000000000000000000000000000000000000000000008152600401611a02919061460f565b60405180910390fd5b600360008373ffffffffffffffffffffffffffffffffffffffff1673ffffffffffffffffffffffffffffffffffffffff168152602001908152602001600020549050919050565b606060018054611a61906153d8565b80601f0160208091040260200160405190810160405280929190818152602001828054611a8d906153d8565b8015611ada5780601f10611aaf57610100808354040283529160200191611ada565b820191906000526020600020905b815481529060010190602001808311611abd57829003601f168201915b5050505050905090565b611af6611aef612df7565b838361302b565b5050565b611b05848484611092565b611b118484848461319a565b50505050565b611b2033613351565b611b29346133ea565b6000600b60008381526020019081526020016000206003015490506000600b600084815260200190815260200160002060010160009054906101000a900473ffffffffffffffffffffffffffffffffffffffff169050611b88826133ea565b813414611bca576040517f08c379a0000000000000000000000000000000000000000000000000000000008152600401611bc1906158ef565b60405180910390fd5b33600b600085815260200190815260200160002060020160006101000a81548173ffffffffffffffffffffffffffffffffffffffff021916908373ffffffffffffffffffffffffffffffffffffffff1602179055506001600b600085815260200190815260200160002060040160006101000a81548160ff0219169083151502179055506000600b600085815260200190815260200160002060010160006101000a81548173ffffffffffffffffffffffffffffffffffffffff021916908373ffffffffffffffffffffffffffffffffffffffff16021790555060086000815480929190611cb790615792565b9190505550611cc7303385613483565b6000600a60009054906101000a900473ffffffffffffffffffffffffffffffffffffffff1673ffffffffffffffffffffffffffffffffffffffff16600954604051611d1190615940565b60006040518083038185875af1925050503d8060008114611d4e576040519150601f19603f3d011682016040523d82523d6000602084013e611d53565b606091505b50509050611d966040518060400160405280600681526020017f73656c6c65720000000000000000000000000000000000000000000000000000815250836135f0565b611dd56040518060400160405280600981526020017f6d73672e76616c756500000000000000000000000000000000000000000000008152503461368c565b60008273ffffffffffffffffffffffffffffffffffffffff1634604051611dfb90615940565b60006040518083038185875af1925050503d8060008114611e38576040519150601f19603f3d011682016040523d82523d6000602084013e611e3d565b606091505b505090505050505050565b611e50614217565b600b60008381526020019081526020016000206040518060a0016040529081600082015481526020016001820160009054906101000a900473ffffffffffffffffffffffffffffffffffffffff1673ffffffffffffffffffffffffffffffffffffffff1673ffffffffffffffffffffffffffffffffffffffff1681526020016002820160009054906101000a900473ffffffffffffffffffffffffffffffffffffffff1673ffffffffffffffffffffffffffffffffffffffff1673ffffffffffffffffffffffffffffffffffffffff168152602001600382015481526020016004820160009054906101000a900460ff1615151515815250509050919050565b6060611f5b82612d32565b506000600660008481526020019081526020016000208054611f7c906153d8565b80601f0160208091040260200160405190810160405280929190818152602001828054611fa8906153d8565b8015611ff55780601f10611fca57610100808354040283529160200191611ff5565b820191906000526020600020905b815481529060010190602001808311611fd857829003601f168201915b505050505090506000612006613728565b9050600081510361201b57819250505061205e565b600082511115612050578082604051602001612038929190615991565b6040516020818303038152906040529250505061205e565b6120598461373f565b925050505b919050565b6060600e548211156120aa576040517f08c379a00000000000000000000000000000000000000000000000000000000081526004016120a19061585d565b60405180910390fd5b600d600083815260200190815260200160002060030180548060200260200160405190810160405280929190818152602001828054801561210a57602002820191906000526020600020905b8154815260200190600101908083116120f6575b50505050509050919050565b60006007600081548092919061212b90615792565b91905055506000600754905061214133826137a8565b82600c60008381526020019081526020016000209080519060200190612168929190614306565b5061217381866138a1565b61217d81856138fd565b809150509392505050565b6060600080600190505b600e548111612226573373ffffffffffffffffffffffffffffffffffffffff16600d600083815260200190815260200160002060020160009054906101000a900473ffffffffffffffffffffffffffffffffffffffff1673ffffffffffffffffffffffffffffffffffffffff160361221357818061220f90615792565b9250505b808061221e90615792565b915050612192565b5060008167ffffffffffffffff81111561224357612242614882565b5b60405190808252806020026020018201604052801561227c57816020015b6122696142c1565b8152602001906001900390816122615790505b509050600080600190505b600e548111612533573373ffffffffffffffffffffffffffffffffffffffff16600d600083815260200190815260200160002060020160009054906101000a900473ffffffffffffffffffffffffffffffffffffffff1673ffffffffffffffffffffffffffffffffffffffff160361252057600d60008281526020019081526020016000206040518060a0016040529081600082018054612327906153d8565b80601f0160208091040260200160405190810160405280929190818152602001828054612353906153d8565b80156123a05780601f10612375576101008083540402835291602001916123a0565b820191906000526020600020905b81548152906001019060200180831161238357829003601f168201915b505050505081526020016001820180546123b9906153d8565b80601f01602080910402602001604051908101604052809291908181526020018280546123e5906153d8565b80156124325780601f1061240757610100808354040283529160200191612432565b820191906000526020600020905b81548152906001019060200180831161241557829003601f168201915b505050505081526020016002820160009054906101000a900473ffffffffffffffffffffffffffffffffffffffff1673ffffffffffffffffffffffffffffffffffffffff1673ffffffffffffffffffffffffffffffffffffffff168152602001600382018054806020026020016040519081016040528092919081815260200182805480156124e057602002820191906000526020600020905b8154815260200190600101908083116124cc575b50505050508152602001600482015481525050838381518110612506576125056154a0565b5b6020026020010181905250818061251c90615792565b9250505b808061252b90615792565b915050612287565b5081935050505090565b60606000600c6000848152602001908152602001600020805480602002602001604051908101604052809291908181526020016000905b82821015612620578382906000526020600020018054612593906153d8565b80601f01602080910402602001604051908101604052809291908181526020018280546125bf906153d8565b801561260c5780601f106125e15761010080835404028352916020019161260c565b820191906000526020600020905b8154815290600101906020018083116125ef57829003601f168201915b505050505081526020019060010190612574565b5050505090506000815167ffffffffffffffff81111561264357612642614882565b5b60405190808252806020026020018201604052801561267657816020015b60608152602001906001900390816126615790505b50905060005b825181101561270d57828181518110612698576126976154a0565b5b60200260200101516040516020016126b091906159b5565b6040516020818303038152906040528282815181106126d2576126d16154a0565b5b60200260200101819052506127008282815181106126f3576126f26154a0565b5b6020026020010151613b26565b808060010191505061267c565b508092505050919050565b3373ffffffffffffffffffffffffffffffffffffffff16600b600084815260200190815260200160002060020160009054906101000a900473ffffffffffffffffffffffffffffffffffffffff1673ffffffffffffffffffffffffffffffffffffffff16146127bc576040517f08c379a00000000000000000000000000000000000000000000000000000000081526004016127b390615a3e565b60405180910390fd5b6009543414612800576040517f08c379a00000000000000000000000000000000000000000000000000000000081526004016127f790615ad0565b60405180910390fd5b6000600b600084815260200190815260200160002060040160006101000a81548160ff02191690831515021790555080600b60008481526020019081526020016000206003018190555033600b600084815260200190815260200160002060010160006101000a81548173ffffffffffffffffffffffffffffffffffffffff021916908373ffffffffffffffffffffffffffffffffffffffff16021790555030600b600084815260200190815260200160002060020160006101000a81548173ffffffffffffffffffffffffffffffffffffffff021916908373ffffffffffffffffffffffffffffffffffffffff1602179055506008600081548092919061290790615af0565b9190505550612917333084613483565b5050565b600b6020528060005260406000206000915090508060000154908060010160009054906101000a900473ffffffffffffffffffffffffffffffffffffffff16908060020160009054906101000a900473ffffffffffffffffffffffffffffffffffffffff16908060030154908060040160009054906101000a900460ff16905085565b6000600560008473ffffffffffffffffffffffffffffffffffffffff1673ffffffffffffffffffffffffffffffffffffffff16815260200190815260200160002060008373ffffffffffffffffffffffffffffffffffffffff1673ffffffffffffffffffffffffffffffffffffffff16815260200190815260200160002060009054906101000a900460ff16905092915050565b600e54821115612a77576040517f08c379a0000000000000000000000000000000000000000000000000000000008152600401612a6e9061585d565b60405180910390fd5b600d6000838152602001908152602001600020600301819080600181540180825580915050600190039060005260206000200160009091909190915055817f3b3f4a0879adb468f95af56c9da744059b4df6c7189edae9d2ddb821161c4d1c82604051612ae4919061485d565b60405180910390a25050565b600d602052806000526040600020600091509050806000018054612b13906153d8565b80601f0160208091040260200160405190810160405280929190818152602001828054612b3f906153d8565b8015612b8c5780601f10612b6157610100808354040283529160200191612b8c565b820191906000526020600020905b815481529060010190602001808311612b6f57829003601f168201915b505050505090806001018054612ba1906153d8565b80601f0160208091040260200160405190810160405280929190818152602001828054612bcd906153d8565b8015612c1a5780601f10612bef57610100808354040283529160200191612c1a565b820191906000526020600020905b815481529060010190602001808311612bfd57829003601f168201915b5050505050908060020160009054906101000a900473ffffffffffffffffffffffffffffffffffffffff16908060040154905084565b60007f80ac58cd000000000000000000000000000000000000000000000000000000007bffffffffffffffffffffffffffffffffffffffffffffffffffffffff1916827bffffffffffffffffffffffffffffffffffffffffffffffffffffffff19161480612d1b57507f5b5e139f000000000000000000000000000000000000000000000000000000007bffffffffffffffffffffffffffffffffffffffffffffffffffffffff1916827bffffffffffffffffffffffffffffffffffffffffffffffffffffffff1916145b80612d2b5750612d2a82613bbf565b5b9050919050565b600080612d3e83613c29565b9050600073ffffffffffffffffffffffffffffffffffffffff168173ffffffffffffffffffffffffffffffffffffffff1603612db157826040517f7e273289000000000000000000000000000000000000000000000000000000008152600401612da8919061485d565b60405180910390fd5b80915050919050565b60006004600083815260200190815260200160002060009054906101000a900473ffffffffffffffffffffffffffffffffffffffff169050919050565b600033905090565b612e0c8383836001613c66565b505050565b600080612e1d84613c29565b9050600073ffffffffffffffffffffffffffffffffffffffff168373ffffffffffffffffffffffffffffffffffffffff1614612e5f57612e5e818486613e2b565b5b600073ffffffffffffffffffffffffffffffffffffffff168173ffffffffffffffffffffffffffffffffffffffff1614612ef057612ea1600085600080613c66565b6001600360008373ffffffffffffffffffffffffffffffffffffffff1673ffffffffffffffffffffffffffffffffffffffff168152602001908152602001600020600082825403925050819055505b600073ffffffffffffffffffffffffffffffffffffffff168573ffffffffffffffffffffffffffffffffffffffff1614612f73576001600360008773ffffffffffffffffffffffffffffffffffffffff1673ffffffffffffffffffffffffffffffffffffffff168152602001908152602001600020600082825401925050819055505b846002600086815260200190815260200160002060006101000a81548173ffffffffffffffffffffffffffffffffffffffff021916908373ffffffffffffffffffffffffffffffffffffffff160217905550838573ffffffffffffffffffffffffffffffffffffffff168273ffffffffffffffffffffffffffffffffffffffff167fddf252ad1be2c89b69c2b068fc378daa952ba7f163c4a11628f55a4df523b3ef60405160405180910390a4809150509392505050565b600073ffffffffffffffffffffffffffffffffffffffff168273ffffffffffffffffffffffffffffffffffffffff160361309c57816040517f5b08ba18000000000000000000000000000000000000000000000000000000008152600401613093919061460f565b60405180910390fd5b80600560008573ffffffffffffffffffffffffffffffffffffffff1673ffffffffffffffffffffffffffffffffffffffff16815260200190815260200160002060008473ffffffffffffffffffffffffffffffffffffffff1673ffffffffffffffffffffffffffffffffffffffff16815260200190815260200160002060006101000a81548160ff0219169083151502179055508173ffffffffffffffffffffffffffffffffffffffff168373ffffffffffffffffffffffffffffffffffffffff167f17307eab39ab6107e8899845ad3d59bd9653f200f220920489ca2b5937696c318360405161318d919061449e565b60405180910390a3505050565b60008373ffffffffffffffffffffffffffffffffffffffff163b111561334b578273ffffffffffffffffffffffffffffffffffffffff1663150b7a026131de612df7565b8685856040518563ffffffff1660e01b81526004016132009493929190615b6e565b6020604051808303816000875af192505050801561323c57506040513d601f19601f820116820180604052508101906132399190615bcf565b60015b6132c0573d806000811461326c576040519150601f19603f3d011682016040523d82523d6000602084013e613271565b606091505b5060008151036132b857836040517f64a0ae920000000000000000000000000000000000000000000000000000000081526004016132af919061460f565b60405180910390fd5b805181602001fd5b63150b7a0260e01b7bffffffffffffffffffffffffffffffffffffffffffffffffffffffff1916817bffffffffffffffffffffffffffffffffffffffffffffffffffffffff19161461334957836040517f64a0ae92000000000000000000000000000000000000000000000000000000008152600401613340919061460f565b60405180910390fd5b505b50505050565b6133e781604051602401613365919061460f565b6040516020818303038152906040527f2c2ecbc2000000000000000000000000000000000000000000000000000000007bffffffffffffffffffffffffffffffffffffffffffffffffffffffff19166020820180517bffffffffffffffffffffffffffffffffffffffffffffffffffffffff8381831617835250505050613eef565b50565b613480816040516024016133fe919061485d565b6040516020818303038152906040527ff82c50f1000000000000000000000000000000000000000000000000000000007bffffffffffffffffffffffffffffffffffffffffffffffffffffffff19166020820180517bffffffffffffffffffffffffffffffffffffffffffffffffffffffff8381831617835250505050613eef565b50565b600073ffffffffffffffffffffffffffffffffffffffff168273ffffffffffffffffffffffffffffffffffffffff16036134f55760006040517f64a0ae920000000000000000000000000000000000000000000000000000000081526004016134ec919061460f565b60405180910390fd5b600061350383836000612e11565b9050600073ffffffffffffffffffffffffffffffffffffffff168173ffffffffffffffffffffffffffffffffffffffff160361357657816040517f7e27328900000000000000000000000000000000000000000000000000000000815260040161356d919061485d565b60405180910390fd5b8373ffffffffffffffffffffffffffffffffffffffff168173ffffffffffffffffffffffffffffffffffffffff16146135ea578382826040517f64283d7b0000000000000000000000000000000000000000000000000000000081526004016135e1939291906157da565b60405180910390fd5b50505050565b6136888282604051602401613606929190615bfc565b6040516020818303038152906040527f319af333000000000000000000000000000000000000000000000000000000007bffffffffffffffffffffffffffffffffffffffffffffffffffffffff19166020820180517bffffffffffffffffffffffffffffffffffffffffffffffffffffffff8381831617835250505050613eef565b5050565b61372482826040516024016136a2929190615c2c565b6040516020818303038152906040527fb60e72cc000000000000000000000000000000000000000000000000000000007bffffffffffffffffffffffffffffffffffffffffffffffffffffffff19166020820180517bffffffffffffffffffffffffffffffffffffffffffffffffffffffff8381831617835250505050613eef565b5050565b606060405180602001604052806000815250905090565b606061374a82612d32565b506000613755613728565b9050600081511161377557604051806020016040528060008152506137a0565b8061377f84613f09565b604051602001613790929190615991565b6040516020818303038152906040525b915050919050565b600073ffffffffffffffffffffffffffffffffffffffff168273ffffffffffffffffffffffffffffffffffffffff160361381a5760006040517f64a0ae92000000000000000000000000000000000000000000000000000000008152600401613811919061460f565b60405180910390fd5b600061382883836000612e11565b9050600073ffffffffffffffffffffffffffffffffffffffff168173ffffffffffffffffffffffffffffffffffffffff161461389c5760006040517f73c6ac6e000000000000000000000000000000000000000000000000000000008152600401613893919061460f565b60405180910390fd5b505050565b806006600084815260200190815260200160002090816138c1919061567b565b507ff8e1a15aba9398e019f0b49df1a4fde98ee17ae345cb5f6b5e2c27f5033e8ce7826040516138f1919061485d565b60405180910390a15050565b613906346133ea565b61390f33613351565b61391a6009546133ea565b61392330613351565b60008111613966576040517f08c379a000000000000000000000000000000000000000000000000000000000815260040161395d90615ca8565b60405180910390fd5b60095434146139aa576040517f08c379a00000000000000000000000000000000000000000000000000000000081526004016139a190615ad0565b60405180910390fd5b6040518060a001604052808381526020013373ffffffffffffffffffffffffffffffffffffffff1681526020013073ffffffffffffffffffffffffffffffffffffffff16815260200182815260200160001515815250600b60008481526020019081526020016000206000820151816000015560208201518160010160006101000a81548173ffffffffffffffffffffffffffffffffffffffff021916908373ffffffffffffffffffffffffffffffffffffffff16021790555060408201518160020160006101000a81548173ffffffffffffffffffffffffffffffffffffffff021916908373ffffffffffffffffffffffffffffffffffffffff1602179055506060820151816003015560808201518160040160006101000a81548160ff021916908315150217905550905050613ae3333084613483565b817fb640004f1d14576d0c209e240cad0410e0d8c0c33a09375861fbadae2588a98d3330846000604051613b1a9493929190615cc8565b60405180910390a25050565b613bbc81604051602401613b3a9190614549565b6040516020818303038152906040527f41304fac000000000000000000000000000000000000000000000000000000007bffffffffffffffffffffffffffffffffffffffffffffffffffffffff19166020820180517bffffffffffffffffffffffffffffffffffffffffffffffffffffffff8381831617835250505050613eef565b50565b60007f01ffc9a7000000000000000000000000000000000000000000000000000000007bffffffffffffffffffffffffffffffffffffffffffffffffffffffff1916827bffffffffffffffffffffffffffffffffffffffffffffffffffffffff1916149050919050565b60006002600083815260200190815260200160002060009054906101000a900473ffffffffffffffffffffffffffffffffffffffff169050919050565b8080613c9f5750600073ffffffffffffffffffffffffffffffffffffffff168273ffffffffffffffffffffffffffffffffffffffff1614155b15613dd3576000613caf84612d32565b9050600073ffffffffffffffffffffffffffffffffffffffff168373ffffffffffffffffffffffffffffffffffffffff1614158015613d1a57508273ffffffffffffffffffffffffffffffffffffffff168173ffffffffffffffffffffffffffffffffffffffff1614155b8015613d2d5750613d2b818461299e565b155b15613d6f57826040517fa9fbf51f000000000000000000000000000000000000000000000000000000008152600401613d66919061460f565b60405180910390fd5b8115613dd157838573ffffffffffffffffffffffffffffffffffffffff168273ffffffffffffffffffffffffffffffffffffffff167f8c5be1e5ebec7d5bd14f71427d1e84f3dd0314c0f7b2291e5b200ac8c7c3b92560405160405180910390a45b505b836004600085815260200190815260200160002060006101000a81548173ffffffffffffffffffffffffffffffffffffffff021916908373ffffffffffffffffffffffffffffffffffffffff16021790555050505050565b613e36838383613fd7565b613eea57600073ffffffffffffffffffffffffffffffffffffffff168373ffffffffffffffffffffffffffffffffffffffff1603613eab57806040517f7e273289000000000000000000000000000000000000000000000000000000008152600401613ea2919061485d565b60405180910390fd5b81816040517f177e802f000000000000000000000000000000000000000000000000000000008152600401613ee1929190615d0d565b60405180910390fd5b505050565b613f0681613efe6140986140b9565b63ffffffff16565b50565b606060006001613f18846140c4565b01905060008167ffffffffffffffff811115613f3757613f36614882565b5b6040519080825280601f01601f191660200182016040528015613f695781602001600182028036833780820191505090505b509050600082602001820190505b600115613fcc578080600190039150507f3031323334353637383961626364656600000000000000000000000000000000600a86061a8153600a8581613fc057613fbf615d36565b5b04945060008503613f77575b819350505050919050565b60008073ffffffffffffffffffffffffffffffffffffffff168373ffffffffffffffffffffffffffffffffffffffff161415801561408f57508273ffffffffffffffffffffffffffffffffffffffff168473ffffffffffffffffffffffffffffffffffffffff161480614050575061404f848461299e565b5b8061408e57508273ffffffffffffffffffffffffffffffffffffffff1661407683612dba565b73ffffffffffffffffffffffffffffffffffffffff16145b5b90509392505050565b60006a636f6e736f6c652e6c6f679050600080835160208501845afa505050565b61435f819050919050565b600080600090507a184f03e93ff9f4daa797ed6e38ed64bf6a1f0100000000000000008310614122577a184f03e93ff9f4daa797ed6e38ed64bf6a1f010000000000000000838161411857614117615d36565b5b0492506040810190505b6d04ee2d6d415b85acef8100000000831061415f576d04ee2d6d415b85acef8100000000838161415557614154615d36565b5b0492506020810190505b662386f26fc10000831061418e57662386f26fc10000838161418457614183615d36565b5b0492506010810190505b6305f5e10083106141b7576305f5e10083816141ad576141ac615d36565b5b0492506008810190505b61271083106141dc5761271083816141d2576141d1615d36565b5b0492506004810190505b606483106141ff57606483816141f5576141f4615d36565b5b0492506002810190505b600a831061420e576001810190505b80915050919050565b6040518060a0016040528060008152602001600073ffffffffffffffffffffffffffffffffffffffff168152602001600073ffffffffffffffffffffffffffffffffffffffff168152602001600081526020016000151581525090565b8280548282559060005260206000209081019282156142b0579160200282015b828111156142af578251825591602001919060010190614294565b5b5090506142bd9190614369565b5090565b6040518060a001604052806060815260200160608152602001600073ffffffffffffffffffffffffffffffffffffffff16815260200160608152602001600081525090565b82805482825590600052602060002090810192821561434e579160200282015b8281111561434d57825182908161433d919061567b565b5091602001919060010190614326565b5b50905061435b9190614386565b5090565b614367615d65565b565b5b8082111561438257600081600090555060010161436a565b5090565b5b808211156143a6576000818161439d91906143aa565b50600101614387565b5090565b5080546143b6906153d8565b6000825580601f106143c857506143e7565b601f0160209004906000526020600020908101906143e69190614369565b5b50565b6000604051905090565b600080fd5b600080fd5b60007fffffffff0000000000000000000000000000000000000000000000000000000082169050919050565b614433816143fe565b811461443e57600080fd5b50565b6000813590506144508161442a565b92915050565b60006020828403121561446c5761446b6143f4565b5b600061447a84828501614441565b91505092915050565b60008115159050919050565b61449881614483565b82525050565b60006020820190506144b3600083018461448f565b92915050565b600081519050919050565b600082825260208201905092915050565b60005b838110156144f35780820151818401526020810190506144d8565b60008484015250505050565b6000601f19601f8301169050919050565b600061451b826144b9565b61452581856144c4565b93506145358185602086016144d5565b61453e816144ff565b840191505092915050565b600060208201905081810360008301526145638184614510565b905092915050565b6000819050919050565b61457e8161456b565b811461458957600080fd5b50565b60008135905061459b81614575565b92915050565b6000602082840312156145b7576145b66143f4565b5b60006145c58482850161458c565b91505092915050565b600073ffffffffffffffffffffffffffffffffffffffff82169050919050565b60006145f9826145ce565b9050919050565b614609816145ee565b82525050565b60006020820190506146246000830184614600565b92915050565b60008060408385031215614641576146406143f4565b5b600061464f8582860161458c565b92505060206146608582860161458c565b9150509250929050565b614673816145ee565b811461467e57600080fd5b50565b6000813590506146908161466a565b92915050565b600080604083850312156146ad576146ac6143f4565b5b60006146bb85828601614681565b92505060206146cc8582860161458c565b9150509250929050565b600081519050919050565b600082825260208201905092915050565b6000819050602082019050919050565b61470b8161456b565b82525050565b600061471c826145ce565b9050919050565b61472c81614711565b82525050565b61473b81614483565b82525050565b60a0820160008201516147576000850182614702565b50602082015161476a6020850182614723565b50604082015161477d6040850182614723565b5060608201516147906060850182614702565b5060808201516147a36080850182614732565b50505050565b60006147b58383614741565b60a08301905092915050565b6000602082019050919050565b60006147d9826146d6565b6147e381856146e1565b93506147ee836146f2565b8060005b8381101561481f57815161480688826147a9565b9750614811836147c1565b9250506001810190506147f2565b5085935050505092915050565b6000602082019050818103600083015261484681846147ce565b905092915050565b6148578161456b565b82525050565b6000602082019050614872600083018461484e565b92915050565b600080fd5b600080fd5b7f4e487b7100000000000000000000000000000000000000000000000000000000600052604160045260246000fd5b6148ba826144ff565b810181811067ffffffffffffffff821117156148d9576148d8614882565b5b80604052505050565b60006148ec6143ea565b90506148f882826148b1565b919050565b600067ffffffffffffffff82111561491857614917614882565b5b614921826144ff565b9050602081019050919050565b82818337600083830152505050565b600061495061494b846148fd565b6148e2565b90508281526020810184848401111561496c5761496b61487d565b5b61497784828561492e565b509392505050565b600082601f83011261499457614993614878565b5b81356149a484826020860161493d565b91505092915050565b600080604083850312156149c4576149c36143f4565b5b600083013567ffffffffffffffff8111156149e2576149e16143f9565b5b6149ee8582860161497f565b925050602083013567ffffffffffffffff811115614a0f57614a0e6143f9565b5b614a1b8582860161497f565b9150509250929050565b600080600060608486031215614a3e57614a3d6143f4565b5b6000614a4c86828701614681565b9350506020614a5d86828701614681565b9250506040614a6e8682870161458c565b9150509250925092565b600082825260208201905092915050565b6000614a94826144b9565b614a9e8185614a78565b9350614aae8185602086016144d5565b614ab7816144ff565b840191505092915050565b614acb816145ee565b82525050565b600081519050919050565b600082825260208201905092915050565b6000819050602082019050919050565b6000614b098383614702565b60208301905092915050565b6000602082019050919050565b6000614b2d82614ad1565b614b378185614adc565b9350614b4283614aed565b8060005b83811015614b73578151614b5a8882614afd565b9750614b6583614b15565b925050600181019050614b46565b5085935050505092915050565b600060a0830160008301518482036000860152614b9d8282614a89565b91505060208301518482036020860152614bb78282614a89565b9150506040830151614bcc6040860182614ac2565b5060608301518482036060860152614be48282614b22565b9150506080830151614bf96080860182614702565b508091505092915050565b60006020820190508181036000830152614c1e8184614b80565b905092915050565b600081519050919050565b600082825260208201905092915050565b6000819050602082019050919050565b600060a0830160008301518482036000860152614c6f8282614a89565b91505060208301518482036020860152614c898282614a89565b9150506040830151614c9e6040860182614ac2565b5060608301518482036060860152614cb68282614b22565b9150506080830151614ccb6080860182614702565b508091505092915050565b6000614ce28383614c52565b905092915050565b6000602082019050919050565b6000614d0282614c26565b614d0c8185614c31565b935083602082028501614d1e85614c42565b8060005b85811015614d5a5784840389528151614d3b8582614cd6565b9450614d4683614cea565b925060208a01995050600181019050614d22565b50829750879550505050505092915050565b60006020820190508181036000830152614d868184614cf7565b905092915050565b600060208284031215614da457614da36143f4565b5b6000614db284828501614681565b91505092915050565b614dc481614483565b8114614dcf57600080fd5b50565b600081359050614de181614dbb565b92915050565b60008060408385031215614dfe57614dfd6143f4565b5b6000614e0c85828601614681565b9250506020614e1d85828601614dd2565b9150509250929050565b600067ffffffffffffffff821115614e4257614e41614882565b5b614e4b826144ff565b9050602081019050919050565b6000614e6b614e6684614e27565b6148e2565b905082815260208101848484011115614e8757614e8661487d565b5b614e9284828561492e565b509392505050565b600082601f830112614eaf57614eae614878565b5b8135614ebf848260208601614e58565b91505092915050565b60008060008060808587031215614ee257614ee16143f4565b5b6000614ef087828801614681565b9450506020614f0187828801614681565b9350506040614f128782880161458c565b925050606085013567ffffffffffffffff811115614f3357614f326143f9565b5b614f3f87828801614e9a565b91505092959194509250565b60a082016000820151614f616000850182614702565b506020820151614f746020850182614723565b506040820151614f876040850182614723565b506060820151614f9a6060850182614702565b506080820151614fad6080850182614732565b50505050565b600060a082019050614fc86000830184614f4b565b92915050565b600082825260208201905092915050565b6000614fea82614ad1565b614ff48185614fce565b9350614fff83614aed565b8060005b838110156150305781516150178882614afd565b975061502283614b15565b925050600181019050615003565b5085935050505092915050565b600060208201905081810360008301526150578184614fdf565b905092915050565b600067ffffffffffffffff82111561507a57615079614882565b5b602082029050602081019050919050565b600080fd5b60006150a361509e8461505f565b6148e2565b905080838252602082019050602084028301858111156150c6576150c561508b565b5b835b8181101561510d57803567ffffffffffffffff8111156150eb576150ea614878565b5b8086016150f8898261497f565b855260208501945050506020810190506150c8565b5050509392505050565b600082601f83011261512c5761512b614878565b5b813561513c848260208601615090565b91505092915050565b60008060006060848603121561515e5761515d6143f4565b5b600084013567ffffffffffffffff81111561517c5761517b6143f9565b5b6151888682870161497f565b93505060206151998682870161458c565b925050604084013567ffffffffffffffff8111156151ba576151b96143f9565b5b6151c686828701615117565b9150509250925092565b600081519050919050565b600082825260208201905092915050565b6000819050602082019050919050565b60006152088383614a89565b905092915050565b6000602082019050919050565b6000615228826151d0565b61523281856151db565b935083602082028501615244856151ec565b8060005b85811015615280578484038952815161526185826151fc565b945061526c83615210565b925060208a01995050600181019050615248565b50829750879550505050505092915050565b600060208201905081810360008301526152ac818461521d565b905092915050565b6152bd81614711565b82525050565b600060a0820190506152d8600083018861484e565b6152e560208301876152b4565b6152f260408301866152b4565b6152ff606083018561484e565b61530c608083018461448f565b9695505050505050565b6000806040838503121561532d5761532c6143f4565b5b600061533b85828601614681565b925050602061534c85828601614681565b9150509250929050565b600060808201905081810360008301526153708187614510565b905081810360208301526153848186614510565b90506153936040830185614600565b6153a0606083018461484e565b95945050505050565b7f4e487b7100000000000000000000000000000000000000000000000000000000600052602260045260246000fd5b600060028204905060018216806153f057607f821691505b602082108103615403576154026153a9565b5b50919050565b7f4e487b7100000000000000000000000000000000000000000000000000000000600052601160045260246000fd5b60006154438261456b565b915061544e8361456b565b925082820390508181111561546657615465615409565b5b92915050565b60006154778261456b565b91506154828361456b565b925082820190508082111561549a57615499615409565b5b92915050565b7f4e487b7100000000000000000000000000000000000000000000000000000000600052603260045260246000fd5b60008190508160005260206000209050919050565b60006020601f8301049050919050565b600082821b905092915050565b6000600883026155317fffffffffffffffffffffffffffffffffffffffffffffffffffffffffffffffff826154f4565b61553b86836154f4565b95508019841693508086168417925050509392505050565b6000819050919050565b600061557861557361556e8461456b565b615553565b61456b565b9050919050565b6000819050919050565b6155928361555d565b6155a661559e8261557f565b848454615501565b825550505050565b600090565b6155bb6155ae565b6155c6818484615589565b505050565b5b818110156155ea576155df6000826155b3565b6001810190506155cc565b5050565b601f82111561562f57615600816154cf565b615609846154e4565b81016020851015615618578190505b61562c615624856154e4565b8301826155cb565b50505b505050565b600082821c905092915050565b600061565260001984600802615634565b1980831691505092915050565b600061566b8383615641565b9150826002028217905092915050565b615684826144b9565b67ffffffffffffffff81111561569d5761569c614882565b5b6156a782546153d8565b6156b28282856155ee565b600060209050601f8311600181146156e557600084156156d3578287015190505b6156dd858261565f565b865550615745565b601f1984166156f3866154cf565b60005b8281101561571b578489015182556001820191506020850194506020810190506156f6565b868310156157385784890151615734601f891682615641565b8355505b6001600288020188555050505b505050505050565b600060608201905081810360008301526157678186614510565b9050818103602083015261577b8185614510565b905061578a6040830184614600565b949350505050565b600061579d8261456b565b91507fffffffffffffffffffffffffffffffffffffffffffffffffffffffffffffffff82036157cf576157ce615409565b5b600182019050919050565b60006060820190506157ef6000830186614600565b6157fc602083018561484e565b6158096040830184614600565b949350505050565b7f436f6c6c656374696f6e20646f6573206e6f7420657869737400000000000000600082015250565b60006158476019836144c4565b915061585282615811565b602082019050919050565b600060208201905081810360008301526158768161583a565b9050919050565b7f506c65617365207375626d6974207468652061736b696e67207072696365206960008201527f6e206f7264657220746f20636f6d706c65746520746865207075726368617365602082015250565b60006158d96040836144c4565b91506158e48261587d565b604082019050919050565b60006020820190508181036000830152615908816158cc565b9050919050565b600081905092915050565b50565b600061592a60008361590f565b91506159358261591a565b600082019050919050565b600061594b8261591d565b9150819050919050565b600081905092915050565b600061596b826144b9565b6159758185615955565b93506159858185602086016144d5565b80840191505092915050565b600061599d8285615960565b91506159a98284615960565b91508190509392505050565b60006159c18284615960565b915081905092915050565b7f4f6e6c79206974656d206f776e65722063616e20706572666f726d207468697360008201527f206f7065726174696f6e00000000000000000000000000000000000000000000602082015250565b6000615a28602a836144c4565b9150615a33826159cc565b604082019050919050565b60006020820190508181036000830152615a5781615a1b565b9050919050565b7f5072696365206d75737420626520657175616c20746f206c697374696e67207060008201527f7269636500000000000000000000000000000000000000000000000000000000602082015250565b6000615aba6024836144c4565b9150615ac582615a5e565b604082019050919050565b60006020820190508181036000830152615ae981615aad565b9050919050565b6000615afb8261456b565b915060008203615b0e57615b0d615409565b5b600182039050919050565b600081519050919050565b600082825260208201905092915050565b6000615b4082615b19565b615b4a8185615b24565b9350615b5a8185602086016144d5565b615b63816144ff565b840191505092915050565b6000608082019050615b836000830187614600565b615b906020830186614600565b615b9d604083018561484e565b8181036060830152615baf8184615b35565b905095945050505050565b600081519050615bc98161442a565b92915050565b600060208284031215615be557615be46143f4565b5b6000615bf384828501615bba565b91505092915050565b60006040820190508181036000830152615c168185614510565b9050615c256020830184614600565b9392505050565b60006040820190508181036000830152615c468185614510565b9050615c55602083018461484e565b9392505050565b7f5072696365206d757374206265206174206c6561737420312077656900000000600082015250565b6000615c92601c836144c4565b9150615c9d82615c5c565b602082019050919050565b60006020820190508181036000830152615cc181615c85565b9050919050565b6000608082019050615cdd6000830187614600565b615cea6020830186614600565b615cf7604083018561484e565b615d04606083018461448f565b95945050505050565b6000604082019050615d226000830185614600565b615d2f602083018461484e565b9392505050565b7f4e487b7100000000000000000000000000000000000000000000000000000000600052601260045260246000fd5b7f4e487b7100000000000000000000000000000000000000000000000000000000600052605160045260246000fdfea2646970667358221220af63081c072b42cb66ab5e196014560d73cf8fd372d893d15a113347a026a8e264736f6c63430008180033",
  "linkReferences": {},
  "deployedLinkReferences": {}
}