{
  "_format": "hh-sol-artifact-1",
  "contractName": "NFTMarketPlace",
  "sourceName": "contracts/NFTMarketPlace.sol",
  "abi": [
    {
      "inputs": [],
      "stateMutability": "nonpayable",
      "type": "constructor"
    },
    {
      "inputs": [
        {
          "internalType": "address",
          "name": "sender",
          "type": "address"
        },
        {
          "internalType": "uint256",
          "name": "tokenId",
          "type": "uint256"
        },
        {
          "internalType": "address",
          "name": "owner",
          "type": "address"
        }
      ],
      "name": "ERC721IncorrectOwner",
      "type": "error"
    },
    {
      "inputs": [
        {
          "internalType": "address",
          "name": "operator",
          "type": "address"
        },
        {
          "internalType": "uint256",
          "name": "tokenId",
          "type": "uint256"
        }
      ],
      "name": "ERC721InsufficientApproval",
      "type": "error"
    },
    {
      "inputs": [
        {
          "internalType": "address",
          "name": "approver",
          "type": "address"
        }
      ],
      "name": "ERC721InvalidApprover",
      "type": "error"
    },
    {
      "inputs": [
        {
          "internalType": "address",
          "name": "operator",
          "type": "address"
        }
      ],
      "name": "ERC721InvalidOperator",
      "type": "error"
    },
    {
      "inputs": [
        {
          "internalType": "address",
          "name": "owner",
          "type": "address"
        }
      ],
      "name": "ERC721InvalidOwner",
      "type": "error"
    },
    {
      "inputs": [
        {
          "internalType": "address",
          "name": "receiver",
          "type": "address"
        }
      ],
      "name": "ERC721InvalidReceiver",
      "type": "error"
    },
    {
      "inputs": [
        {
          "internalType": "address",
          "name": "sender",
          "type": "address"
        }
      ],
      "name": "ERC721InvalidSender",
      "type": "error"
    },
    {
      "inputs": [
        {
          "internalType": "uint256",
          "name": "tokenId",
          "type": "uint256"
        }
      ],
      "name": "ERC721NonexistentToken",
      "type": "error"
    },
    {
      "anonymous": false,
      "inputs": [
        {
          "indexed": true,
          "internalType": "address",
          "name": "owner",
          "type": "address"
        },
        {
          "indexed": true,
          "internalType": "address",
          "name": "approved",
          "type": "address"
        },
        {
          "indexed": true,
          "internalType": "uint256",
          "name": "tokenId",
          "type": "uint256"
        }
      ],
      "name": "Approval",
      "type": "event"
    },
    {
      "anonymous": false,
      "inputs": [
        {
          "indexed": true,
          "internalType": "address",
          "name": "owner",
          "type": "address"
        },
        {
          "indexed": true,
          "internalType": "address",
          "name": "operator",
          "type": "address"
        },
        {
          "indexed": false,
          "internalType": "bool",
          "name": "approved",
          "type": "bool"
        }
      ],
      "name": "ApprovalForAll",
      "type": "event"
    },
    {
      "anonymous": false,
      "inputs": [
        {
          "indexed": false,
          "internalType": "uint256",
          "name": "_fromTokenId",
          "type": "uint256"
        },
        {
          "indexed": false,
          "internalType": "uint256",
          "name": "_toTokenId",
          "type": "uint256"
        }
      ],
      "name": "BatchMetadataUpdate",
      "type": "event"
    },
    {
      "anonymous": false,
      "inputs": [
        {
          "indexed": true,
          "internalType": "uint256",
          "name": "collectionId",
          "type": "uint256"
        },
        {
          "indexed": false,
          "internalType": "string",
          "name": "name",
          "type": "string"
        },
        {
          "indexed": false,
          "internalType": "string",
          "name": "description",
          "type": "string"
        },
        {
          "indexed": false,
          "internalType": "address",
          "name": "creator",
          "type": "address"
        }
      ],
      "name": "CollectionCreated",
      "type": "event"
    },
    {
      "anonymous": false,
      "inputs": [
        {
          "indexed": true,
          "internalType": "uint256",
          "name": "tokenId",
          "type": "uint256"
        },
        {
          "indexed": false,
          "internalType": "address",
          "name": "seller",
          "type": "address"
        },
        {
          "indexed": false,
          "internalType": "address",
          "name": "owner",
          "type": "address"
        },
        {
          "indexed": false,
          "internalType": "uint256",
          "name": "price",
          "type": "uint256"
        },
        {
          "indexed": false,
          "internalType": "bool",
          "name": "sold",
          "type": "bool"
        }
      ],
      "name": "MarketItemCreated",
      "type": "event"
    },
    {
      "anonymous": false,
      "inputs": [
        {
          "indexed": false,
          "internalType": "uint256",
          "name": "_tokenId",
          "type": "uint256"
        }
      ],
      "name": "MetadataUpdate",
      "type": "event"
    },
    {
      "anonymous": false,
      "inputs": [
        {
          "indexed": true,
          "internalType": "uint256",
          "name": "collectionId",
          "type": "uint256"
        },
        {
          "indexed": false,
          "internalType": "uint256",
          "name": "nftId",
          "type": "uint256"
        }
      ],
      "name": "NFTAddedToCollection",
      "type": "event"
    },
    {
      "anonymous": false,
      "inputs": [
        {
          "indexed": true,
          "internalType": "address",
          "name": "from",
          "type": "address"
        },
        {
          "indexed": true,
          "internalType": "address",
          "name": "to",
          "type": "address"
        },
        {
          "indexed": true,
          "internalType": "uint256",
          "name": "tokenId",
          "type": "uint256"
        }
      ],
      "name": "Transfer",
      "type": "event"
    },
    {
      "inputs": [
        {
          "internalType": "uint256",
          "name": "collectionId",
          "type": "uint256"
        },
        {
          "internalType": "uint256",
          "name": "nftId",
          "type": "uint256"
        }
      ],
      "name": "addToCollection",
      "outputs": [],
      "stateMutability": "nonpayable",
      "type": "function"
    },
    {
      "inputs": [
        {
          "internalType": "address",
          "name": "to",
          "type": "address"
        },
        {
          "internalType": "uint256",
          "name": "tokenId",
          "type": "uint256"
        }
      ],
      "name": "approve",
      "outputs": [],
      "stateMutability": "nonpayable",
      "type": "function"
    },
    {
      "inputs": [
        {
          "internalType": "address",
          "name": "owner",
          "type": "address"
        }
      ],
      "name": "balanceOf",
      "outputs": [
        {
          "internalType": "uint256",
          "name": "",
          "type": "uint256"
        }
      ],
      "stateMutability": "view",
      "type": "function"
    },
    {
      "inputs": [
        {
          "internalType": "uint256",
          "name": "",
          "type": "uint256"
        }
      ],
      "name": "collections",
      "outputs": [
        {
          "internalType": "string",
          "name": "name",
          "type": "string"
        },
        {
          "internalType": "string",
          "name": "description",
          "type": "string"
        },
        {
          "internalType": "address",
          "name": "creator",
          "type": "address"
        },
        {
          "internalType": "uint256",
          "name": "collectionId",
          "type": "uint256"
        }
      ],
      "stateMutability": "view",
      "type": "function"
    },
    {
      "inputs": [
        {
          "internalType": "string",
          "name": "name",
          "type": "string"
        },
        {
          "internalType": "string",
          "name": "description",
          "type": "string"
        }
      ],
      "name": "createCollection",
      "outputs": [],
      "stateMutability": "nonpayable",
      "type": "function"
    },
    {
      "inputs": [
        {
          "internalType": "uint256",
          "name": "tokenId",
          "type": "uint256"
        }
      ],
      "name": "createMarketSale",
      "outputs": [],
      "stateMutability": "payable",
      "type": "function"
    },
    {
      "inputs": [
        {
          "internalType": "string",
          "name": "tokenURI",
          "type": "string"
        },
        {
          "internalType": "uint256",
          "name": "price",
          "type": "uint256"
        },
        {
          "internalType": "string[]",
          "name": "traits",
          "type": "string[]"
        }
      ],
      "name": "createToken",
      "outputs": [
        {
          "internalType": "uint256",
          "name": "",
          "type": "uint256"
        }
      ],
      "stateMutability": "payable",
      "type": "function"
    },
    {
      "inputs": [
        {
          "internalType": "uint256",
          "name": "tokenId",
          "type": "uint256"
        },
        {
          "internalType": "address",
          "name": "highestBidder",
          "type": "address"
        },
        {
          "internalType": "uint256",
          "name": "highestBid",
          "type": "uint256"
        }
      ],
      "name": "endNftAuction",
      "outputs": [],
      "stateMutability": "payable",
      "type": "function"
    },
    {
      "inputs": [],
      "name": "fetchItemsListed",
      "outputs": [
        {
          "components": [
            {
              "internalType": "uint256",
              "name": "tokenId",
              "type": "uint256"
            },
            {
              "internalType": "address payable",
              "name": "seller",
              "type": "address"
            },
            {
              "internalType": "address payable",
              "name": "owner",
              "type": "address"
            },
            {
              "internalType": "uint256",
              "name": "price",
              "type": "uint256"
            },
            {
              "internalType": "bool",
              "name": "sold",
              "type": "bool"
            }
          ],
          "internalType": "struct NFTMarketPlace.MarketItem[]",
          "name": "",
          "type": "tuple[]"
        }
      ],
      "stateMutability": "view",
      "type": "function"
    },
    {
      "inputs": [],
      "name": "fetchMarketItems",
      "outputs": [
        {
          "components": [
            {
              "internalType": "uint256",
              "name": "tokenId",
              "type": "uint256"
            },
            {
              "internalType": "address payable",
              "name": "seller",
              "type": "address"
            },
            {
              "internalType": "address payable",
              "name": "owner",
              "type": "address"
            },
            {
              "internalType": "uint256",
              "name": "price",
              "type": "uint256"
            },
            {
              "internalType": "bool",
              "name": "sold",
              "type": "bool"
            }
          ],
          "internalType": "struct NFTMarketPlace.MarketItem[]",
          "name": "",
          "type": "tuple[]"
        }
      ],
      "stateMutability": "view",
      "type": "function"
    },
    {
      "inputs": [],
      "name": "fetchMyNFTs",
      "outputs": [
        {
          "components": [
            {
              "internalType": "uint256",
              "name": "tokenId",
              "type": "uint256"
            },
            {
              "internalType": "address payable",
              "name": "seller",
              "type": "address"
            },
            {
              "internalType": "address payable",
              "name": "owner",
              "type": "address"
            },
            {
              "internalType": "uint256",
              "name": "price",
              "type": "uint256"
            },
            {
              "internalType": "bool",
              "name": "sold",
              "type": "bool"
            }
          ],
          "internalType": "struct NFTMarketPlace.MarketItem[]",
          "name": "",
          "type": "tuple[]"
        }
      ],
      "stateMutability": "view",
      "type": "function"
    },
    {
      "inputs": [],
      "name": "getAllCollections",
      "outputs": [
        {
          "components": [
            {
              "internalType": "string",
              "name": "name",
              "type": "string"
            },
            {
              "internalType": "string",
              "name": "description",
              "type": "string"
            },
            {
              "internalType": "address",
              "name": "creator",
              "type": "address"
            },
            {
              "internalType": "uint256[]",
              "name": "nftIds",
              "type": "uint256[]"
            },
            {
              "internalType": "uint256",
              "name": "collectionId",
              "type": "uint256"
            }
          ],
          "internalType": "struct NFTMarketPlace.Collection[]",
          "name": "",
          "type": "tuple[]"
        }
      ],
      "stateMutability": "view",
      "type": "function"
    },
    {
      "inputs": [
        {
          "internalType": "uint256",
          "name": "tokenId",
          "type": "uint256"
        }
      ],
      "name": "getApproved",
      "outputs": [
        {
          "internalType": "address",
          "name": "",
          "type": "address"
        }
      ],
      "stateMutability": "view",
      "type": "function"
    },
    {
      "inputs": [
        {
          "internalType": "uint256",
          "name": "collectionId",
          "type": "uint256"
        }
      ],
      "name": "getCollection",
      "outputs": [
        {
          "components": [
            {
              "internalType": "string",
              "name": "name",
              "type": "string"
            },
            {
              "internalType": "string",
              "name": "description",
              "type": "string"
            },
            {
              "internalType": "address",
              "name": "creator",
              "type": "address"
            },
            {
              "internalType": "uint256[]",
              "name": "nftIds",
              "type": "uint256[]"
            },
            {
              "internalType": "uint256",
              "name": "collectionId",
              "type": "uint256"
            }
          ],
          "internalType": "struct NFTMarketPlace.Collection",
          "name": "",
          "type": "tuple"
        }
      ],
      "stateMutability": "view",
      "type": "function"
    },
    {
      "inputs": [],
      "name": "getListingPrice",
      "outputs": [
        {
          "internalType": "uint256",
          "name": "",
          "type": "uint256"
        }
      ],
      "stateMutability": "view",
      "type": "function"
    },
    {
      "inputs": [
        {
          "internalType": "uint256",
          "name": "tokenId",
          "type": "uint256"
        }
      ],
      "name": "getMarketItem",
      "outputs": [
        {
          "components": [
            {
              "internalType": "uint256",
              "name": "tokenId",
              "type": "uint256"
            },
            {
              "internalType": "address payable",
              "name": "seller",
              "type": "address"
            },
            {
              "internalType": "address payable",
              "name": "owner",
              "type": "address"
            },
            {
              "internalType": "uint256",
              "name": "price",
              "type": "uint256"
            },
            {
              "internalType": "bool",
              "name": "sold",
              "type": "bool"
            }
          ],
          "internalType": "struct NFTMarketPlace.MarketItem",
          "name": "",
          "type": "tuple"
        }
      ],
      "stateMutability": "view",
      "type": "function"
    },
    {
      "inputs": [],
      "name": "getMyCollections",
      "outputs": [
        {
          "components": [
            {
              "internalType": "string",
              "name": "name",
              "type": "string"
            },
            {
              "internalType": "string",
              "name": "description",
              "type": "string"
            },
            {
              "internalType": "address",
              "name": "creator",
              "type": "address"
            },
            {
              "internalType": "uint256[]",
              "name": "nftIds",
              "type": "uint256[]"
            },
            {
              "internalType": "uint256",
              "name": "collectionId",
              "type": "uint256"
            }
          ],
          "internalType": "struct NFTMarketPlace.Collection[]",
          "name": "",
          "type": "tuple[]"
        }
      ],
      "stateMutability": "view",
      "type": "function"
    },
    {
      "inputs": [
        {
          "internalType": "uint256",
          "name": "collectionId",
          "type": "uint256"
        }
      ],
      "name": "getNFTsInCollection",
      "outputs": [
        {
          "internalType": "uint256[]",
          "name": "",
          "type": "uint256[]"
        }
      ],
      "stateMutability": "view",
      "type": "function"
    },
    {
      "inputs": [
        {
          "internalType": "uint256",
          "name": "tokenId",
          "type": "uint256"
        }
      ],
      "name": "getTraits",
      "outputs": [
        {
          "internalType": "string[]",
          "name": "",
          "type": "string[]"
        }
      ],
      "stateMutability": "view",
      "type": "function"
    },
    {
      "inputs": [
        {
          "internalType": "uint256",
          "name": "",
          "type": "uint256"
        }
      ],
      "name": "idToMarketItem",
      "outputs": [
        {
          "internalType": "uint256",
          "name": "tokenId",
          "type": "uint256"
        },
        {
          "internalType": "address payable",
          "name": "seller",
          "type": "address"
        },
        {
          "internalType": "address payable",
          "name": "owner",
          "type": "address"
        },
        {
          "internalType": "uint256",
          "name": "price",
          "type": "uint256"
        },
        {
          "internalType": "bool",
          "name": "sold",
          "type": "bool"
        }
      ],
      "stateMutability": "view",
      "type": "function"
    },
    {
      "inputs": [
        {
          "internalType": "address",
          "name": "owner",
          "type": "address"
        },
        {
          "internalType": "address",
          "name": "operator",
          "type": "address"
        }
      ],
      "name": "isApprovedForAll",
      "outputs": [
        {
          "internalType": "bool",
          "name": "",
          "type": "bool"
        }
      ],
      "stateMutability": "view",
      "type": "function"
    },
    {
      "inputs": [],
      "name": "name",
      "outputs": [
        {
          "internalType": "string",
          "name": "",
          "type": "string"
        }
      ],
      "stateMutability": "view",
      "type": "function"
    },
    {
      "inputs": [
        {
          "internalType": "uint256",
          "name": "tokenId",
          "type": "uint256"
        }
      ],
      "name": "ownerOf",
      "outputs": [
        {
          "internalType": "address",
          "name": "",
          "type": "address"
        }
      ],
      "stateMutability": "view",
      "type": "function"
    },
    {
      "inputs": [
        {
          "internalType": "uint256",
          "name": "tokenId",
          "type": "uint256"
        },
        {
          "internalType": "uint256",
          "name": "price",
          "type": "uint256"
        }
      ],
      "name": "resellToken",
      "outputs": [],
      "stateMutability": "payable",
      "type": "function"
    },
    {
      "inputs": [
        {
          "internalType": "address",
          "name": "from",
          "type": "address"
        },
        {
          "internalType": "address",
          "name": "to",
          "type": "address"
        },
        {
          "internalType": "uint256",
          "name": "tokenId",
          "type": "uint256"
        }
      ],
      "name": "safeTransferFrom",
      "outputs": [],
      "stateMutability": "nonpayable",
      "type": "function"
    },
    {
      "inputs": [
        {
          "internalType": "address",
          "name": "from",
          "type": "address"
        },
        {
          "internalType": "address",
          "name": "to",
          "type": "address"
        },
        {
          "internalType": "uint256",
          "name": "tokenId",
          "type": "uint256"
        },
        {
          "internalType": "bytes",
          "name": "data",
          "type": "bytes"
        }
      ],
      "name": "safeTransferFrom",
      "outputs": [],
      "stateMutability": "nonpayable",
      "type": "function"
    },
    {
      "inputs": [
        {
          "internalType": "address",
          "name": "operator",
          "type": "address"
        },
        {
          "internalType": "bool",
          "name": "approved",
          "type": "bool"
        }
      ],
      "name": "setApprovalForAll",
      "outputs": [],
      "stateMutability": "nonpayable",
      "type": "function"
    },
    {
      "inputs": [
        {
          "internalType": "bytes4",
          "name": "interfaceId",
          "type": "bytes4"
        }
      ],
      "name": "supportsInterface",
      "outputs": [
        {
          "internalType": "bool",
          "name": "",
          "type": "bool"
        }
      ],
      "stateMutability": "view",
      "type": "function"
    },
    {
      "inputs": [],
      "name": "symbol",
      "outputs": [
        {
          "internalType": "string",
          "name": "",
          "type": "string"
        }
      ],
      "stateMutability": "view",
      "type": "function"
    },
    {
      "inputs": [
        {
          "internalType": "uint256",
          "name": "",
          "type": "uint256"
        },
        {
          "internalType": "uint256",
          "name": "",
          "type": "uint256"
        }
      ],
      "name": "tokenTraits",
      "outputs": [
        {
          "internalType": "string",
          "name": "",
          "type": "string"
        }
      ],
      "stateMutability": "view",
      "type": "function"
    },
    {
      "inputs": [
        {
          "internalType": "uint256",
          "name": "tokenId",
          "type": "uint256"
        }
      ],
      "name": "tokenURI",
      "outputs": [
        {
          "internalType": "string",
          "name": "",
          "type": "string"
        }
      ],
      "stateMutability": "view",
      "type": "function"
    },
    {
      "inputs": [
        {
          "internalType": "address",
          "name": "from",
          "type": "address"
        },
        {
          "internalType": "address",
          "name": "to",
          "type": "address"
        },
        {
          "internalType": "uint256",
          "name": "tokenId",
          "type": "uint256"
        }
      ],
      "name": "transferFrom",
      "outputs": [],
      "stateMutability": "nonpayable",
      "type": "function"
    }
  ],
  "bytecode": "0x60806040526658d15e176280006009553480156200001c57600080fd5b506040518060400160405280601081526020017f4d657461766572736520546f6b656e73000000000000000000000000000000008152506040518060400160405280600481526020017f4d4554540000000000000000000000000000000000000000000000000000000081525081600090816200009a919062000370565b508060019081620000ac919062000370565b50505033600a60006101000a81548173ffffffffffffffffffffffffffffffffffffffff021916908373ffffffffffffffffffffffffffffffffffffffff16021790555062000457565b600081519050919050565b7f4e487b7100000000000000000000000000000000000000000000000000000000600052604160045260246000fd5b7f4e487b7100000000000000000000000000000000000000000000000000000000600052602260045260246000fd5b600060028204905060018216806200017857607f821691505b6020821081036200018e576200018d62000130565b5b50919050565b60008190508160005260206000209050919050565b60006020601f8301049050919050565b600082821b905092915050565b600060088302620001f87fffffffffffffffffffffffffffffffffffffffffffffffffffffffffffffffff82620001b9565b620002048683620001b9565b95508019841693508086168417925050509392505050565b6000819050919050565b6000819050919050565b6000620002516200024b62000245846200021c565b62000226565b6200021c565b9050919050565b6000819050919050565b6200026d8362000230565b620002856200027c8262000258565b848454620001c6565b825550505050565b600090565b6200029c6200028d565b620002a981848462000262565b505050565b5b81811015620002d157620002c560008262000292565b600181019050620002af565b5050565b601f8211156200032057620002ea8162000194565b620002f584620001a9565b8101602085101562000305578190505b6200031d6200031485620001a9565b830182620002ae565b50505b505050565b600082821c905092915050565b6000620003456000198460080262000325565b1980831691505092915050565b600062000360838362000332565b9150826002028217905092915050565b6200037b82620000f6565b67ffffffffffffffff81111562000397576200039662000101565b5b620003a382546200015f565b620003b0828285620002d5565b600060209050601f831160018114620003e85760008415620003d3578287015190505b620003df858262000352565b8655506200044f565b601f198416620003f88662000194565b60005b828110156200042257848901518255600182019150602085019450602081019050620003fb565b868310156200044257848901516200043e601f89168262000332565b8355505b6001600288020188555050505b505050505050565b615e8a80620004676000396000f3fe6080604052600436106101e35760003560e01c806395d89b4111610102578063d256286d11610095578063e61a70c011610064578063e61a70c01461071c578063e985e9c51461075d578063f4118d631461079a578063fdbda0ec146107c3576101e3565b8063d256286d14610668578063d610198014610698578063e1dc0761146106c3578063e219fc7514610700576101e3565b8063be9af536116100d1578063be9af53614610595578063c7be7a49146105b1578063c87b56dd146105ee578063cae98f2b1461062b576101e3565b806395d89b41146104fc5780639d99c4e114610527578063a22cb46514610543578063b88d4fde1461056c576101e3565b8063202e37401161017a5780635a1f3c28116101495780635a1f3c281461041a5780636352211e146104575780636804a9581461049457806370a08231146104bf576101e3565b8063202e37401461037257806323b872dd1461039d57806342842e0e146103c657806345f8fa80146103ef576101e3565b8063095ea7b3116101b6578063095ea7b3146102ca5780630f08efe0146102f357806312e855851461031e578063176b9b7514610349576101e3565b806301ffc9a7146101e857806306fdde0314610225578063081812fc1461025057806308e83f371461028d575b600080fd5b3480156101f457600080fd5b5061020f600480360381019061020a91906144c3565b610803565b60405161021c919061450b565b60405180910390f35b34801561023157600080fd5b5061023a610864565b60405161024791906145b6565b60405180910390f35b34801561025c57600080fd5b506102776004803603810190610272919061460e565b6108f6565b604051610284919061467c565b60405180910390f35b34801561029957600080fd5b506102b460048036038101906102af9190614697565b610912565b6040516102c191906145b6565b60405180910390f35b3480156102d657600080fd5b506102f160048036038101906102ec9190614703565b6109cb565b005b3480156102ff57600080fd5b506103086109e1565b6040516103159190614899565b60405180910390f35b34801561032a57600080fd5b50610333610c2e565b60405161034091906148ca565b60405180910390f35b34801561035557600080fd5b50610370600480360381019061036b9190614a1a565b610c38565b005b34801561037e57600080fd5b50610387610de0565b6040516103949190614899565b60405180910390f35b3480156103a957600080fd5b506103c460048036038101906103bf9190614a92565b6110b9565b005b3480156103d257600080fd5b506103ed60048036038101906103e89190614a92565b6111bb565b005b3480156103fb57600080fd5b506104046111db565b6040516104119190614899565b60405180910390f35b34801561042657600080fd5b50610441600480360381019061043c919061460e565b6114b4565b60405161044e9190614c71565b60405180910390f35b34801561046357600080fd5b5061047e6004803603810190610479919061460e565b611702565b60405161048b919061467c565b60405180910390f35b3480156104a057600080fd5b506104a9611714565b6040516104b69190614dd9565b60405180910390f35b3480156104cb57600080fd5b506104e660048036038101906104e19190614dfb565b6119bf565b6040516104f391906148ca565b60405180910390f35b34801561050857600080fd5b50610511611a79565b60405161051e91906145b6565b60405180910390f35b610541600480360381019061053c9190614e28565b611b0b565b005b34801561054f57600080fd5b5061056a60048036038101906105659190614ea7565b611b51565b005b34801561057857600080fd5b50610593600480360381019061058e9190614f88565b611b67565b005b6105af60048036038101906105aa919061460e565b611b84565b005b3480156105bd57600080fd5b506105d860048036038101906105d3919061460e565b611eb5565b6040516105e59190615073565b60405180910390f35b3480156105fa57600080fd5b506106156004803603810190610610919061460e565b611fbd565b60405161062291906145b6565b60405180910390f35b34801561063757600080fd5b50610652600480360381019061064d919061460e565b6120d0565b60405161065f91906150fd565b60405180910390f35b610682600480360381019061067d9190615205565b612183565b60405161068f91906148ca565b60405180910390f35b3480156106a457600080fd5b506106ad6121f5565b6040516106ba9190614dd9565b60405180910390f35b3480156106cf57600080fd5b506106ea60048036038101906106e5919061460e565b6125aa565b6040516106f79190615352565b60405180910390f35b61071a60048036038101906107159190614697565b612785565b005b34801561072857600080fd5b50610743600480360381019061073e919061460e565b612988565b604051610754959493929190615383565b60405180910390f35b34801561076957600080fd5b50610784600480360381019061077f91906153d6565b612a0b565b604051610791919061450b565b60405180910390f35b3480156107a657600080fd5b506107c160048036038101906107bc9190614697565b612a9f565b005b3480156107cf57600080fd5b506107ea60048036038101906107e5919061460e565b612b5d565b6040516107fa9493929190615416565b60405180910390f35b6000634906490660e01b7bffffffffffffffffffffffffffffffffffffffffffffffffffffffff1916827bffffffffffffffffffffffffffffffffffffffffffffffffffffffff1916148061085d575061085c82612cbd565b5b9050919050565b60606000805461087390615498565b80601f016020809104026020016040519081016040528092919081815260200182805461089f90615498565b80156108ec5780601f106108c1576101008083540402835291602001916108ec565b820191906000526020600020905b8154815290600101906020018083116108cf57829003601f168201915b5050505050905090565b600061090182612d9f565b5061090b82612e27565b9050919050565b600c602052816000526040600020818154811061092e57600080fd5b9060005260206000200160009150915050805461094a90615498565b80601f016020809104026020016040519081016040528092919081815260200182805461097690615498565b80156109c35780601f10610998576101008083540402835291602001916109c3565b820191906000526020600020905b8154815290600101906020018083116109a657829003601f168201915b505050505081565b6109dd82826109d8612e64565b612e6c565b5050565b60606000600754905060006008546007546109fc91906154f8565b90506000808267ffffffffffffffff811115610a1b57610a1a6148ef565b5b604051908082528060200260200182016040528015610a5457816020015b610a41614284565b815260200190600190039081610a395790505b50905060005b84811015610c23573073ffffffffffffffffffffffffffffffffffffffff16600b6000600184610a8a919061552c565b815260200190815260200160002060020160009054906101000a900473ffffffffffffffffffffffffffffffffffffffff1673ffffffffffffffffffffffffffffffffffffffff1603610c16576000600182610ae6919061552c565b90506000600b60008381526020019081526020016000209050806040518060a0016040529081600082015481526020016001820160009054906101000a900473ffffffffffffffffffffffffffffffffffffffff1673ffffffffffffffffffffffffffffffffffffffff1673ffffffffffffffffffffffffffffffffffffffff1681526020016002820160009054906101000a900473ffffffffffffffffffffffffffffffffffffffff1673ffffffffffffffffffffffffffffffffffffffff1673ffffffffffffffffffffffffffffffffffffffff168152602001600382015481526020016004820160009054906101000a900460ff161515151581525050848681518110610bf957610bf8615560565b5b6020026020010181905250600185610c11919061552c565b945050505b8080600101915050610a5a565b508094505050505090565b6000600954905090565b60006001600e54610c49919061552c565b905060006040518060a001604052808581526020018481526020013373ffffffffffffffffffffffffffffffffffffffff168152602001600067ffffffffffffffff811115610c9b57610c9a6148ef565b5b604051908082528060200260200182016040528015610cc95781602001602082028036833780820191505090505b50815260200183815250905080600d60008481526020019081526020016000206000820151816000019081610cfe919061573b565b506020820151816001019081610d14919061573b565b5060408201518160020160006101000a81548173ffffffffffffffffffffffffffffffffffffffff021916908373ffffffffffffffffffffffffffffffffffffffff1602179055506060820151816003019080519060200190610d789291906142e1565b5060808201518160040155905050817f4c3e0b39635573f57a29aab3621210950392a4f2a518980a5b883c37cf35dbbe858533604051610dba9392919061580d565b60405180910390a2600e6000815480929190610dd590615852565b919050555050505050565b60606000600754905060008060005b83811015610e89573373ffffffffffffffffffffffffffffffffffffffff16600b6000600184610e1f919061552c565b815260200190815260200160002060020160009054906101000a900473ffffffffffffffffffffffffffffffffffffffff1673ffffffffffffffffffffffffffffffffffffffff1603610e7c57600183610e79919061552c565b92505b8080600101915050610def565b5060008267ffffffffffffffff811115610ea657610ea56148ef565b5b604051908082528060200260200182016040528015610edf57816020015b610ecc614284565b815260200190600190039081610ec45790505b50905060005b848110156110ae573373ffffffffffffffffffffffffffffffffffffffff16600b6000600184610f15919061552c565b815260200190815260200160002060020160009054906101000a900473ffffffffffffffffffffffffffffffffffffffff1673ffffffffffffffffffffffffffffffffffffffff16036110a1576000600182610f71919061552c565b90506000600b60008381526020019081526020016000209050806040518060a0016040529081600082015481526020016001820160009054906101000a900473ffffffffffffffffffffffffffffffffffffffff1673ffffffffffffffffffffffffffffffffffffffff1673ffffffffffffffffffffffffffffffffffffffff1681526020016002820160009054906101000a900473ffffffffffffffffffffffffffffffffffffffff1673ffffffffffffffffffffffffffffffffffffffff1673ffffffffffffffffffffffffffffffffffffffff168152602001600382015481526020016004820160009054906101000a900460ff16151515158152505084868151811061108457611083615560565b5b602002602001018190525060018561109c919061552c565b945050505b8080600101915050610ee5565b508094505050505090565b600073ffffffffffffffffffffffffffffffffffffffff168273ffffffffffffffffffffffffffffffffffffffff160361112b5760006040517f64a0ae92000000000000000000000000000000000000000000000000000000008152600401611122919061467c565b60405180910390fd5b600061113f838361113a612e64565b612e7e565b90508373ffffffffffffffffffffffffffffffffffffffff168173ffffffffffffffffffffffffffffffffffffffff16146111b5578382826040517f64283d7b0000000000000000000000000000000000000000000000000000000081526004016111ac9392919061589a565b60405180910390fd5b50505050565b6111d683838360405180602001604052806000815250611b67565b505050565b60606000600754905060008060005b83811015611284573373ffffffffffffffffffffffffffffffffffffffff16600b600060018461121a919061552c565b815260200190815260200160002060010160009054906101000a900473ffffffffffffffffffffffffffffffffffffffff1673ffffffffffffffffffffffffffffffffffffffff160361127757600183611274919061552c565b92505b80806001019150506111ea565b5060008267ffffffffffffffff8111156112a1576112a06148ef565b5b6040519080825280602002602001820160405280156112da57816020015b6112c7614284565b8152602001906001900390816112bf5790505b50905060005b848110156114a9573373ffffffffffffffffffffffffffffffffffffffff16600b6000600184611310919061552c565b815260200190815260200160002060010160009054906101000a900473ffffffffffffffffffffffffffffffffffffffff1673ffffffffffffffffffffffffffffffffffffffff160361149c57600060018261136c919061552c565b90506000600b60008381526020019081526020016000209050806040518060a0016040529081600082015481526020016001820160009054906101000a900473ffffffffffffffffffffffffffffffffffffffff1673ffffffffffffffffffffffffffffffffffffffff1673ffffffffffffffffffffffffffffffffffffffff1681526020016002820160009054906101000a900473ffffffffffffffffffffffffffffffffffffffff1673ffffffffffffffffffffffffffffffffffffffff1673ffffffffffffffffffffffffffffffffffffffff168152602001600382015481526020016004820160009054906101000a900460ff16151515158152505084868151811061147f5761147e615560565b5b6020026020010181905250600185611497919061552c565b945050505b80806001019150506112e0565b508094505050505090565b6114bc61432e565b600e54821115611501576040517f08c379a00000000000000000000000000000000000000000000000000000000081526004016114f89061591d565b60405180910390fd5b600d60008381526020019081526020016000206040518060a001604052908160008201805461152f90615498565b80601f016020809104026020016040519081016040528092919081815260200182805461155b90615498565b80156115a85780601f1061157d576101008083540402835291602001916115a8565b820191906000526020600020905b81548152906001019060200180831161158b57829003601f168201915b505050505081526020016001820180546115c190615498565b80601f01602080910402602001604051908101604052809291908181526020018280546115ed90615498565b801561163a5780601f1061160f5761010080835404028352916020019161163a565b820191906000526020600020905b81548152906001019060200180831161161d57829003601f168201915b505050505081526020016002820160009054906101000a900473ffffffffffffffffffffffffffffffffffffffff1673ffffffffffffffffffffffffffffffffffffffff1673ffffffffffffffffffffffffffffffffffffffff168152602001600382018054806020026020016040519081016040528092919081815260200182805480156116e857602002820191906000526020600020905b8154815260200190600101908083116116d4575b505050505081526020016004820154815250509050919050565b600061170d82612d9f565b9050919050565b60606000600e5467ffffffffffffffff811115611734576117336148ef565b5b60405190808252806020026020018201604052801561176d57816020015b61175a61432e565b8152602001906001900390816117525790505b5090506000600190505b600e5481116119b757600d60008281526020019081526020016000206040518060a00160405290816000820180546117ae90615498565b80601f01602080910402602001604051908101604052809291908181526020018280546117da90615498565b80156118275780601f106117fc57610100808354040283529160200191611827565b820191906000526020600020905b81548152906001019060200180831161180a57829003601f168201915b5050505050815260200160018201805461184090615498565b80601f016020809104026020016040519081016040528092919081815260200182805461186c90615498565b80156118b95780601f1061188e576101008083540402835291602001916118b9565b820191906000526020600020905b81548152906001019060200180831161189c57829003601f168201915b505050505081526020016002820160009054906101000a900473ffffffffffffffffffffffffffffffffffffffff1673ffffffffffffffffffffffffffffffffffffffff1673ffffffffffffffffffffffffffffffffffffffff1681526020016003820180548060200260200160405190810160405280929190818152602001828054801561196757602002820191906000526020600020905b815481526020019060010190808311611953575b505050505081526020016004820154815250508260018361198891906154f8565b8151811061199957611998615560565b5b602002602001018190525080806119af90615852565b915050611777565b508091505090565b60008073ffffffffffffffffffffffffffffffffffffffff168273ffffffffffffffffffffffffffffffffffffffff1603611a325760006040517f89c62b64000000000000000000000000000000000000000000000000000000008152600401611a29919061467c565b60405180910390fd5b600360008373ffffffffffffffffffffffffffffffffffffffff1673ffffffffffffffffffffffffffffffffffffffff168152602001908152602001600020549050919050565b606060018054611a8890615498565b80601f0160208091040260200160405190810160405280929190818152602001828054611ab490615498565b8015611b015780601f10611ad657610100808354040283529160200191611b01565b820191906000526020600020905b815481529060010190602001808311611ae457829003601f168201915b5050505050905090565b611b4c600b600085815260200190815260200160002060020160009054906101000a900473ffffffffffffffffffffffffffffffffffffffff168385613098565b505050565b611b63611b5c612e64565b8383613205565b5050565b611b728484846110b9565b611b7e84848484613374565b50505050565b611b8d3361352b565b611b96346135c4565b6000600b60008381526020019081526020016000206003015490506000600b600084815260200190815260200160002060010160009054906101000a900473ffffffffffffffffffffffffffffffffffffffff169050611bf5826135c4565b813414611c37576040517f08c379a0000000000000000000000000000000000000000000000000000000008152600401611c2e906159af565b60405180910390fd5b33600b600085815260200190815260200160002060020160006101000a81548173ffffffffffffffffffffffffffffffffffffffff021916908373ffffffffffffffffffffffffffffffffffffffff1602179055506001600b600085815260200190815260200160002060040160006101000a81548160ff0219169083151502179055506000600b600085815260200190815260200160002060010160006101000a81548173ffffffffffffffffffffffffffffffffffffffff021916908373ffffffffffffffffffffffffffffffffffffffff16021790555060086000815480929190611d2490615852565b9190505550611d34303385613098565b6000600a60009054906101000a900473ffffffffffffffffffffffffffffffffffffffff1673ffffffffffffffffffffffffffffffffffffffff16600954604051611d7e90615a00565b60006040518083038185875af1925050503d8060008114611dbb576040519150601f19603f3d011682016040523d82523d6000602084013e611dc0565b606091505b50509050611e036040518060400160405280600681526020017f73656c6c657200000000000000000000000000000000000000000000000000008152508361365d565b611e426040518060400160405280600981526020017f6d73672e76616c75650000000000000000000000000000000000000000000000815250346136f9565b60008273ffffffffffffffffffffffffffffffffffffffff1634604051611e6890615a00565b60006040518083038185875af1925050503d8060008114611ea5576040519150601f19603f3d011682016040523d82523d6000602084013e611eaa565b606091505b505090505050505050565b611ebd614284565b600b60008381526020019081526020016000206040518060a0016040529081600082015481526020016001820160009054906101000a900473ffffffffffffffffffffffffffffffffffffffff1673ffffffffffffffffffffffffffffffffffffffff1673ffffffffffffffffffffffffffffffffffffffff1681526020016002820160009054906101000a900473ffffffffffffffffffffffffffffffffffffffff1673ffffffffffffffffffffffffffffffffffffffff1673ffffffffffffffffffffffffffffffffffffffff168152602001600382015481526020016004820160009054906101000a900460ff1615151515815250509050919050565b6060611fc882612d9f565b506000600660008481526020019081526020016000208054611fe990615498565b80601f016020809104026020016040519081016040528092919081815260200182805461201590615498565b80156120625780601f1061203757610100808354040283529160200191612062565b820191906000526020600020905b81548152906001019060200180831161204557829003601f168201915b505050505090506000612073613795565b905060008151036120885781925050506120cb565b6000825111156120bd5780826040516020016120a5929190615a51565b604051602081830303815290604052925050506120cb565b6120c6846137ac565b925050505b919050565b6060600e54821115612117576040517f08c379a000000000000000000000000000000000000000000000000000000000815260040161210e9061591d565b60405180910390fd5b600d600083815260200190815260200160002060030180548060200260200160405190810160405280929190818152602001828054801561217757602002820191906000526020600020905b815481526020019060010190808311612163575b50505050509050919050565b60006007600081548092919061219890615852565b9190505550600060075490506121ae3382613815565b82600c600083815260200190815260200160002090805190602001906121d5929190614373565b506121e0818661390e565b6121ea818561396a565b809150509392505050565b6060600080600190505b600e548111612293573373ffffffffffffffffffffffffffffffffffffffff16600d600083815260200190815260200160002060020160009054906101000a900473ffffffffffffffffffffffffffffffffffffffff1673ffffffffffffffffffffffffffffffffffffffff160361228057818061227c90615852565b9250505b808061228b90615852565b9150506121ff565b5060008167ffffffffffffffff8111156122b0576122af6148ef565b5b6040519080825280602002602001820160405280156122e957816020015b6122d661432e565b8152602001906001900390816122ce5790505b509050600080600190505b600e5481116125a0573373ffffffffffffffffffffffffffffffffffffffff16600d600083815260200190815260200160002060020160009054906101000a900473ffffffffffffffffffffffffffffffffffffffff1673ffffffffffffffffffffffffffffffffffffffff160361258d57600d60008281526020019081526020016000206040518060a001604052908160008201805461239490615498565b80601f01602080910402602001604051908101604052809291908181526020018280546123c090615498565b801561240d5780601f106123e25761010080835404028352916020019161240d565b820191906000526020600020905b8154815290600101906020018083116123f057829003601f168201915b5050505050815260200160018201805461242690615498565b80601f016020809104026020016040519081016040528092919081815260200182805461245290615498565b801561249f5780601f106124745761010080835404028352916020019161249f565b820191906000526020600020905b81548152906001019060200180831161248257829003601f168201915b505050505081526020016002820160009054906101000a900473ffffffffffffffffffffffffffffffffffffffff1673ffffffffffffffffffffffffffffffffffffffff1673ffffffffffffffffffffffffffffffffffffffff1681526020016003820180548060200260200160405190810160405280929190818152602001828054801561254d57602002820191906000526020600020905b815481526020019060010190808311612539575b5050505050815260200160048201548152505083838151811061257357612572615560565b5b6020026020010181905250818061258990615852565b9250505b808061259890615852565b9150506122f4565b5081935050505090565b60606000600c6000848152602001908152602001600020805480602002602001604051908101604052809291908181526020016000905b8282101561268d57838290600052602060002001805461260090615498565b80601f016020809104026020016040519081016040528092919081815260200182805461262c90615498565b80156126795780601f1061264e57610100808354040283529160200191612679565b820191906000526020600020905b81548152906001019060200180831161265c57829003601f168201915b5050505050815260200190600101906125e1565b5050505090506000815167ffffffffffffffff8111156126b0576126af6148ef565b5b6040519080825280602002602001820160405280156126e357816020015b60608152602001906001900390816126ce5790505b50905060005b825181101561277a5782818151811061270557612704615560565b5b602002602001015160405160200161271d9190615a75565b60405160208183030381529060405282828151811061273f5761273e615560565b5b602002602001018190525061276d8282815181106127605761275f615560565b5b6020026020010151613b93565b80806001019150506126e9565b508092505050919050565b3373ffffffffffffffffffffffffffffffffffffffff16600b600084815260200190815260200160002060020160009054906101000a900473ffffffffffffffffffffffffffffffffffffffff1673ffffffffffffffffffffffffffffffffffffffff1614612829576040517f08c379a000000000000000000000000000000000000000000000000000000000815260040161282090615afe565b60405180910390fd5b600954341461286d576040517f08c379a000000000000000000000000000000000000000000000000000000000815260040161286490615b90565b60405180910390fd5b6000600b600084815260200190815260200160002060040160006101000a81548160ff02191690831515021790555080600b60008481526020019081526020016000206003018190555033600b600084815260200190815260200160002060010160006101000a81548173ffffffffffffffffffffffffffffffffffffffff021916908373ffffffffffffffffffffffffffffffffffffffff16021790555030600b600084815260200190815260200160002060020160006101000a81548173ffffffffffffffffffffffffffffffffffffffff021916908373ffffffffffffffffffffffffffffffffffffffff1602179055506008600081548092919061297490615bb0565b9190505550612984333084613098565b5050565b600b6020528060005260406000206000915090508060000154908060010160009054906101000a900473ffffffffffffffffffffffffffffffffffffffff16908060020160009054906101000a900473ffffffffffffffffffffffffffffffffffffffff16908060030154908060040160009054906101000a900460ff16905085565b6000600560008473ffffffffffffffffffffffffffffffffffffffff1673ffffffffffffffffffffffffffffffffffffffff16815260200190815260200160002060008373ffffffffffffffffffffffffffffffffffffffff1673ffffffffffffffffffffffffffffffffffffffff16815260200190815260200160002060009054906101000a900460ff16905092915050565b600e54821115612ae4576040517f08c379a0000000000000000000000000000000000000000000000000000000008152600401612adb9061591d565b60405180910390fd5b600d6000838152602001908152602001600020600301819080600181540180825580915050600190039060005260206000200160009091909190915055817f3b3f4a0879adb468f95af56c9da744059b4df6c7189edae9d2ddb821161c4d1c82604051612b5191906148ca565b60405180910390a25050565b600d602052806000526040600020600091509050806000018054612b8090615498565b80601f0160208091040260200160405190810160405280929190818152602001828054612bac90615498565b8015612bf95780601f10612bce57610100808354040283529160200191612bf9565b820191906000526020600020905b815481529060010190602001808311612bdc57829003601f168201915b505050505090806001018054612c0e90615498565b80601f0160208091040260200160405190810160405280929190818152602001828054612c3a90615498565b8015612c875780601f10612c5c57610100808354040283529160200191612c87565b820191906000526020600020905b815481529060010190602001808311612c6a57829003601f168201915b5050505050908060020160009054906101000a900473ffffffffffffffffffffffffffffffffffffffff16908060040154905084565b60007f80ac58cd000000000000000000000000000000000000000000000000000000007bffffffffffffffffffffffffffffffffffffffffffffffffffffffff1916827bffffffffffffffffffffffffffffffffffffffffffffffffffffffff19161480612d8857507f5b5e139f000000000000000000000000000000000000000000000000000000007bffffffffffffffffffffffffffffffffffffffffffffffffffffffff1916827bffffffffffffffffffffffffffffffffffffffffffffffffffffffff1916145b80612d985750612d9782613c2c565b5b9050919050565b600080612dab83613c96565b9050600073ffffffffffffffffffffffffffffffffffffffff168173ffffffffffffffffffffffffffffffffffffffff1603612e1e57826040517f7e273289000000000000000000000000000000000000000000000000000000008152600401612e1591906148ca565b60405180910390fd5b80915050919050565b60006004600083815260200190815260200160002060009054906101000a900473ffffffffffffffffffffffffffffffffffffffff169050919050565b600033905090565b612e798383836001613cd3565b505050565b600080612e8a84613c96565b9050600073ffffffffffffffffffffffffffffffffffffffff168373ffffffffffffffffffffffffffffffffffffffff1614612ecc57612ecb818486613e98565b5b600073ffffffffffffffffffffffffffffffffffffffff168173ffffffffffffffffffffffffffffffffffffffff1614612f5d57612f0e600085600080613cd3565b6001600360008373ffffffffffffffffffffffffffffffffffffffff1673ffffffffffffffffffffffffffffffffffffffff168152602001908152602001600020600082825403925050819055505b600073ffffffffffffffffffffffffffffffffffffffff168573ffffffffffffffffffffffffffffffffffffffff1614612fe0576001600360008773ffffffffffffffffffffffffffffffffffffffff1673ffffffffffffffffffffffffffffffffffffffff168152602001908152602001600020600082825401925050819055505b846002600086815260200190815260200160002060006101000a81548173ffffffffffffffffffffffffffffffffffffffff021916908373ffffffffffffffffffffffffffffffffffffffff160217905550838573ffffffffffffffffffffffffffffffffffffffff168273ffffffffffffffffffffffffffffffffffffffff167fddf252ad1be2c89b69c2b068fc378daa952ba7f163c4a11628f55a4df523b3ef60405160405180910390a4809150509392505050565b600073ffffffffffffffffffffffffffffffffffffffff168273ffffffffffffffffffffffffffffffffffffffff160361310a5760006040517f64a0ae92000000000000000000000000000000000000000000000000000000008152600401613101919061467c565b60405180910390fd5b600061311883836000612e7e565b9050600073ffffffffffffffffffffffffffffffffffffffff168173ffffffffffffffffffffffffffffffffffffffff160361318b57816040517f7e27328900000000000000000000000000000000000000000000000000000000815260040161318291906148ca565b60405180910390fd5b8373ffffffffffffffffffffffffffffffffffffffff168173ffffffffffffffffffffffffffffffffffffffff16146131ff578382826040517f64283d7b0000000000000000000000000000000000000000000000000000000081526004016131f69392919061589a565b60405180910390fd5b50505050565b600073ffffffffffffffffffffffffffffffffffffffff168273ffffffffffffffffffffffffffffffffffffffff160361327657816040517f5b08ba1800000000000000000000000000000000000000000000000000000000815260040161326d919061467c565b60405180910390fd5b80600560008573ffffffffffffffffffffffffffffffffffffffff1673ffffffffffffffffffffffffffffffffffffffff16815260200190815260200160002060008473ffffffffffffffffffffffffffffffffffffffff1673ffffffffffffffffffffffffffffffffffffffff16815260200190815260200160002060006101000a81548160ff0219169083151502179055508173ffffffffffffffffffffffffffffffffffffffff168373ffffffffffffffffffffffffffffffffffffffff167f17307eab39ab6107e8899845ad3d59bd9653f200f220920489ca2b5937696c3183604051613367919061450b565b60405180910390a3505050565b60008373ffffffffffffffffffffffffffffffffffffffff163b1115613525578273ffffffffffffffffffffffffffffffffffffffff1663150b7a026133b8612e64565b8685856040518563ffffffff1660e01b81526004016133da9493929190615c2e565b6020604051808303816000875af192505050801561341657506040513d601f19601f820116820180604052508101906134139190615c8f565b60015b61349a573d8060008114613446576040519150601f19603f3d011682016040523d82523d6000602084013e61344b565b606091505b50600081510361349257836040517f64a0ae92000000000000000000000000000000000000000000000000000000008152600401613489919061467c565b60405180910390fd5b805181602001fd5b63150b7a0260e01b7bffffffffffffffffffffffffffffffffffffffffffffffffffffffff1916817bffffffffffffffffffffffffffffffffffffffffffffffffffffffff19161461352357836040517f64a0ae9200000000000000000000000000000000000000000000000000000000815260040161351a919061467c565b60405180910390fd5b505b50505050565b6135c18160405160240161353f919061467c565b6040516020818303038152906040527f2c2ecbc2000000000000000000000000000000000000000000000000000000007bffffffffffffffffffffffffffffffffffffffffffffffffffffffff19166020820180517bffffffffffffffffffffffffffffffffffffffffffffffffffffffff8381831617835250505050613f5c565b50565b61365a816040516024016135d891906148ca565b6040516020818303038152906040527ff82c50f1000000000000000000000000000000000000000000000000000000007bffffffffffffffffffffffffffffffffffffffffffffffffffffffff19166020820180517bffffffffffffffffffffffffffffffffffffffffffffffffffffffff8381831617835250505050613f5c565b50565b6136f58282604051602401613673929190615cbc565b6040516020818303038152906040527f319af333000000000000000000000000000000000000000000000000000000007bffffffffffffffffffffffffffffffffffffffffffffffffffffffff19166020820180517bffffffffffffffffffffffffffffffffffffffffffffffffffffffff8381831617835250505050613f5c565b5050565b613791828260405160240161370f929190615cec565b6040516020818303038152906040527fb60e72cc000000000000000000000000000000000000000000000000000000007bffffffffffffffffffffffffffffffffffffffffffffffffffffffff19166020820180517bffffffffffffffffffffffffffffffffffffffffffffffffffffffff8381831617835250505050613f5c565b5050565b606060405180602001604052806000815250905090565b60606137b782612d9f565b5060006137c2613795565b905060008151116137e2576040518060200160405280600081525061380d565b806137ec84613f76565b6040516020016137fd929190615a51565b6040516020818303038152906040525b915050919050565b600073ffffffffffffffffffffffffffffffffffffffff168273ffffffffffffffffffffffffffffffffffffffff16036138875760006040517f64a0ae9200000000000000000000000000000000000000000000000000000000815260040161387e919061467c565b60405180910390fd5b600061389583836000612e7e565b9050600073ffffffffffffffffffffffffffffffffffffffff168173ffffffffffffffffffffffffffffffffffffffff16146139095760006040517f73c6ac6e000000000000000000000000000000000000000000000000000000008152600401613900919061467c565b60405180910390fd5b505050565b8060066000848152602001908152602001600020908161392e919061573b565b507ff8e1a15aba9398e019f0b49df1a4fde98ee17ae345cb5f6b5e2c27f5033e8ce78260405161395e91906148ca565b60405180910390a15050565b613973346135c4565b61397c3361352b565b6139876009546135c4565b6139903061352b565b600081116139d3576040517f08c379a00000000000000000000000000000000000000000000000000000000081526004016139ca90615d68565b60405180910390fd5b6009543414613a17576040517f08c379a0000000000000000000000000000000000000000000000000000000008152600401613a0e90615b90565b60405180910390fd5b6040518060a001604052808381526020013373ffffffffffffffffffffffffffffffffffffffff1681526020013073ffffffffffffffffffffffffffffffffffffffff16815260200182815260200160001515815250600b60008481526020019081526020016000206000820151816000015560208201518160010160006101000a81548173ffffffffffffffffffffffffffffffffffffffff021916908373ffffffffffffffffffffffffffffffffffffffff16021790555060408201518160020160006101000a81548173ffffffffffffffffffffffffffffffffffffffff021916908373ffffffffffffffffffffffffffffffffffffffff1602179055506060820151816003015560808201518160040160006101000a81548160ff021916908315150217905550905050613b50333084613098565b817fb640004f1d14576d0c209e240cad0410e0d8c0c33a09375861fbadae2588a98d3330846000604051613b879493929190615d88565b60405180910390a25050565b613c2981604051602401613ba791906145b6565b6040516020818303038152906040527f41304fac000000000000000000000000000000000000000000000000000000007bffffffffffffffffffffffffffffffffffffffffffffffffffffffff19166020820180517bffffffffffffffffffffffffffffffffffffffffffffffffffffffff8381831617835250505050613f5c565b50565b60007f01ffc9a7000000000000000000000000000000000000000000000000000000007bffffffffffffffffffffffffffffffffffffffffffffffffffffffff1916827bffffffffffffffffffffffffffffffffffffffffffffffffffffffff1916149050919050565b60006002600083815260200190815260200160002060009054906101000a900473ffffffffffffffffffffffffffffffffffffffff169050919050565b8080613d0c5750600073ffffffffffffffffffffffffffffffffffffffff168273ffffffffffffffffffffffffffffffffffffffff1614155b15613e40576000613d1c84612d9f565b9050600073ffffffffffffffffffffffffffffffffffffffff168373ffffffffffffffffffffffffffffffffffffffff1614158015613d8757508273ffffffffffffffffffffffffffffffffffffffff168173ffffffffffffffffffffffffffffffffffffffff1614155b8015613d9a5750613d988184612a0b565b155b15613ddc57826040517fa9fbf51f000000000000000000000000000000000000000000000000000000008152600401613dd3919061467c565b60405180910390fd5b8115613e3e57838573ffffffffffffffffffffffffffffffffffffffff168273ffffffffffffffffffffffffffffffffffffffff167f8c5be1e5ebec7d5bd14f71427d1e84f3dd0314c0f7b2291e5b200ac8c7c3b92560405160405180910390a45b505b836004600085815260200190815260200160002060006101000a81548173ffffffffffffffffffffffffffffffffffffffff021916908373ffffffffffffffffffffffffffffffffffffffff16021790555050505050565b613ea3838383614044565b613f5757600073ffffffffffffffffffffffffffffffffffffffff168373ffffffffffffffffffffffffffffffffffffffff1603613f1857806040517f7e273289000000000000000000000000000000000000000000000000000000008152600401613f0f91906148ca565b60405180910390fd5b81816040517f177e802f000000000000000000000000000000000000000000000000000000008152600401613f4e929190615dcd565b60405180910390fd5b505050565b613f7381613f6b614105614126565b63ffffffff16565b50565b606060006001613f8584614131565b01905060008167ffffffffffffffff811115613fa457613fa36148ef565b5b6040519080825280601f01601f191660200182016040528015613fd65781602001600182028036833780820191505090505b509050600082602001820190505b600115614039578080600190039150507f3031323334353637383961626364656600000000000000000000000000000000600a86061a8153600a858161402d5761402c615df6565b5b04945060008503613fe4575b819350505050919050565b60008073ffffffffffffffffffffffffffffffffffffffff168373ffffffffffffffffffffffffffffffffffffffff16141580156140fc57508273ffffffffffffffffffffffffffffffffffffffff168473ffffffffffffffffffffffffffffffffffffffff1614806140bd57506140bc8484612a0b565b5b806140fb57508273ffffffffffffffffffffffffffffffffffffffff166140e383612e27565b73ffffffffffffffffffffffffffffffffffffffff16145b5b90509392505050565b60006a636f6e736f6c652e6c6f679050600080835160208501845afa505050565b6143cc819050919050565b600080600090507a184f03e93ff9f4daa797ed6e38ed64bf6a1f010000000000000000831061418f577a184f03e93ff9f4daa797ed6e38ed64bf6a1f010000000000000000838161418557614184615df6565b5b0492506040810190505b6d04ee2d6d415b85acef810000000083106141cc576d04ee2d6d415b85acef810000000083816141c2576141c1615df6565b5b0492506020810190505b662386f26fc1000083106141fb57662386f26fc1000083816141f1576141f0615df6565b5b0492506010810190505b6305f5e1008310614224576305f5e100838161421a57614219615df6565b5b0492506008810190505b612710831061424957612710838161423f5761423e615df6565b5b0492506004810190505b6064831061426c576064838161426257614261615df6565b5b0492506002810190505b600a831061427b576001810190505b80915050919050565b6040518060a0016040528060008152602001600073ffffffffffffffffffffffffffffffffffffffff168152602001600073ffffffffffffffffffffffffffffffffffffffff168152602001600081526020016000151581525090565b82805482825590600052602060002090810192821561431d579160200282015b8281111561431c578251825591602001919060010190614301565b5b50905061432a91906143d6565b5090565b6040518060a001604052806060815260200160608152602001600073ffffffffffffffffffffffffffffffffffffffff16815260200160608152602001600081525090565b8280548282559060005260206000209081019282156143bb579160200282015b828111156143ba5782518290816143aa919061573b565b5091602001919060010190614393565b5b5090506143c891906143f3565b5090565b6143d4615e25565b565b5b808211156143ef5760008160009055506001016143d7565b5090565b5b80821115614413576000818161440a9190614417565b506001016143f4565b5090565b50805461442390615498565b6000825580601f106144355750614454565b601f01602090049060005260206000209081019061445391906143d6565b5b50565b6000604051905090565b600080fd5b600080fd5b60007fffffffff0000000000000000000000000000000000000000000000000000000082169050919050565b6144a08161446b565b81146144ab57600080fd5b50565b6000813590506144bd81614497565b92915050565b6000602082840312156144d9576144d8614461565b5b60006144e7848285016144ae565b91505092915050565b60008115159050919050565b614505816144f0565b82525050565b600060208201905061452060008301846144fc565b92915050565b600081519050919050565b600082825260208201905092915050565b60005b83811015614560578082015181840152602081019050614545565b60008484015250505050565b6000601f19601f8301169050919050565b600061458882614526565b6145928185614531565b93506145a2818560208601614542565b6145ab8161456c565b840191505092915050565b600060208201905081810360008301526145d0818461457d565b905092915050565b6000819050919050565b6145eb816145d8565b81146145f657600080fd5b50565b600081359050614608816145e2565b92915050565b60006020828403121561462457614623614461565b5b6000614632848285016145f9565b91505092915050565b600073ffffffffffffffffffffffffffffffffffffffff82169050919050565b60006146668261463b565b9050919050565b6146768161465b565b82525050565b6000602082019050614691600083018461466d565b92915050565b600080604083850312156146ae576146ad614461565b5b60006146bc858286016145f9565b92505060206146cd858286016145f9565b9150509250929050565b6146e08161465b565b81146146eb57600080fd5b50565b6000813590506146fd816146d7565b92915050565b6000806040838503121561471a57614719614461565b5b6000614728858286016146ee565b9250506020614739858286016145f9565b9150509250929050565b600081519050919050565b600082825260208201905092915050565b6000819050602082019050919050565b614778816145d8565b82525050565b60006147898261463b565b9050919050565b6147998161477e565b82525050565b6147a8816144f0565b82525050565b60a0820160008201516147c4600085018261476f565b5060208201516147d76020850182614790565b5060408201516147ea6040850182614790565b5060608201516147fd606085018261476f565b506080820151614810608085018261479f565b50505050565b600061482283836147ae565b60a08301905092915050565b6000602082019050919050565b600061484682614743565b614850818561474e565b935061485b8361475f565b8060005b8381101561488c5781516148738882614816565b975061487e8361482e565b92505060018101905061485f565b5085935050505092915050565b600060208201905081810360008301526148b3818461483b565b905092915050565b6148c4816145d8565b82525050565b60006020820190506148df60008301846148bb565b92915050565b600080fd5b600080fd5b7f4e487b7100000000000000000000000000000000000000000000000000000000600052604160045260246000fd5b6149278261456c565b810181811067ffffffffffffffff82111715614946576149456148ef565b5b80604052505050565b6000614959614457565b9050614965828261491e565b919050565b600067ffffffffffffffff821115614985576149846148ef565b5b61498e8261456c565b9050602081019050919050565b82818337600083830152505050565b60006149bd6149b88461496a565b61494f565b9050828152602081018484840111156149d9576149d86148ea565b5b6149e484828561499b565b509392505050565b600082601f830112614a0157614a006148e5565b5b8135614a118482602086016149aa565b91505092915050565b60008060408385031215614a3157614a30614461565b5b600083013567ffffffffffffffff811115614a4f57614a4e614466565b5b614a5b858286016149ec565b925050602083013567ffffffffffffffff811115614a7c57614a7b614466565b5b614a88858286016149ec565b9150509250929050565b600080600060608486031215614aab57614aaa614461565b5b6000614ab9868287016146ee565b9350506020614aca868287016146ee565b9250506040614adb868287016145f9565b9150509250925092565b600082825260208201905092915050565b6000614b0182614526565b614b0b8185614ae5565b9350614b1b818560208601614542565b614b248161456c565b840191505092915050565b614b388161465b565b82525050565b600081519050919050565b600082825260208201905092915050565b6000819050602082019050919050565b6000614b76838361476f565b60208301905092915050565b6000602082019050919050565b6000614b9a82614b3e565b614ba48185614b49565b9350614baf83614b5a565b8060005b83811015614be0578151614bc78882614b6a565b9750614bd283614b82565b925050600181019050614bb3565b5085935050505092915050565b600060a0830160008301518482036000860152614c0a8282614af6565b91505060208301518482036020860152614c248282614af6565b9150506040830151614c396040860182614b2f565b5060608301518482036060860152614c518282614b8f565b9150506080830151614c66608086018261476f565b508091505092915050565b60006020820190508181036000830152614c8b8184614bed565b905092915050565b600081519050919050565b600082825260208201905092915050565b6000819050602082019050919050565b600060a0830160008301518482036000860152614cdc8282614af6565b91505060208301518482036020860152614cf68282614af6565b9150506040830151614d0b6040860182614b2f565b5060608301518482036060860152614d238282614b8f565b9150506080830151614d38608086018261476f565b508091505092915050565b6000614d4f8383614cbf565b905092915050565b6000602082019050919050565b6000614d6f82614c93565b614d798185614c9e565b935083602082028501614d8b85614caf565b8060005b85811015614dc75784840389528151614da88582614d43565b9450614db383614d57565b925060208a01995050600181019050614d8f565b50829750879550505050505092915050565b60006020820190508181036000830152614df38184614d64565b905092915050565b600060208284031215614e1157614e10614461565b5b6000614e1f848285016146ee565b91505092915050565b600080600060608486031215614e4157614e40614461565b5b6000614e4f868287016145f9565b9350506020614e60868287016146ee565b9250506040614e71868287016145f9565b9150509250925092565b614e84816144f0565b8114614e8f57600080fd5b50565b600081359050614ea181614e7b565b92915050565b60008060408385031215614ebe57614ebd614461565b5b6000614ecc858286016146ee565b9250506020614edd85828601614e92565b9150509250929050565b600067ffffffffffffffff821115614f0257614f016148ef565b5b614f0b8261456c565b9050602081019050919050565b6000614f2b614f2684614ee7565b61494f565b905082815260208101848484011115614f4757614f466148ea565b5b614f5284828561499b565b509392505050565b600082601f830112614f6f57614f6e6148e5565b5b8135614f7f848260208601614f18565b91505092915050565b60008060008060808587031215614fa257614fa1614461565b5b6000614fb0878288016146ee565b9450506020614fc1878288016146ee565b9350506040614fd2878288016145f9565b925050606085013567ffffffffffffffff811115614ff357614ff2614466565b5b614fff87828801614f5a565b91505092959194509250565b60a082016000820151615021600085018261476f565b5060208201516150346020850182614790565b5060408201516150476040850182614790565b50606082015161505a606085018261476f565b50608082015161506d608085018261479f565b50505050565b600060a082019050615088600083018461500b565b92915050565b600082825260208201905092915050565b60006150aa82614b3e565b6150b4818561508e565b93506150bf83614b5a565b8060005b838110156150f05781516150d78882614b6a565b97506150e283614b82565b9250506001810190506150c3565b5085935050505092915050565b60006020820190508181036000830152615117818461509f565b905092915050565b600067ffffffffffffffff82111561513a576151396148ef565b5b602082029050602081019050919050565b600080fd5b600061516361515e8461511f565b61494f565b905080838252602082019050602084028301858111156151865761518561514b565b5b835b818110156151cd57803567ffffffffffffffff8111156151ab576151aa6148e5565b5b8086016151b889826149ec565b85526020850194505050602081019050615188565b5050509392505050565b600082601f8301126151ec576151eb6148e5565b5b81356151fc848260208601615150565b91505092915050565b60008060006060848603121561521e5761521d614461565b5b600084013567ffffffffffffffff81111561523c5761523b614466565b5b615248868287016149ec565b9350506020615259868287016145f9565b925050604084013567ffffffffffffffff81111561527a57615279614466565b5b615286868287016151d7565b9150509250925092565b600081519050919050565b600082825260208201905092915050565b6000819050602082019050919050565b60006152c88383614af6565b905092915050565b6000602082019050919050565b60006152e882615290565b6152f2818561529b565b935083602082028501615304856152ac565b8060005b85811015615340578484038952815161532185826152bc565b945061532c836152d0565b925060208a01995050600181019050615308565b50829750879550505050505092915050565b6000602082019050818103600083015261536c81846152dd565b905092915050565b61537d8161477e565b82525050565b600060a08201905061539860008301886148bb565b6153a56020830187615374565b6153b26040830186615374565b6153bf60608301856148bb565b6153cc60808301846144fc565b9695505050505050565b600080604083850312156153ed576153ec614461565b5b60006153fb858286016146ee565b925050602061540c858286016146ee565b9150509250929050565b60006080820190508181036000830152615430818761457d565b90508181036020830152615444818661457d565b9050615453604083018561466d565b61546060608301846148bb565b95945050505050565b7f4e487b7100000000000000000000000000000000000000000000000000000000600052602260045260246000fd5b600060028204905060018216806154b057607f821691505b6020821081036154c3576154c2615469565b5b50919050565b7f4e487b7100000000000000000000000000000000000000000000000000000000600052601160045260246000fd5b6000615503826145d8565b915061550e836145d8565b9250828203905081811115615526576155256154c9565b5b92915050565b6000615537826145d8565b9150615542836145d8565b925082820190508082111561555a576155596154c9565b5b92915050565b7f4e487b7100000000000000000000000000000000000000000000000000000000600052603260045260246000fd5b60008190508160005260206000209050919050565b60006020601f8301049050919050565b600082821b905092915050565b6000600883026155f17fffffffffffffffffffffffffffffffffffffffffffffffffffffffffffffffff826155b4565b6155fb86836155b4565b95508019841693508086168417925050509392505050565b6000819050919050565b600061563861563361562e846145d8565b615613565b6145d8565b9050919050565b6000819050919050565b6156528361561d565b61566661565e8261563f565b8484546155c1565b825550505050565b600090565b61567b61566e565b615686818484615649565b505050565b5b818110156156aa5761569f600082615673565b60018101905061568c565b5050565b601f8211156156ef576156c08161558f565b6156c9846155a4565b810160208510156156d8578190505b6156ec6156e4856155a4565b83018261568b565b50505b505050565b600082821c905092915050565b6000615712600019846008026156f4565b1980831691505092915050565b600061572b8383615701565b9150826002028217905092915050565b61574482614526565b67ffffffffffffffff81111561575d5761575c6148ef565b5b6157678254615498565b6157728282856156ae565b600060209050601f8311600181146157a55760008415615793578287015190505b61579d858261571f565b865550615805565b601f1984166157b38661558f565b60005b828110156157db578489015182556001820191506020850194506020810190506157b6565b868310156157f857848901516157f4601f891682615701565b8355505b6001600288020188555050505b505050505050565b60006060820190508181036000830152615827818661457d565b9050818103602083015261583b818561457d565b905061584a604083018461466d565b949350505050565b600061585d826145d8565b91507fffffffffffffffffffffffffffffffffffffffffffffffffffffffffffffffff820361588f5761588e6154c9565b5b600182019050919050565b60006060820190506158af600083018661466d565b6158bc60208301856148bb565b6158c9604083018461466d565b949350505050565b7f436f6c6c656374696f6e20646f6573206e6f7420657869737400000000000000600082015250565b6000615907601983614531565b9150615912826158d1565b602082019050919050565b60006020820190508181036000830152615936816158fa565b9050919050565b7f506c65617365207375626d6974207468652061736b696e67207072696365206960008201527f6e206f7264657220746f20636f6d706c65746520746865207075726368617365602082015250565b6000615999604083614531565b91506159a48261593d565b604082019050919050565b600060208201905081810360008301526159c88161598c565b9050919050565b600081905092915050565b50565b60006159ea6000836159cf565b91506159f5826159da565b600082019050919050565b6000615a0b826159dd565b9150819050919050565b600081905092915050565b6000615a2b82614526565b615a358185615a15565b9350615a45818560208601614542565b80840191505092915050565b6000615a5d8285615a20565b9150615a698284615a20565b91508190509392505050565b6000615a818284615a20565b915081905092915050565b7f4f6e6c79206974656d206f776e65722063616e20706572666f726d207468697360008201527f206f7065726174696f6e00000000000000000000000000000000000000000000602082015250565b6000615ae8602a83614531565b9150615af382615a8c565b604082019050919050565b60006020820190508181036000830152615b1781615adb565b9050919050565b7f5072696365206d75737420626520657175616c20746f206c697374696e67207060008201527f7269636500000000000000000000000000000000000000000000000000000000602082015250565b6000615b7a602483614531565b9150615b8582615b1e565b604082019050919050565b60006020820190508181036000830152615ba981615b6d565b9050919050565b6000615bbb826145d8565b915060008203615bce57615bcd6154c9565b5b600182039050919050565b600081519050919050565b600082825260208201905092915050565b6000615c0082615bd9565b615c0a8185615be4565b9350615c1a818560208601614542565b615c238161456c565b840191505092915050565b6000608082019050615c43600083018761466d565b615c50602083018661466d565b615c5d60408301856148bb565b8181036060830152615c6f8184615bf5565b905095945050505050565b600081519050615c8981614497565b92915050565b600060208284031215615ca557615ca4614461565b5b6000615cb384828501615c7a565b91505092915050565b60006040820190508181036000830152615cd6818561457d565b9050615ce5602083018461466d565b9392505050565b60006040820190508181036000830152615d06818561457d565b9050615d1560208301846148bb565b9392505050565b7f5072696365206d757374206265206174206c6561737420312077656900000000600082015250565b6000615d52601c83614531565b9150615d5d82615d1c565b602082019050919050565b60006020820190508181036000830152615d8181615d45565b9050919050565b6000608082019050615d9d600083018761466d565b615daa602083018661466d565b615db760408301856148bb565b615dc460608301846144fc565b95945050505050565b6000604082019050615de2600083018561466d565b615def60208301846148bb565b9392505050565b7f4e487b7100000000000000000000000000000000000000000000000000000000600052601260045260246000fd5b7f4e487b7100000000000000000000000000000000000000000000000000000000600052605160045260246000fdfea2646970667358221220f15161f109b074790d04c7b42d89e05f96389285fdc99fce71dad033b05c1b0264736f6c63430008180033",
  "linkReferences": {},
  "deployedLinkReferences": {}
}